:020000040800F2
:10000000D06A00209D0100083957000841460008C9
:100010003557000895120008E9A400080000000008
:10002000000000000000000000000000CD88000873
:10003000512300080000000009790008EDA0000825
:10004000B7010008B7010008B7010008B7010008B0
:10005000B7010008B7010008512800085D28000812
:10006000B701000869280008B7010008B7010008B7
:10007000B7010008B7010008B7010008B701000880
:10008000B7010008B7010008B7010008B701000870
:10009000B7010008B7010008B7010008B701000860
:1000A000B7010008B7010008B7010008B701000850
:1000B000B7010008C9A10008B7010008B70100088E
:1000C000B7010008B7010008B7010008B701000830
:1000D000B7010008B7010008B7010008B701000820
:1000E000B7010008B7010008B7010008B701000810
:1000F000B7010008B7010008B7010008B701000800
:10010000B7010008B7010008B7010008B7010008EF
:10011000B7010008B7010008B7010008B7010008DF
:10012000B7010008B7010008B7010008B7010008CF
:10013000B7010008B7010008B7010008B7010008BF
:10014000B7010008B7010008B7010008B7010008AF
:10015000B7010008B7010008B7010008B70100089F
:10016000B7010008B7010008B7010008B70100088F
:10017000B7010008B7010008B7010008000000003F
:10018000B7010008B7010008DFF80CD000F094F8C0
:1001900000480047C5A60008D06A002006488047EE
:1001A00006480047FEE7FEE7FEE7FEE7FEE7FEE75C
:1001B000FEE7FEE7FEE7FEE7B5A1000889010008BB
:1001C0002DE9F05F0546002092469B46884606468C
:1001D000814640241BE0284641464746224600F01F
:1001E0005AF853465A46C01A914110D31146184640
:1001F000224600F041F82D1A67EB01084F462246CF
:100200000120002100F038F817EB00094E41201EB4
:10021000A4F10104DFDC484631462A464346BDE8E6
:10022000F09F40EA01039B0703D009E008C9121FB1
:1002300008C0042AFAD203E011F8013B00F8013BA0
:10024000521EF9D27047D2B201E000F8012B491ECC
:10025000FBD270470022F6E710B513460A46044663
:100260001946FFF7F0FF204610BD421C10F8011B95
:100270000029FBD1801A7047202A04DB203A00FABB
:1002800002F1002070479140C2F1200320FA03F3ED
:10029000194390407047202A04DB203A21FA02F0EB
:1002A0000021704721FA02F3D040C2F120029140B0
:1002B0000843194670470000064C074D06E0E06809
:1002C00040F0010394E8070098471034AC42F6D39D
:1002D000FFF75EFF28C9000848C9000870B58C18F0
:1002E00010F8015B15F0070301D110F8013B2A114A
:1002F00006D110F8012B03E010F8016B01F8016B37
:100300005B1EF9D12B0705D40023521E0DD401F832
:10031000013BFAE710F8013BCB1A921C03E013F8FB
:10032000015B01F8015B521EF9D5A142D8D3002030
:1003300070BD000080B58EB00A4603468DF83700C8
:10034000ADF834100020ADF832008DF8310040F2E5
:100350002C40C2F200004FF6FF71018040F682008F
:10036000C2F20000012101709DF83700C00600288C
:100370000CD5FFE701208DF8310040F63810C2F2AD
:100380000000017801F0EF0101701BE040F6381029
:10039000C2F200000078C006002809D5FFE79DF8EA
:1003A000370000F00F00012802D0FFE700F099BBF2
:1003B00040F63810C2F20000017801F00F01017020
:1003C000FFE7FFE79DF8370000F00F008DF83700DA
:1003D00040F63810C2F2000000788DF830009DF829
:1003E000300000018DF830009DF837009DF8301086
:1003F00008448DF830009DF83000014612280B911A
:1004000020D0FFE70B9822281CD0FFE70B98242868
:100410001ED0FFE70B98422814D0FFE70B98442822
:1004200029D0FFE70B98482825D0FFE70B988228B2
:1004300008D0FFE70B9884281DD0FFE70B98882889
:1004400019D022E0022001F023FBADF832001CE0BD
:1004500040F64410C2F2000040F64611C2F200011C
:1004600000F082FDADF83200BDF83200002801D066
:10047000FFE70AE0FFE740F64210C2F20000007812
:1004800001F006FBADF83200FFE7BDF832000028AE
:1004900040F0FE81FFE740F63A10C2F20000002172
:1004A00001809DF830001138014677280A9100F24A
:1004B000EA810A99DFE811F0AF0182007800E301D8
:1004C000E701E701E701E301E701E701E701E701F0
:1004D000E701E701E701E701A601B201E301CF006F
:1004E000E701E701E701E301E701E701E701E701D0
:1004F000E701E701E701E7017C00E301E701E30130
:10050000E701E701E701E301E701E701E701E701AF
:10051000E701E701E701E70190016E01E301B201A4
:10052000E701E701E7011301E701E701E701E7015F
:10053000E701E701E701E701E701E701E701E7017B
:10054000E701E701E701E701E701E701E701E7016B
:10055000E701E701E701E701E701E701E701E7015B
:10056000E701E701E701E701E701E701E701E7014B
:10057000E701E701E701E701E701E701E701E7013B
:10058000E701E701E701E701E701E701E701E7012B
:10059000E701E701E701E7017A015801E3014C01B6
:1005A000E701E701E701B2011320ADF832006EE187
:1005B0001320ADF8320000F065FE68E109F068FF35
:1005C00040F22A40C2F200000078002804D1FFE780
:1005D0005120ADF83200FFE7BDF83200002839D1D4
:1005E000FFE704F047FCADF83200BDF83200002808
:1005F00017D1FFE740F68200C2F20000002101702F
:1006000000F00AFEADF83200BDF83200002807D134
:10061000FFE740F68D00C2F2000001210170FFE704
:10062000FFE7BDF83200002813D0FFE7BDF8320025
:10063000FF280ED0FFE740F68200C2F200000078EB
:10064000002803D1FFE700F0EDFDFFE704F0B4FC64
:10065000FFE7FFE71BE108F0BDFDADF83200BDF894
:100660003200002822D1FFE740F68200C2F20000EB
:100670000021017040F68020C2F2000000F0C6FDAB
:10068000ADF83200BDF8320000280ED1FFE740F689
:100690008020C2F20000008808F034FD40F6860099
:1006A000C2F2000001210170FFE7FFE7BDF8320050
:1006B000002813D0FFE7BDF83200FF280ED0FFE777
:1006C00040F68200C2F200000078002803D1FFE764
:1006D00000F0A6FDFFE709F007FBFFE7D7E009F010
:1006E000C1FAADF83200BDF83200002817D1FFE79B
:1006F00040F68200C2F200000021017000F08EFD81
:10070000ADF83200BDF83200002807D1FFE740F60F
:100710008700C2F2000001210170FFE7FFE7BDF88A
:100720003200002813D0FFE7BDF83200FF280ED0BA
:10073000FFE740F68200C2F200000078002803D1F3
:10074000FFE700F071FDFFE709F066FBFFE79EE0C1
:1007500000F06AFD099009F05FFB40F68200C2F2EA
:1007600000000021017092E000F05EFDADF8320063
:1007700009F052FB40F68200C2F200000021017035
:10078000BDF83200002801D0FFE780E042208DF85C
:100790003000FFE700F044FD089009F0A5FA40F6AC
:1007A0008200C2F200000021017070E000F03CFD08
:1007B000ADF8320009F030FB40F68200C2F20000D2
:1007C00000210170BDF83200002801D0FFE75EE093
:1007D00041208DF83000FFE700F022FDADF8320037
:1007E00009F082FA40F68200C2F200000021017096
:1007F000BDF83200002801D0FFE748E021208DF845
:100800003000FFE704F0D8FB00F00CFDADF832003B
:1008100000F038FD3BE000F035FDFFE79DF83100CA
:10082000002805D0FFE79DF8300000F061FBFFE7EE
:1008300040F63810C2F20000007810F00C0F1AD009
:10084000FFE740F64610C2F200000088012804DBF2
:10085000FFE7022002F00EF80CE040F64410C2F26E
:1008600000000088012804DBFFE7032002F002F803
:10087000FFE7FFE7FFE7FE20ADF8320007E01120B9
:10088000ADF8320003E01220ADF83200FFE73FE0A0
:1008900040F63810C2F200000078014602280791A5
:1008A00014D0FFE7079804280AD0FFE70798082824
:1008B0002DD1FFE700F0B8FC069009F0ADFAFFE794
:1008C00000F0AEFC059009F00FFAFFE7BDF832002A
:1008D000162814D1FFE704F06FFB00F0A3FC002101
:1008E0000490084601F036FD0120039001F032FD2E
:1008F00040F63810C2F200000399017006E040F69D
:100900003810C2F2000002210170FFE7FFE7FFE7A5
:10091000BDF83200FF2845D1FFE740F68800C2F25B
:100920000000012101709DF8300040F63A11C2F23A
:10093000000108800888A0F112010229029008D362
:10094000FFE7029824280CD0FFE70298482808D037
:100950000FE040F22C40C2F200004FF4FA61018037
:100960000EE040F22C40C2F2000042F22831018039
:1009700006E040F22C40C2F20000C8210180FFE7EF
:1009800040F22C40C2F20000B0F9001046F267625B
:10099000C6F2666251FB02F2930803EBD272891A27
:1009A00001809EE09DF8370040F63811C2F2000148
:1009B000097801F00F01884200F08480FFE7BDF85C
:1009C0003200002805D1FFE7BDF83400002834D0FC
:1009D000FFE79DF8370040F63811C2F200010978B0
:1009E00008430007002828D5FFE740F68700C2F239
:1009F00000000078002806D0FFE700F015FC019009
:100A000009F00AFAFFE740F64610C2F2000000883B
:100A1000012804DBFFE7022001F09CFC0CE040F61B
:100A20004410C2F200000088012804DBFFE7032025
:100A300001F090FCFFE7FFE7FFE7BDF83200002878
:100A400018D0FFE740F63810C2F2000000780828FE
:100A500007D1FFE740F63810C2F200000421017010
:100A6000FFE740F63810C2F20000017841F01001B3
:100A7000017017E0BDF8340000280BD0FFE7BDF887
:100A80003400ADF832009DF8370040F010008DF8CA
:100A90003700FFE79DF8370040F63811C2F2000139
:100AA0000870FFE740F68800C2F2000000210170E4
:100AB00040F63810C2F200000078BDF8321008F09D
:100AC00049FB0DE040F68800C2F2000000210170F1
:100AD00040F63810C2F20000007808F03BFBFFE758
:100AE000FFE70EB080BD000080B588B040F68800FA
:100AF000C2F200000078002800F0F881FFE7002033
:100B0000ADF81E008DF81D00ADF81A0040F22C4023
:100B1000C2F20000B0F90000002840F0B980FFE701
:100B200040F63A10C2F20000018809098DF81D1044
:100B30000088A0F112010229059008D3FFE705986B
:100B4000242826D0FFE70598482844D09FE040F6A7
:100B50008200C2F200000078002803D1FFE700F015
:100B600061FBFFE704F028FA40F68B00C2F20000B8
:100B70000078002808D0FFE740F68820C2F2000085
:100B80000088ADF81A0003E00120ADF81A00FFE775
:100B90007DE040F68200C2F200000078002803D118
:100BA000FFE700F03DFBFFE709F09EF840F68B0001
:100BB000C2F200000078002808D0FFE740F6882045
:100BC000C2F200000088ADF81A0003E00120ADF881
:100BD0001A00FFE75BE040F68400C2F200000078F4
:100BE000002826D0FFE740F68300C2F2000000781C
:100BF000002804D1FFE72D20ADF81A0018E040F6D8
:100C00008500C2F20000007800280CD1FFE740F612
:100C10004610C2F200000088012804DBFFE71B2019
:100C2000ADF81A0003E01A20ADF81A00FFE7FFE75D
:100C300019E040F64610C2F200000088012804DBEB
:100C4000FFE71B20ADF81A000CE008208DF81D000E
:100C50000020ADF81A0040F68700C2F20000012122
:100C60000170FFE7FFE7BDF81A0000280ED0FFE78C
:100C700040F68200C2F200000078002803D1FFE7AE
:100C800000F0D2FAFFE709F0C7F8FFE7FFE70EE14F
:100C900040F63A10C2F200000088A0F112010229C9
:100CA000049008D3FFE70498242839D0FFE704987C
:100CB000482868D0FAE040F68200C2F200000078CE
:100CC00000282CD0FFE740F68200C2F2000000218D
:100CD000017000F0A1FAADF81E00BDF81E0000285A
:100CE00010D1FFE740F68D00C2F200000121017033
:100CF00040F63A10C2F20000008800F00F008DF8B4
:100D00001D000BE0BDF81E00FF2806D0FFE700F035
:100D100089FA039004F050F9FFE7FFE7FFE7C5E029
:100D200040F68200C2F20000007800282AD0FFE7D7
:100D300040F68200C2F200000021017040F68020DF
:100D4000C2F2000000F062FAADF81E00BDF81E000D
:100D500000280AD1FFE740F68600C2F20000012118
:100D6000017004208DF81D000BE0BDF81E00FF2867
:100D700006D0FFE700F054FA029008F0B5FFFFE755
:100D8000FFE7FFE792E040F68200C2F20000007841
:100D9000002800F08A80FFE740F68400C2F20000DD
:100DA0000078002849D0FFE740F63610C2F2000074
:100DB000B0F9000001283FDBFFE740F63610C2F231
:100DC0000000B0F9000040F63411C2F20001B1F9A0
:100DD0000010884230DCFFE740F63610C2F2000017
:100DE0000021018040F63410C2F20000018040F67C
:100DF0008200C2F20000017000F010FAADF81E008F
:100E0000BDF81E0000280AD1FFE740F68700C2F2B5
:100E100000000121017008208DF81D000BE0BDF8D5
:100E20001E00FF2806D0FFE700F0FEF9019008F051
:100E3000F3FFFFE7FFE7FFE736E040F64610C2F2B8
:100E400000000088002808D0FFE740F68500C2F2C5
:100E500000000078002826D0FFE740F68200C2F2AA
:100E600000000021017000F0D9F9ADF81E00BDF8B6
:100E70001E0000280AD1FFE740F68700C2F20000FA
:100E80000121017008208DF81D000BE0BDF81E0047
:100E9000FF2806D0FFE700F0C7F9009008F0BCFF7C
:100EA000FFE7FFE7FFE7FFE7FFE7FFE7FFE79DF863
:100EB0001D00002819D0FFE740F68800C2F20000AC
:100EC00000210170BDF81A00002807D0FFE79DF847
:100ED0001D0040F010008DF81D00FFE79DF81D007B
:100EE000BDF81A1008F036F9FFE7FFE708B080BD3B
:100EF00081B00146ADF8020001B0704780B540F204
:100F00002830C2F20000817841F0010181708178BF
:100F100001F0FD018170817841F0040181708178D8
:100F200001F0F7018170817841F01001817040F289
:100F30007830C2F200008078C007002809D1FFE7AE
:100F400040F20040C4F202000221002202F0E4F864
:100F500008E040F20040C4F202000221012202F047
:100F6000DBF8FFE780BD000080B58CB00B900A91E4
:100F70000020ADF82600ADF82400ADF82200ADF851
:100F800020000790ADF81A000590ADF81200ADF8FA
:100F90002000FFE7BDF8200040F20841C2F2000146
:100FA000098888424FDAFFE7BDF8200040F2084187
:100FB000C2F2000101EB4000408804F08DFE079072
:100FC0000798002831D0FFE7079880690088ADF8BE
:100FD0001A000020ADF81200FFE7BDF81200BDF8BE
:100FE0001A10884220DAFFE707988169BDF81220BD
:100FF0000132D2B203901046039A0291114604F0D6
:101000000BFD0009029901EB40000590059800785E
:10101000BDF822100844ADF82200FFE7BDF8120029
:101020000130ADF81200D8E706E00020ADF822004C
:101030002520ADF8260006E0FFE7BDF820000130CE
:10104000ADF82000A6E7BDF822000730C008ADF8D3
:101050002200BDF8260000285ED1FFE70020ADF891
:101060002000FFE7BDF8200040F21241C2F200016B
:10107000098888424FDAFFE7BDF8200040F21241AC
:10108000C2F2000101EB4000408804F025FE079009
:101090000798002831D0FFE7079880690088ADF8ED
:1010A0001A000020ADF81200FFE7BDF81200BDF8ED
:1010B0001A10884220DAFFE707988169BDF81220EC
:1010C0000132D2B201901046019A0091114604F00B
:1010D000A3FC0009009901EB4000059005980078F9
:1010E000BDF824100844ADF82400FFE7BDF8120055
:1010F0000130ADF81200D8E706E00020ADF824007A
:101100002420ADF8260006E0FFE7BDF820000130FE
:10111000ADF82000A6E7FFE7BDF824000730C008BF
:10112000ADF82400BDF824000B990880BDF822001A
:101130000A990880BDF826000CB080BD80B584B047
:1011400003900398029000208DF80700FFE79DF8B8
:10115000070040F21241C2F20001098888421EDAFB
:10116000FFE79DF8070040F21241C2F2000101EBD7
:1011700040004088B0F5D05F0AD1FFE7029840F206
:101180002831C2F2000102311222FFF74AF8FFE7CC
:10119000FFE79DF8070001308DF80700D7E704B09E
:1011A00080BD000080B584B00390039802900020B9
:1011B0008DF80700FFE79DF8070040F20841C2F2F2
:1011C0000001098888421EDAFFE79DF8070040F217
:1011D0000841C2F2000101EB40004088B0F5B05F69
:1011E0000AD1FFE7029940F27830C2F200000230E3
:1011F0001222FFF716F8FFE7FFE79DF8070001301E
:101200008DF80700D7E704B080BD000081B00090E2
:10121000002001B070470000002070470020704798
:1012200000207047002070470020704780B584B0D0
:1012300002900020ADF8060002980090FFE70098A9
:1012400000894FF6FF71884213D0FFE7009800F045
:1012500023F8ADF80600BDF80600002805D0FFE72A
:10126000BDF80600ADF80E0008E0009828300090A8
:10127000E5E7BDF80600ADF80E00FFE7BDF80E008B
:1012800004B080BD40F69900C2F200000021017058
:1012900070470000FFE7FEE783B001900198002847
:1012A00000F08480FFE740F63800C2F200000068DA
:1012B00000280ED1FFE7019840F63801C2F2000184
:1012C000086008680022426008680260ADF80A20E1
:1012D00070E040F63800C2F2000000680089019911
:1012E0000989884212DDFFE701980021016040F67C
:1012F0003800C2F200000268019B5A60019A03683C
:101300001A60019A0260ADF80A1053E040F6380006
:10131000C2F2000000680090FFE70098002842D069
:10132000FFE70098008901990989884204D1FFE705
:101330000120ADF80A003DE0009800890199098973
:10134000884218DDFFE7009800680199086000985E
:101350000199486000980068002805D0FFE70198CF
:10136000009909684860FFE701980099086000202B
:10137000ADF80A001EE00098406800280CD1FFE795
:10138000019800994860009801990860019800212F
:101390004160ADF80A100DE0009840680090FFE74A
:1013A000FFE7FFE7B9E7FFE7FFE7FFE70120ADF859
:1013B0000A00FFE7BDF80A0003B0704780B582B0AD
:1013C00040F63800C2F20000006801900020ADF83D
:1013D0000200FFE7019800280CD0FFE70198008980
:1013E000ADF80200019840680190BDF8020000F0DD
:1013F000D5F9EFE740F63800C2F2000000210160A5
:1014000002B080BD80B584B0029040F65C10C2F29C
:1014100000000068002810D0FFE740F65C10C2F220
:10142000000001680022019008461146009203F076
:10143000F5FB0099019A11601DE0802009F0DEF9AA
:1014400002900298002804D1FFE707208DF80F00D2
:1014500015E0029840F67001C2F200018A8982818B
:101460000A684B688968816043600260029806F0F0
:101470007DFEFFE7FFE700208DF80F00FFE79DF8F6
:101480000F0004B080BD000040F63800C2F200003A
:101490000068704740F65C10C2F200000021016055
:1014A00040F64810C2F200000180704710B586B0C7
:1014B00000208DF8170040F66810C2F200000068A6
:1014C000002800F09980FFE740F66810C2F20000A3
:1014D000006840F69221C2F20001098840F6C42259
:1014E000C2F20002127840F6AC23C2F200031B687D
:1014F00040F6781CC2F2000CDCF800C040F6980EF2
:10150000C2F2000E9EF800E06C46C4F800E00490C1
:10151000084611461A466346DDF810C0E0478DF8CC
:1015200017009DF81700FF2865D0FFE740F6C3209D
:10153000C2F2000000780146012803911FD0FFE7A6
:101540000398022805D0FFE70398C11E02291ED385
:101550002CE040F67010C2F20000006800280DD0A8
:10156000FFE740F67010C2F20000016802900846E2
:1015700009F01CF9002002990860FFE7FFE79DF8D9
:10158000170000210191019A07F058F80EE09DF82C
:10159000170040F6AC21C2F20001096840F678124B
:1015A000C2F20002126807F049F8FFE740F6C320D4
:1015B000C2F200000021017040F69220C2F2000049
:1015C000018040F6C420C2F20000017040F6AC2059
:1015D000C2F20000016040F67810C2F20000016023
:1015E00040F69800C2F20000017040F66810C2F2A6
:1015F00000000160FFE7FFE706B010BD80B582B0D4
:101600000020ADF8040040F63801C2F20001086085
:1016100040F24810C2F20000FFF708FEADF80400E7
:10162000BDF80400002805D0FFE7BDF80400ADF8C0
:1016300006000CE040F20800C2F20000FFF7F6FDE1
:10164000ADF80400BDF80400ADF80600FFE7BDF8F2
:10165000060002B080BD000080B582B040F63C209C
:10166000C2F200002021018000224280426044F248
:101670001F0383814AF22013C0F207030361426112
:10168000828302620285428580F8402040F6F81C81
:10169000C2F2000CACF80010ACF802204168CCF8A3
:1016A00004108089ACF80C00CCF81030CCF8142071
:1016B000ACF81C20CCF82020ACF82820ACF82A206C
:1016C0008CF8402040F69900C2F200000270FFF74B
:1016D00095FFADF80600BDF80600002803D0FFE72F
:1016E000FFF76CFEFFE740F6C320C2F200000021C6
:1016F000017040F69800C2F20000017040F692209E
:10170000C2F20000018040F6C420C2F20000017065
:1017100040F6AC20C2F20000016040F67810C2F240
:101720000000016040F66810C2F20000016040F65F
:101730007010C2F200000160009140F66010C2F229
:1017400000000068806800909DF8000000070028F5
:1017500007D5FFE740F68000C2F2000000210170CB
:1017600012E040F68000C2F200000121017040F654
:101770006010C2F200000068D0F8100940F6A02105
:10178000C2F200010860FFE740F69820C2F20000B4
:101790004FF47A61016002B080BD000084B0014660
:1017A000ADF80E0040F63800C2F20000006802906A
:1017B000FFE70298002839D0FFE702980089BDF8BA
:1017C0000E1088422ED1FFE702980068019002981F
:1017D000406800900198002804D0FFE70098019924
:1017E0004860FFE70098002804D0FFE701980099BF
:1017F0000860FFE7029800210160029841600298AA
:10180000008940F63801C2F200010968098988425E
:1018100007D1FFE7009840F63801C2F200010860E6
:10182000FFE703E0029840680290C2E704B0704707
:1018300080B584B0039000208DF80B000398C08819
:101840004FF0FF3101EB103001460728019116D807
:101850000199DFE801F0100410101010100A03982D
:1018600006F0F2F88DF80B000DE0039806F07EFC10
:101870008DF80B0007E004208DF80B0003E0052035
:101880008DF80B00FFE79DF80B0004B080BD000051
:1018900081B040F68000C2F200000078002828D015
:1018A000FFE740F6B820C2F200000168009140F660
:1018B0006011C2F200010968D1F810190091009975
:1018C0000160009840F6A021C2F200010968884238
:1018D00008D2FFE740F6B820C2F2000041680131AB
:1018E0004160FFE7009840F6A021C2F200010860C5
:1018F0000FE040F66010C2F200000068D0F8101946
:10190000D0F8140940F6B822C2F20002506011600B
:10191000FFE740F69820C2F200000021016001B00C
:101920007047000040F63C20C2F20000408D0028C5
:101930000DDCFFE740F63C20C2F20000008D40F2D3
:10194000E831C2F200010989884208DDFFE740F66C
:101950003C20C2F20000012180F8401007E040F670
:101960003C20C2F20000002180F84010FFE740F662
:10197000F810C2F20000408D00280DDCFFE740F6B1
:10198000F810C2F20000008D40F2E831C2F200010E
:101990000989884208DDFFE740F6F810C2F200002E
:1019A000012180F8401007E040F6F810C2F2000074
:1019B000002180F84010FFE77047000080B582B03A
:1019C00040F22840C2F200000088002830D0FFE733
:1019D0000020ADF8060040F66010C2F2000000687A
:1019E000B0F84004ADF806009DF80600C0070028D6
:1019F0001DD1FFE740F64610C2F200000088012822
:101A000015DBFFE740F68700C2F2000000780028EF
:101A100005D0FFE704201B21FEF78CFC35E040F6E3
:101A20008500C2F2000000210170FFE7FFE7FFE739
:101A300040F68400C2F200000078002825D0FFE7BD
:101A400040F68700C2F20000007800281CD0FFE7B3
:101A500040F68300C2F200000078002805D1FFE7BD
:101A600004202C21FEF766FC0FE040F69700C2F23E
:101A700000000078002805D1FFE704201A21FEF7B6
:101A800059FC02E0FFE7FFE7FFE702B080BD00007E
:101A900080B584B001468DF80E0000208DF80C0052
:101AA000ADF80600ADF8040040F64010C2F20000A8
:101AB000008842F6FF7290421EDBFFE740F64010BE
:101AC000C2F20000008842F6FF71884214DBFFE793
:101AD00040F64010C2F20000008842F6FF718842D2
:101AE0000ADBFFE740F64010C2F20000008842F631
:101AF000FE71884204DCFFE714208DF80F0050E2ED
:101B0000002000F0D9FF029002984088ADF806004E
:101B100002980088ADF804000298C088C007002829
:101B200004D1FFE716208DF80C0041E00298808870
:101B300000F00C00042804D0FFE716208DF80C00FC
:101B400035E00298808800F00200022804D0FFE708
:101B500016208DF80C0029E0BDF80600232804DCCF
:101B6000FFE716208DF80C001FE0BDF80600812865
:101B700004DBFFE716208DF80C0015E0BDF804002B
:101B8000B0F5805F04DAFFE716208DF80C000AE05C
:101B9000BDF80400B0F5405F04DBFFE716208DF8C8
:101BA0000C00FFE7FFE7FFE7FFE7FFE7FFE7FFE7DF
:101BB0009DF80C00002858D1FFE7012000F07CFFC1
:101BC000029002984088ADF8060002980088ADF8AF
:101BD00004000298C088C007002804D1FFE716203F
:101BE0008DF80C0040E00298808810F00C0F04D0B3
:101BF000FFE716208DF80C0035E00298808800F091
:101C00000200022804D0FFE716208DF80C0029E01E
:101C1000BDF80600232804DCFFE716208DF80C0031
:101C20001FE0BDF80600812804DBFFE716208DF8D1
:101C30000C0015E0BDF80400B0F5805F04DAFFE7A2
:101C400016208DF80C000AE0BDF80400B0F5405FE6
:101C500004DBFFE716208DF80C00FFE7FFE7FFE746
:101C6000FFE7FFE7FFE7FFE7FFE79DF80C0000282D
:101C700040F0AB80FFE79DF80E000428C0F2A5807D
:101C8000FFE740F68100C2F200000121017003204D
:101C900000F012FF029002984088ADF8060002980A
:101CA0000088ADF804000298C088C007002809D059
:101CB000FFE7BDF80600002804D1FFE704208DF8F7
:101CC0000C0078E00298C088C007002860D0FFE7C9
:101CD000BDF8060040F64411C2F2000109888842AE
:101CE0000DD1FFE740F64410C2F200000088002842
:101CF00005D0FFE7BDF80600112804DBFFE703204D
:101D00008DF80C0043E00298808810F00C0F39D158
:101D1000FFE740F63810C2F20000007802280CD12C
:101D2000FFE7BDF80400B0F5805F06DBFFE7BDF814
:101D30000400B0F5405F12DBFFE740F63810C2F256
:101D400000000078022818D0FFE7BDF8040040F634
:101D50003C11C2F20001098888420ED1FFE70298C7
:101D600080888007002807D5FFE740F68100C2F28F
:101D7000000000210170FFE703E002208DF80C0055
:101D8000FFE703E004208DF80C00FFE7FFE711E018
:101D9000BDF80600002808D1FFE740F64410C2F263
:101DA00000000088002804D0FFE703208DF80C0015
:101DB000FFE7FFE7FFE79DF80C00002804D0FFE7EE
:101DC0001E208DF80C00FFE7FFE79DF80C000028AF
:101DD00040F0BA80FFE79DF80E000328C0F2B480FF
:101DE000FFE7022000F068FE029002984088ADF8FC
:101DF000060002980088ADF804000298C088C00769
:101E0000002809D0FFE7BDF80600002804D1FFE74D
:101E100004208DF80C008DE00298C088C0070028CF
:101E200075D0FFE7BDF8060040F64611C2F200018A
:101E30000988884266D1FFE740F64610C2F20000EA
:101E4000008800285ED0FFE7BDF80600102859DCA6
:101E5000FFE70298808800F00C0004284DD1FFE7CE
:101E600040F63810C2F20000007802280CD1FFE7DB
:101E7000BDF80400B0F5805F06DBFFE7BDF80400A5
:101E8000B0F5405F12DBFFE740F63810C2F2000009
:101E9000007802282CD0FFE7BDF8040040F63E1180
:101EA000C2F200010988884222D1FFE702988088A7
:101EB0004006002807D5FFE740F69A00C2F200006E
:101EC0000121017006E040F69A00C2F200000021F4
:101ED0000170FFE7029880888007002807D5FFE798
:101EE00040F68100C2F2000000210170FFE703E02C
:101EF00002208DF80C00FFE703E004208DF80C00B1
:101F0000FFE703E003208DF80C00FFE711E0BDF8C8
:101F10000600002808D1FFE740F64610C2F2000094
:101F20000088002804D0FFE703208DF80C00FFE7AD
:101F3000FFE7FFE79DF80C00002804D0FFE71D2015
:101F40008DF80C00FFE7FFE79DF80C00002823D177
:101F5000FFE79DF80E008DF80D00FFE79DF80D00DE
:101F600040F64211C2F200010978884213DAFFE715
:101F70009DF80D0000F0A0FD02900298C08840F688
:101F80003C01C2F200010880FFE79DF80D0001301E
:101F90008DF80D00E2E7FFE79DF80C008DF80F00CB
:101FA000FFE79DF80F0004B080BD000083B00A4633
:101FB0000346ADF80800ADF80610BDF8060001466E
:101FC0002228009100F2E4800099DFE811F023005C
:101FD00027008900B500E100E100E100E100E10037
:101FE000E100E100E100E100E100E100E100E100E9
:101FF000E100E100E100E100E100E100E100E100D9
:10200000E100E100E100E100E100E100E100E100C8
:10201000E1006B0000208DF80B00BDE0BDF808006A
:1020200041F63241884216D1FFE740F64610C2F22F
:102030000000008801280EDBFFE740F63C20C2F2DA
:102040000000808900F00200012804DBFFE7002087
:102050008DF80B00A0E0BDF8080041F6334188423E
:102060001ED1FFE740F6F810C2F20000808900F0B0
:102070000200012814DBFFE740F64610C2F2000020
:10208000008800280CD1FFE740F64410C2F200009F
:102090000088012804DBFFE700208DF80B007BE0BF
:1020A000FFE775E0BDF8080041F63341884216D1DC
:1020B000FFE740F6F810C2F20000808900F002004D
:1020C00001280CDBFFE740F64610C2F20000008852
:1020D000012804DBFFE700208DF80B005CE057E0EF
:1020E000BDF8080041F6324188420ED1FFE740F6C4
:1020F0003C20C2F20000808900F00400012804DBCB
:10210000FFE700208DF80B0046E0BDF8080041F61F
:10211000334188420ED1FFE740F6F810C2F20000CA
:10212000808900F00400012804DBFFE700208DF81F
:102130000B0031E0FFE72BE0BDF8080041F632412B
:1021400088420ED1FFE740F63C20C2F200008089B1
:1021500000F00800012804DBFFE700208DF80B00E9
:102160001AE0BDF8080041F6334188420ED1FFE77E
:1021700040F6F810C2F20000808900F00800012843
:1021800004DBFFE700208DF80B0005E0FFE7FFE729
:1021900012208DF80B00FFE79DF80B0003B070478D
:1021A00040F68400C2F200000078002800F0CF80E2
:1021B000FFE740F68600C2F200000078002800F039
:1021C000C680FFE740F64000C2F200000088012808
:1021D00014DBFFE740F63E00C2F20000008840F644
:1021E0004001C2F200010988884207DBFFE740F6A0
:1021F0008300C2F20000002101701BE040F63E00A7
:10220000C2F20000008840F64001C2F200010988D5
:10221000884208DAFFE740F63E00C2F2000001887B
:1022200001310180FFE740F68300C2F20000012186
:102230000170FFE740F68300C2F20000007800283A
:1022400026D0FFE740F64400C2F2000000880128D3
:102250001DDBFFE740F64200C2F20000008840F6B6
:102260004401C2F200010988884208DAFFE740F61B
:102270004200C2F2000001880131018006E040F610
:102280008300C2F2000000210170FFE7FFE7FFE7D3
:1022900040F68300C2F200000078002846D0FFE735
:1022A00040F63C20C2F20000008D40F2E831C2F25C
:1022B00000010989884218DAFFE740F69700C2F268
:1022C00000000121017040F63610C2F20000B0F9A2
:1022D0000000012808DBFFE740F63410C2F20000DE
:1022E000018801310180FFE71FE040F69700C2F24C
:1022F00000000078002817D0FFE740F69700C2F2F0
:1023000000000021017040F63610C2F20000B0F962
:102310000000012807DBFFE740F63410C2F200009E
:1023200000210180FFE7FFE7FFE70FE040F697009D
:10233000C2F200000078002807D0FFE740F69700BF
:10234000C2F2000000210170FFE7FFE7FFE77047DE
:102350007047000082B001468DF807004FF480708E
:10236000ADF802009DF80700C00000F60600ADF8C9
:102370000400BDF8020040F66012C2F200021268CA
:10238000BDF8043023F00103D052FFE740F660109F
:10239000C2F200000068BDF8041021F00101405AAB
:1023A000ADF80200FFE7BDF80200C0050028EDD53A
:1023B000FFE702B07047000080B540F63C20C2F253
:1023C0000000808BC007002809D1FFE740F6F81015
:1023D000C2F20000808BC00700280CD0FFE740F657
:1023E0004610C2F200000088002803D1FFE702F087
:1023F000BDF8FFE7FFE7FEF781FD80BD80B540F641
:102400008800C2F200000078002811D0FFE740F2F7
:102410002C40C2F20000B0F90000012808DBFFE701
:1024200040F22C40C2F20000018801390180FFE730
:10243000FFF7B6FE40F68000C2F2000000780028E8
:102440000CD0FFE740F6B820C2F2000000684FF65B
:102450004031CFF6E171884210D8FFE740F6B8204E
:10246000C2F200000168426844F24023C0F20F0348
:10247000C91842F100020160426010E040F680009D
:10248000C2F200000078002808D0FFE740F698204C
:10249000C2F200004FF47A610160FFE7FFE740F607
:1024A0009820C2F2000001680131016080BD000087
:1024B00080B584B00020ADF80C0040F66011C2F287
:1024C00000010A689288ADF80C209DF80D2040F6B6
:1024D0004213C2F200031A700968C988ADF80C10E3
:1024E000BDF80C1040F6FF7202EB812140F640125D
:1024F000C2F200021180029007F0CAFF02988DF824
:102500000F00FFE79DF80F0040F64211C2F20001F4
:10251000097888420BDAFFE79DF80F00FFF71AFFF2
:10252000FFE79DF80F0001308DF80F00EAE702F099
:1025300023FA40F68200C2F200000021017040F64A
:102540008800C2F20000017040F68500C2F200006F
:10255000017040F68700C2F20000017040F686006C
:10256000C2F20000017040F69A00C2F20000017051
:1025700040F22840C2F20000018040F63E00C2F264
:102580000000018040F64000C2F20000018040F6E9
:102590004200C2F20000018040F64400C2F2000096
:1025A000018040F68400C2F20000017040F68B000A
:1025B000C2F20000017040F68820C2F200000180E3
:1025C00040F68020C2F20000018040F64610C2F2C0
:1025D0000000018040F64410C2F20000018040F685
:1025E0003810C2F20000012202700078019106F05A
:1025F000B1FD40F63A10C2F200000199018040F6A8
:102600008900C2F200000170FEF744FF019805F056
:10261000F3F904B080BD000080B582B00020ADF8B1
:1026200004000120ADF8020002F0E0FB40F68D004E
:10263000C2F20000007800280AD0FFE740F66010E0
:10264000C2F200000068B0F80E08ADF80200FFE723
:1026500040F66010C2F200000068B0F82002ADF849
:1026600006009DF80600C00700281DD0FFE740F6D1
:102670008800C2F200000078002815D1FFE740F67C
:102680006010C2F200000068B0F82001ADF804004C
:10269000BDF8060020F01100ADF806009DF804001A
:1026A0000021FDF747FEFFE7BDF80600C006002841
:1026B0002CD5FFE740F68800C2F200000078002821
:1026C00024D1FFE740F63810C2F200000078C006BF
:1026D00000281BD4FFE740F63810C2F20000007853
:1026E00000F0EF00012811D0FFE7BDF8060020F050
:1026F0001000ADF8060040F63810C2F20000007875
:1027000000F00F000021FDF715FEFFE740F68800FE
:10271000C2F200000078002803D0FFE7FEF7E4F9DA
:10272000FFE740F68D00C2F200000078002800F0BC
:102730008C80FFE7BDF80200C00700280BD1FFE73F
:1027400040F63810C2F20000007800F00F000021BF
:10275000FDF7F0FDFFE7BDF80600800500281DD558
:10276000FFE740F69420C2F20000002101800088BB
:1027700040F66011C2F20001096840F68622C2F2FA
:102780000002128822F001028852BDF8060020F4EF
:102790000070ADF8060002F067F9FFE7BDF802002F
:1027A0008007002808D5FFE740F68C00C2F2000041
:1027B000007800280ED0FFE7BDF80200800700284F
:1027C0002AD4FFE740F68C00C2F20000007800280F
:1027D00022D0FFE702F0D4F940F68C00C2F20000EC
:1027E0000078002807D0FFE7BDF8020040F4007031
:1027F000ADF8020006E0BDF8020020F40070ADF86C
:102800000200FFE7BDF8020040F66011C2F20001CD
:102810000968A1F80E08FFE740F66010C2F2000058
:102820000068B0F82002ADF806009DF80700C00768
:10283000002809D0FFE7BDF8060020F48070ADF84D
:10284000060001F0FFFEFFE7FFE702B080BD0000D9
:1028500080B5012000F04AFA80BD000080B502205A
:1028600000F044FA80BD000080B5082000F03EFA78
:1028700080BD000082B001468DF807000020ADF851
:1028800002009DF80700C00000F60600ADF8040045
:10289000BDF8020040F66012C2F200021268BDF8F4
:1028A000043023F00103D052FFE740F66010C2F27B
:1028B00000000068BDF8041021F00101405AADF895
:1028C0000200FFE7BDF80200C0050028EDD4FFE7D5
:1028D00002B0704772B6FFE7FEE7000080B584B033
:1028E00003900291019200930098B0F5804F1DD1A2
:1028F000FFE70398019950F821000021CCF6F07110
:10290000084002990A684B68D1F808C0D1F80CE079
:1029100042EA031242EA0C228969114341EA0E415C
:1029200008430399019A41F8220006E003980199AF
:102930006FF0704240F82120FFE7002004B080BD16
:1029400080B585B00490039104980399096850F804
:10295000212022F0010240F82120039880680828F5
:1029600003D1FFE74020029002E000200290FFE741
:10297000029803994A688B68D1F80CC0D1F810E02E
:102980001043184340EA0C0040EA0E004A69104325
:10299000CA6910430A6A10434A6A10438A6A10439C
:1029A000CA6A1043096B0843019003988069019932
:1029B000084301900398C06B0199084301904FF6BA
:1029C0007F30C0F208000090009840F480600090D2
:1029D000009840F4E020009004980399096850F8AA
:1029E000210000998843019908430499039A1268C9
:1029F00041F82200002005B080BD000080B583B002
:102A00000290019100920298009900EB81004068C9
:102A100000F0404001990A684B68D1F808C0D1F82D
:102A20000CE042EA031242EA0C2242EA0E420B692F
:102A300040F2000CCFF6F07C0CEB03531A434B69C9
:102A4000FE3342EA03628969114308430299009AFE
:102A500001EB82014860002003B080BD83B002908A
:102A600002980188408881421FD0FFE702980088C1
:102A7000ADF802000298BDF8021000EB81008068FA
:102A80000190BDF802000130ADF80200BDF802006F
:102A900002990880029801888088814204D1FFE76A
:102AA000029800210180FFE702E000200190FFE78B
:102AB000019803B07047000081B001468DF8030013
:102AC00040F66010C2F2000000689DF8032000EBA1
:102AD000C200D0F80028D0F8040840F64603C2F23D
:102AE000000358601A60184601B0704783B0029026
:102AF00000200190009040F66010C2F200000068D3
:102B0000D0F8100901900198002811D0FFE7029831
:102B10000199884205D8FFE701980299401A009070
:102B200005E001980299C94308440090FFE7FFE7D8
:102B30000298002816D0FFE740F6B020C2F200004D
:102B400000680099884209D2FFE7009840F6B0215A
:102B5000C2F200010968401A009002E000200090D3
:102B6000FFE7FFE7009803B07047000080B584B02E
:102B7000039000F0EBFA0290039801900198013065
:102B8000002809D0FFE740F21C40C2F200000078A4
:102B9000019908440190FFE7FFE700F0D7FA029996
:102BA000401A0199884201D2FFE7F6E704B080BDE0
:102BB00080B58CB000200B900A9009900890079087
:102BC00040F23040C2F200000068002801D0FFE768
:102BD00068E040F23040C2F2000001210160FFE7EE
:102BE0000020069043F63800C4F20200016841F06C
:102BF00001010160006800F0010006900698FFE7FF
:102C00004FF23F0007900220089000210991032213
:102C10000A920C230B9341F2004CC4F2020C0DF10A
:102C20001C0E059060460491714603920293CDF804
:102C300004E000F079F841F2070007900598089049
:102C400004990991039A0A92029B0B9341F60000A2
:102C5000C4F20200019900F067F84FF68070079007
:102C60000598089004990991039A0A92029B0B9384
:102C700041F20000C4F20200019900F055F84CF254
:102C8000337007900598089004990991039A0A9265
:102C9000029B0B9340F60040C4F20200019900F041
:102CA00043F8FFE70CB080BD80B582B00146ADF8B7
:102CB0000600BDF80600012803D1FFE704F05EFC22
:102CC00011E0BDF80600082803D1FFE707F0B0F8CF
:102CD00008E0BDF80600022803D1FFE707F0B2F9CB
:102CE000FFE7FFE7FFE702B080BD000080B582B0DC
:102CF0000146ADF8060043F61440C4F20100006836
:102D0000BDF8062010420CD0FFE7BDF8060043F6E0
:102D10001441C4F201010860BDF80600FFF7C4FFCA
:102D2000FFE702B080BD00008EB00D900C91002036
:102D30000A90099008900B90FFE70B980F2800F27B
:102D4000D281FFE70B98012101FA00F00A900C985C
:102D500000680A990840099009980A99884240F049
:102D6000BD81FFE70C98406800F00300012807D000
:102D7000FFE70C98406800F0030002282FD1FFE71E
:102D80000D98806808900B984000032101FA00F02C
:102D9000089921EA000008900C98C0680B99490036
:102DA000884008990843089008980D9988600D9804
:102DB000406808900B98012101FA00F0089921EA77
:102DC000000008900C984068C0F300100B998840F0
:102DD00008990843089008980D994860FFE70C98F7
:102DE000406800F00300032818D0FFE70D98C06882
:102DF00008900B984000032101FA00F0089921EA9D
:102E0000000008900C9880680B9949008840089948
:102E10000843089008980D99C860FFE70C9840682F
:102E200000F00300022826D1FFE70D980B996FF000
:102E3000030202EA51010844006A08900B9800F06E
:102E4000070080000F2101FA00F0089921EA000034
:102E500008900C9800690B9901F0070189008840DF
:102E600008990843089008980D990B9B02EA5302B1
:102E700011440862FFE70D98006808900B98400025
:102E8000032101FA00F0089921EA000008900C984B
:102E9000406800F003000B994900884008990843F6
:102EA000089008980D9908600C9880798007002890
:102EB00000F01381FFE7FFE70020079043F644008E
:102EC000C4F20200016841F480410160006800F42E
:102ED000804007900798FFE70B9820F0030043F627
:102EE0000801C4F20101405808900B9800F003005B
:102EF00080000F2101FA00F0089921EA00000890F3
:102F00000D980021C4F20201884203D1FFE700209E
:102F100006905EE00D9840F20041C4F20201884242
:102F200003D1FFE70120059050E00D9840F6000125
:102F3000C4F20201884203D1FFE70220049042E07C
:102F40000D9840F60041C4F20201884203D1FFE728
:102F50000320039034E00D9841F20001C4F2020115
:102F6000884203D1FFE70420029026E00D9841F249
:102F70000041C4F20201884203D1FFE7052001901D
:102F800018E00D9841F60001C4F20201884203D115
:102F9000FFE7062000900AE00D9841F60041C4F2D8
:102FA00002010822884208BF07220092FFE700982A
:102FB0000190FFE701980290FFE702980390FFE776
:102FC00003980490FFE704980590FFE705980690A2
:102FD000FFE70698C0B20B9901F003018900884011
:102FE00008990843089008980B9921F0030143F6CB
:102FF0000802C4F20102885043F60840C4F20100FE
:10300000006808900998089921EA000008900C9837
:103010008079C006002805D5FFE70998089908437C
:103020000890FFE7089843F60841C4F201010860E0
:1030300043F60C40C4F20100006808900998089912
:1030400021EA000008900C9880798006002805D5B8
:10305000FFE70998089908430890FFE7089843F6A6
:103060000C41C4F20101086043F60440C4F20100BF
:10307000006808900998089921EA000008900C98C7
:1030800080798007002805D5FFE70998089908434B
:103090000890FFE7089843F60441C4F20101086074
:1030A00043F60040C4F201000068089009980899AE
:1030B00021EA000008900C988079C007002805D00C
:1030C000FFE70998089908430890FFE7089843F636
:1030D0000041C4F201010860FFE7FFE7FFE70B983A
:1030E00001300B9029E60EB07047000083B00A460D
:1030F0000290ADF806100298406900900098BDF863
:10310000061000EA010321EA000040EA03400299A8
:10311000886103B07047000082B013468C4601906E
:10312000ADF802108DF801209DF80100002805D0AF
:10313000FFE7BDF802000199886105E0BDF80200D3
:10314000000401998861FFE702B0704740F6C8208B
:10315000C2F200000068704740F21C40C2F200005A
:10316000007840F6C821C2F200010A6810440860E5
:103170007047000080B582B043F60040C4F2020000
:10318000016841F400710160016841F480610160EF
:10319000016841F480710160032000F095F80F2070
:1031A00000F006F8019000F03DF8002002B080BD6C
:1031B00080B582B0009040F2C030C2F200000068DA
:1031C00040F21C41C2F2000109784FF47A72B2FB5E
:1031D000F1F1B0FBF1F000F0E5FD002804D0FFE7CD
:1031E00001208DF8070018E000980F280DD8FFE7A0
:1031F00000994FF0FF30002200F046F8009840F2AE
:103200002041C2F20001086003E001208DF80700B0
:1032100003E000208DF80700FFE79DF8070002B0EB
:1032200080BD000082B0FFE70020019043F644001B
:10323000C4F20200016841F480410160006800F4BA
:10324000804001900198FFE7FFE70020009043F6DF
:103250004000C4F20200016841F080510160006842
:1032600000F0805000900098FFE702B07047000027
:1032700080B582B001468DF807009DF907000091E6
:1032800007F070F902B080BD80B588B003468DF8B4
:103290001F000691059200200490039307F0CAF9DD
:1032A00004909DF91F000499069A059B0290084618
:1032B00011461A4602F042FA029901900846019915
:1032C00007F0C0F908B080BD80B582B001900198C8
:1032D00007F0DAF902B080BD80B584B002900191A8
:1032E0000298002804D1FFE701208DF80F0021E1AA
:1032F000019843F60041C4F20201096801F0070198
:10330000884212D9FFE7019843F60041C4F2020156
:103310000870086800F007000199884204D0FFE7B0
:1033200001208DF80F0005E1FFE702980078800783
:1033300000282AD5FFE7029800784007002809D521
:10334000FFE743F60800C4F20200016841F4E051CF
:103350000160FFE7029800780007002809D5FFE721
:1033600043F60800C4F20200016841F460410160C4
:10337000FFE743F60800C4F20200016821F0F00103
:10338000029A926811430160FFE702980078C00733
:1033900000286ED0FFE702984068012811D1FFE7AE
:1033A00043F60000C4F20200006800F4003000217F
:1033B000B1EB504F04D1FFE701208DF80F00B9E0C9
:1033C0002CE002984068022805D0FFE70298406888
:1033D000032811D1FFE743F60000C4F202000068A1
:1033E00000F000700021B1EB506F04D1FFE7012025
:1033F0008DF80F009EE010E043F60000C4F20200DA
:10340000006800F002000021B1EB500F04D1FFE78B
:1034100001208DF80F008DE0FFE7FFE743F608007D
:10342000C4F20200016821F00301029A52681143BC
:103430000160FFF78BFE0090FFE743F60800C4F23F
:103440000200006800F00C0002994968B0EB810F9F
:103450000ED0FFE7FFF77AFE0099401A41F289315A
:10346000884204D3FFE703208DF80F0062E0E4E711
:10347000FFE7019843F60041C4F20201096801F038
:103480000701884212D2FFE7019843F60041C4F2D7
:1034900002010870086800F007000199884204D012
:1034A000FFE701208DF80F0044E0FFE70298007865
:1034B000400700280CD5FFE743F60800C4F20200DD
:1034C000016821F4E051029AD26811430160FFE7DC
:1034D00002980078000700280DD5FFE743F60800A2
:1034E000C4F20200016821F46041029A126941EAC3
:1034F000C2010160FFE700F021F843F60801C4F2C1
:1035000002010968C9B209094AF66802C0F6000258
:10351000515CC84040F2C031C2F20001086040F284
:103520002040C2F200000068FFF742FE00218DF843
:103530000F10FFE79DF80F0004B080BD80B586B086
:103540000020059004900390029043F60800C4F216
:103550000200006800F00C0001460028019108D02C
:10356000FFE7019804280AD0FFE7019808280CD04B
:103570004FE042F20040C0F2F40002904FE041F20E
:103580000020C0F27A00029049E043F60400C4F241
:103590000200016801F03F01059100684002002827
:1035A00013D5FFE743F60400C4F202000068C0F33D
:1035B000881041F20021C0F27A01A0FB0101059AB6
:1035C0000023FCF7FDFD049012E043F60400C4F272
:1035D00002000068C0F3881042F20041C0F2F4011A
:1035E000A0FB0101059A0023FCF7EAFD0490FFE728
:1035F00043F60400C4F20200006800F440300221E7
:1036000001EBD030039004980399B0FBF1F00290E5
:1036100005E042F20040C0F2F4000290FFE7029899
:1036200006B080BD80B586B004900498002804D10F
:10363000FFE701208DF8170055E304980078C007D4
:10364000002800F0A780FFE743F60800C4F202005C
:10365000006800F00C00042813D0FFE743F60800D0
:10366000C4F20200006800F00C0008281FD1FFE738
:1036700043F60400C4F2020000684002002816D598
:10368000FFE743F60000C4F20200006800F40030D7
:103690000021B1EB504F09D0FFE7049840680028A3
:1036A00004D1FFE701208DF817001CE371E0FFE76C
:1036B00004984068B0F5803F09D1FFE743F6000069
:1036C000C4F20200016841F48031016020E00498F6
:1036D0004068B0F5A02F0DD1FFE743F60000C4F21B
:1036E0000200016841F480210160016841F48031E9
:1036F00001600CE043F60000C4F20200016821F40E
:1037000080310160016821F480210160FFE7FFE75B
:10371000FFE70498406800281DD0FFE7FFF716FD7B
:103720000390FFE743F60000C4F20200006800F4D3
:1037300000300021B1EB504F0CD1FFE7FFF706FD41
:103740000399401A652804D3FFE703208DF817007A
:10375000C9E2E7E71CE0FFF7F9FC0390FFE743F657
:103760000000C4F20200006800F400300021B1EB58
:10377000504F0CD0FFE7FFF7E9FC0399401A65288A
:1037800004D3FFE703208DF81700ACE2E7E7FFE77B
:10379000FFE7FFE7049800788007002840F1978052
:1037A000FFE743F60800C4F20200006810F00C0FB7
:1037B00013D0FFE743F60800C4F20200006800F0EF
:1037C0000C0008282CD1FFE743F60400C4F20200E5
:1037D00000684002002823D4FFE743F60000C4F24B
:1037E0000200006800F002000021B1EB500F09D088
:1037F000FFE70498C068012804D0FFE701208DF896
:10380000170070E243F60000C4F20200016821F0E4
:10381000F801049A126941EAC2010160FFE755E02C
:103820000498C06800282ED0FFE70020C4F247208B
:1038300001210160FFF78AFC0390FFE743F60000D7
:10384000C4F20200006800F002000021B1EB500F4A
:103850000CD1FFE7FFF77AFC0399401A032804D341
:10386000FFE703208DF817003DE2E7E743F600008D
:10387000C4F20200016821F0F801049A126941EAD9
:10388000C201016021E00020C4F247200021016054
:10389000FFF75CFC0390FFE743F60000C4F2020070
:1038A000006800F002000021B1EB500F0CD0FFE7E0
:1038B000FFF74CFC0399401A032804D3FFE70320C9
:1038C0008DF817000FE2E7E7FFE7FFE7FFE704984F
:1038D0000078000700284CD5FFE7049840690028CD
:1038E00023D0FFE740F68060C4F247200121016049
:1038F000FFF72CFC0390FFE743F67400C4F20200CC
:10390000006800F002000021B1EB500F0CD1FFE77E
:10391000FFF71CFC0399401A032804D3FFE7032098
:103920008DF81700DFE1E7E722E040F68060C4F29F
:10393000472000210160FFF709FC0390FFE743F6F1
:103940007400C4F20200006800F002000021B1EB34
:10395000500F0CD0FFE7FFF7F9FB0399401A03283B
:1039600004D3FFE703208DF81700BCE1E7E7FFE78A
:10397000FFE7049800784007002840F1CF80FFE778
:1039800000208DF8070043F64000C4F202000068F2
:10399000C000002815D4FFE7FFE70020009043F6A1
:1039A0004000C4F20200016841F0805101600068EB
:1039B00000F0805000900098FFE701208DF807008C
:1039C000FFE747F20000C4F200000068C0050028CD
:1039D00022D4FFE747F20000C4F20000016841F47E
:1039E00080710160FFF7B2FB0390FFE747F2000030
:1039F000C4F200000068C00500280CD4FFE7FFF700
:103A0000A5FB0399401A032804D3FFE703208DF890
:103A1000170068E1EAE7FFE7FFE7049880680128FC
:103A200009D1FFE743F67000C4F20200016841F0DB
:103A3000010101601FE00498806805280DD1FFE7AF
:103A400043F67000C4F20200016841F00401016015
:103A5000016841F0010101600CE043F67000C4F21E
:103A60000200016821F001010160016821F00401F8
:103A70000160FFE7FFE7FFE70498806800281FD098
:103A8000FFE7FFF763FB0390FFE743F67000C4F224
:103A90000200006800F002000021B1EB500F0ED1CF
:103AA000FFE7FFF753FB0399401A41F2893188423F
:103AB00004D3FFE703208DF8170014E1E5E71EE0CB
:103AC000FFF744FB0390FFE743F67000C4F20200E7
:103AD000006800F002000021B1EB500F0ED0FFE7AC
:103AE000FFF734FB0399401A41F28931884204D32D
:103AF000FFE703208DF81700F5E0E5E7FFE79DF805
:103B00000700012809D1FFE743F64000C4F2020094
:103B1000016821F080510160FFE7FFE704988069A8
:103B2000002800F0DC80FFE743F60800C4F2020042
:103B3000006800F00C00082800F08580FFE704987A
:103B4000806902285CD1FFE76020C4F24720002191
:103B50000160FFF7FBFA0390FFE743F60000C4F2B1
:103B60000200006800F000700021B1EB506F0CD033
:103B7000FFE7FFF7EBFA0399401A032804D3FFE7A6
:103B800003208DF81700AEE0E7E70498C169026AE8
:103B9000436AD0F828C0114341EA83114FEACC327E
:103BA0004FF6FF739A43A2F580321143C06A41EA8F
:103BB000006043F60401C4F2020108606020C4F210
:103BC000472001210160FFF7C1FA0390FFE743F6A8
:103BD0000000C4F20200006800F000700021B1EBA8
:103BE000506F0CD1FFE7FFF7B1FA0399401A032891
:103BF00004D3FFE703208DF8170074E0E7E721E026
:103C00006020C4F2472000210160FFF79FFA039073
:103C1000FFE743F60000C4F20200006800F0007005
:103C20000021B1EB506F0CD0FFE7FFF78FFA03993B
:103C3000401A032804D3FFE703208DF8170052E051
:103C4000E7E7FFE74AE004988069012804D1FFE72D
:103C500001208DF8170046E043F60400C4F202008C
:103C60000068029004988069012831D0FFE702982B
:103C700000F480000499C969884229D1FFE70298BD
:103C800000F03F000499096A884221D1FFE70298B9
:103C900047F6C07108400499496AB0EB811F17D1FB
:103CA000FFE7029800F440300499896AC9034FF68F
:103CB000FF729143A1F58031884209D1FFE7029854
:103CC00000F070600499C96AB0EB016F04D0FFE79F
:103CD00001208DF8170006E0FFE7FFE7FFE700206F
:103CE0008DF81700FFE79DF8170006B080BD0000B3
:103CF00080B58AB00890079106920898002804D1F0
:103D0000FFE701208DF827003FE0089890F8490070
:103D1000002808D1FFE70898002180F8481008988B
:103D200000F038F8FFE7089850F8081B059008469F
:103D30000599FEF705FE0899079A0B6889680490B3
:103D4000184603911146039AFEF758FE0899069A01
:103D50004B68D1F808C0096B0290184601911146D2
:103D60006246019BFEF7BAFD08990A68896852F815
:103D7000213043F0010342F821300899012281F8F3
:103D8000492000218DF82710FFE79DF827000AB091
:103D900080BD000080B582B00190FEF709FF02B03F
:103DA00080BD000080B582B00190019806F074F9E2
:103DB00002B080BD81B0009001B0704781B000902A
:103DC00001B0704785B003900291FFE7039890F827
:103DD0003C00012804D1FFE702208DF813007EE0AB
:103DE0000398012180F83C10FFE7FFE703980221C8
:103DF00080F83D10039800684068019003980068BF
:103E000080680090019820F070000190029800688E
:103E10000199084301900198039909684860039843
:103E200000680021C4F2010188423CD0FFE70398FA
:103E30000068B0F1804F36D0FFE70398006840F289
:103E40000041C4F2000188422DD0FFE703980068CA
:103E500040F60001C4F20001884224D0FFE7039835
:103E6000006840F60041C4F2000188421BD0FFE721
:103E70000398006840F20041C4F20101884212D068
:103E8000FFE70398006844F20001C4F20101884290
:103E900009D0FFE70398006841F60001C4F2000171
:103EA00088420ED1FFE7009820F080000090029831
:103EB0004068009908430090009803990968886059
:103EC000FFE70398012180F83D10FFE703980021E8
:103ED00080F83C10FFE700208DF81300FFE79DF805
:103EE000130005B07047000080B584B002900298BE
:103EF000002804D1FFE701208DF80F0043E002986D
:103F000090F83D00002808D1FFE70298002180F8D2
:103F10003C10029800F03CF8FFE70298022180F87C
:103F20003D10029850F8041B01900846019906F0D4
:103F300053F90298012180F84610FFE70298012109
:103F400080F83E10029880F83F10029880F84010E8
:103F5000029880F84110FFE7FFE70298012180F8FE
:103F60004210029880F84310029880F8441002989A
:103F700080F84510FFE70298012180F83D100020ED
:103F80008DF80F00FFE79DF80F0004B080BD000022
:103F900080B584B003900398006840F20041C4F2F9
:103FA000000188421CD1FFE7FFE70020029043F6A2
:103FB0004000C4F20200016841F0020101600068A3
:103FC00000F0020002900298FFE71D2000210190FE
:103FD0000091009AFFF758F90198FFF749F9FFE7B8
:103FE00004B080BD83B00190019890F83D00012895
:103FF00004D0FFE701208DF80B006AE00198022150
:1040000080F83D1001980068C16841F00101C1606D
:10401000019800680021C4F2010188423CD0FFE70A
:1040200001980068B0F1804F36D0FFE70198006832
:1040300040F20041C4F2000188422DD0FFE7019810
:10404000006840F60001C4F20001884224D0FFE776
:104050000198006840F60041C4F2000188421BD07C
:10406000FFE70198006840F20041C4F20101884274
:1040700012D0FFE70198006844F20001C4F2010188
:10408000884209D0FFE70198006841F60001C4F2B8
:104090000001884212D1FFE701980068806800F0B3
:1040A000070000900098062807D0FFE701980068F5
:1040B000016841F001010160FFE706E00198006836
:1040C000016841F001010160FFE700208DF80B005D
:1040D000FFE79DF80B0003B07047000080B58CB07F
:1040E0000A90099100208DF82300FFE70A9890F8C4
:1040F0003C00012804D1FFE702208DF82F00BBE02F
:104100000A98012180F83C10FFE7FFE70A98022196
:1041100080F83D100A98006880680790079820F0A2
:1041200077000790079820F47F40079007980A9936
:1041300009688860099800680028069000F082806D
:10414000FFE7069810287DD0FFE70698202879D051
:10415000FFE70698302875D0FFE70698402861D021
:10416000FFE7069850283DD0FFE70698602849D021
:10417000FFE7069870280BD0FFE70698B0F5805F40
:1041800005D0FFE70698B0F5005F19D061E064E064
:104190000A98006809994A688B68C96805911946A8
:1041A000059B06F0F3F80A98006880680790079866
:1041B00040F07700079007980A99096888604CE0FA
:1041C0000A98006809994A688B68C9680491194679
:1041D000049B06F0DBF80A980068816841F480418E
:1041E00081603AE00A98006809994A68C9680391B1
:1041F0001146039A06F0FAF80A980068502106F072
:10420000DFF82AE00A98006809994A68C9680291AB
:104210001146029A06F012F90A980068602106F029
:10422000CFF81AE00A98006809994A68C9680191AC
:104230001146019A06F0DAF80A980068402106F063
:10424000BFF80AE00A9800680999096806F0B8F80A
:1042500003E001208DF82300FFE70A98012180F890
:104260003D10FFE70A98002180F83C10FFE79DF819
:1042700023008DF82F00FFE79DF82F000CB080BDC4
:1042800081B0009001B0704780B584B0039003986E
:104290000068C068029003980068006901909DF86A
:1042A00004008007002825D5FFE79DF80800800757
:1042B00000281ED5FFE7039800686FF00201016136
:1042C000039801210177039800688069800700281E
:1042D00004D0FFE70398FFF7D3FF06E0039800F050
:1042E000E5F8039800F0E6F8FFE70398002101776E
:1042F000FFE7FFE79DF804004007002825D5FFE70A
:104300009DF80800400700281ED5FFE703980068C5
:104310006FF004010161039802210177039800689E
:10432000806910F4407F04D0FFE70398FFF7A8FFEF
:1043300006E0039800F0BAF8039800F0BBF8FFE736
:10434000039800210177FFE7FFE79DF804000007CD
:10435000002825D5FFE79DF80800000700281ED596
:10436000FFE7039800686FF00801016103980421DA
:10437000017703980068C0698007002804D0FFE730
:104380000398FFF77DFF06E0039800F08FF803988D
:1043900000F090F8FFE7039800210177FFE7FFE7BF
:1043A0009DF80400C006002825D5FFE79DF8080009
:1043B000C00600281ED5FFE7039800686FF01001C3
:1043C000016103980821017703980068C06910F41F
:1043D000407F04D0FFE70398FFF752FF06E0039801
:1043E00000F064F8039800F065F8FFE703980021F7
:1043F0000177FFE7FFE79DF80400C007002810D011
:10440000FFE79DF80800C007002809D0FFE70398E0
:1044100000686FF001010161039800F04FF8FFE7B9
:10442000FFE79DF804000006002810D5FFE79DF87F
:1044300008000006002809D5FFE7039800686FF020
:10444000800101610398FFF7B5FCFFE7FFE79DF8E6
:1044500004004006002810D5FFE79DF8080040063C
:10446000002809D5FFE7039800686FF0400101615B
:10447000039800F033F8FFE7FFE79DF8040080069B
:10448000002810D5FFE79DF808008006002809D510
:10449000FFE7039800686FF0200101610398FFF7C0
:1044A0008DFCFFE7FFE704B080BD000081B0009005
:1044B00001B0704781B0009001B0704780B582B004
:1044C0000190019840F6EC01C2F20001884203D14C
:1044D000FFE7FDF793FFFFE702B080BD81B00090DA
:1044E00001B0704780B584B00020039040F66011A1
:1044F000C2F200014FF0D8420A60ADF80A00FFE7AF
:1045000040F66010C2F200000068B0F84001ADF85B
:104510000A00FFE79DF80A0001210828019108DB45
:10452000FFE79DF80A0000210D28C8BF0121019175
:10453000FFE70198C0070028E2D1FFE7039840F6A3
:104540006011C2F200010968C1F80402062006F0F9
:1045500057F840F6EC00C2F20000FFF743FD0021DF
:104560000090084604B080BD7047000080B582B05E
:1045700040F68400C2F20000007800285DD1FFE719
:1045800040F69C20C2F20000006800284CD0FFE7F3
:1045900040F69C20C2F20000016801900846FEF738
:1045A000A5FA0199086040F63C20C2F2000040687C
:1045B00000280DD0FFE740F63C20C2F20000406822
:1045C00040F69C21C2F20001096888420BD9FFE73E
:1045D00040F69C20C2F20000006840F63C21C2F286
:1045E00000014860FFE740F6F810C2F200004068A2
:1045F00000280DD0FFE740F6F810C2F20000406836
:1046000040F69C21C2F20001096888420BD9FFE7FD
:1046100040F69C20C2F20000006840F6F811C2F299
:1046200000014860FFE7FFE70020FEF75FFA40F671
:104630009C21C2F200010860FFE702B080BD0000CB
:10464000FFE7FEE780B586B040F66010C2F20000DA
:10465000006840F68421C2F20001098821F00101BE
:10466000405AADF8160040F68F00C2F20000007804
:10467000012825D1FFE70A2006F0C0F8049004982D
:1046800000281CD0FFE704980021018141600160EF
:104690000498042202800498828822F47062828046
:1046A00004980122C280049807220281049800F035
:1046B000B5FA04990290084606F078F8FFE7FFE79C
:1046C000BDF816000630ADF8160040F69600C2F2AE
:1046D00000000078002808D1FFE740F6C020C2F2B1
:1046E00000000078002807D0FFE740F69000C2F2F3
:1046F0000000012101707EE040F69000C2F200004F
:1047000000210170BDF8160040F68A21C2F20001B6
:104710000988884208DDFFE740F68A20C2F20000DF
:104720000088ADF81600FFE740F68A20C2F20000CC
:10473000008806F063F840F68811C2F200010860B4
:104740000868002807D1FFE740F69000C2F2000099
:10475000012101704FE040F68810C2F200000068AD
:1047600040F66011C2F200010A6840F68423C2F2EA
:1047700000031B8823F001031A44BDF81630019191
:1047800011461A46FBF74DFD0021ADF80E100199B8
:104790000A68B2F80428ADF80E20BDF80E20ADF876
:1047A0000E20BDF80E201205002A1CD5FFE740F6AA
:1047B0009420C2F200000021018040F66011C2F294
:1047C0000001096840F68422C2F20002128840F615
:1047D0008A23C2F200031B881A44023A22F0010223
:1047E000895A0180FFE740F68810C2F20000006895
:1047F00000F092FAFFE706B080BD000080B586B0F9
:10480000049040F63810C2F20000007800F00F006B
:10481000012804D1FFE7F0208DF81700A8E040F64A
:104820008D00C2F200000078002804D1FFE7F020DC
:104830008DF817009CE040F69600C2F20000007868
:10484000002804D0FFE707208DF8170090E00498B7
:104850000088ADF80E0040F66010C2F2000001685A
:1048600040F68622C2F20002128822F001021144B0
:10487000049ABDF80E3006330090084611461A46D9
:10488000FBF7CFFC0021ADF80C1000990A68B2F8D4
:104890000C28ADF80C20BDF80C20ADF80C20BDF8AC
:1048A0000C201205002A44D4FFE740F68C20C2F207
:1048B00000000088BDF80E10401A0638ADF80A0056
:1048C00040F69420C2F2000000210180BDF80A00E9
:1048D000012814DCFFE7BDF80E0006304008019007
:1048E0000498019900EB4101BDF80A00C0F10202F1
:1048F00040F69420C2F20000FBF793FCFFE740F67D
:104900009420C2F20000008840F66011C2F200015B
:10491000096840F68622C2F20002128840F68C2313
:10492000C2F200031B881A44023A22F001028852A4
:10493000FFE740F67C10C2F200000068002807D0B4
:10494000FFE740F68810C2F2000000210160FFE797
:10495000049840F67C11C2F20001086040F696000F
:10496000C2F200000121017000208DF81700FFE75E
:104970009DF8170006B080BD81B040F68A20C2F2D3
:1049800000002421018040F68C20C2F2000080212A
:10499000018040F68420C2F200004FF48051018073
:1049A00040F68620C2F20000018040F69010C2F26C
:1049B00000000021018041800A22828040F6C4105C
:1049C000C2F2000001804180828040F68810C2F26D
:1049D0000000016040F68010C2F20000016040F665
:1049E0007C10C2F20000016040F68410C2F20000A8
:1049F000016040F68C00C2F200000170ADF80210B8
:104A000040F66010C2F200000268B2F80E28ADF85D
:104A10000220BDF8022022F40072ADF80220BDF899
:104A200002200068A0F80E2840F68D00C2F20000B7
:104A3000017040F69600C2F20000017040F690004E
:104A4000C2F20000017040F6C020C2F20000017006
:104A500040F6C220C2F20000017040F6C120C2F24E
:104A60000000017001B0704780B584B040F6960038
:104A7000C2F200000021017040F68010C2F2000076
:104A80000068002815D0FFE740F68410C2F200004D
:104A9000006800280DD1FFE740F68010C2F2000048
:104AA00001680190084605F081FE00200199086028
:104AB000FFE740F67C10C2F20000006840F680116B
:104AC000C2F20001086040F68410C2F200000068E3
:104AD00000280DD0FFE740F68410C2F20000016804
:104AE00000900846FFF78AFE0021009A11600FE04F
:104AF00040F6C410C2F20000FDF7B0FF0390039827
:104B0000002804D0FFE70398FFF778FEFFE7FFE7F0
:104B100040F6C020C2F20000007800282ED0FFE747
:104B200040F6C020C2F2000000788007002823D59C
:104B3000FFE700208DF80B0040F6C020C2F2000015
:104B4000017801F0FD01017040F68810C2F200000A
:104B50000068FCF757FC8DF80B009DF80B0000284F
:104B600009D0FFE740F6C020C2F20000017841F012
:104B700002010170FFE700E0FFE7FFE704B080BD3E
:104B800080B582B040F68010C2F2000000680028B4
:104B900038D0FFE740F68010C2F2000000680190B4
:104BA00040F69600C2F200000078002820D0FFE70F
:104BB00040F68410C2F200000068002818D1FFE718
:104BC00001200090FDF7C6FB40F67C10C2F2000009
:104BD000006840F68411C2F2000108600098FDF7F9
:104BE00049FE40F69600C2F2000000210170FFE786
:104BF0000198FFF703FE40F68011C2F20001002287
:104C00000A60FFE740F68C00C2F200000178B1FABA
:104C100081F14909017002B080BD000080B584B007
:104C20000A4602908DF8071000208DF8060040F625
:104C30003810C2F20000007800F00F00012804D103
:104C4000FFE7F0208DF80F0061E0029881886FF394
:104C50001F31818040F6C120C2F200000078400779
:104C6000002807D1FFE740F6C120C2F20000012171
:104C70000170FFE740F6C120C2F2000000780299FF
:104C80008A8842EA003088800298FFF7B7FD002842
:104C90001ED0FFE7029840F6C411C2F2000102F0F4
:104CA00035FE8DF806009DF80600002807D0FFE7C6
:104CB0009DF8070040F080008DF8070007E040F6FF
:104CC000C120C2F20000017801310170FFE707E066
:104CD00040F6C120C2F20000017801310170FFE707
:104CE0009DF80700000600280CD5FFE79DF8070097
:104CF00000F07F0040F6C021C2F200010A781043A4
:104D00000870FFE79DF806008DF80F00FFE79DF89B
:104D10000F0004B080BD000080B582B0019000207B
:104D20008DF8030001988088000B8DF8020001982F
:104D30000088ADF80000BDF80000812813DBFFE714
:104D40000198042101800198818821F4706181809B
:104D500001980121C1800198082101810198002159
:104D6000FFF75CFF3FE09DF8020000280AD0FFE754
:104D70009DF8020040F6C221C2F200010978884283
:104D80002AD0FFE79DF8020040F6C221C2F20001DE
:104D90000870019840F69011C2F2000102F0B6FDD1
:104DA0008DF803009DF80300002814D0FFE7019858
:104DB000042101800198818821F47061818001982B
:104DC0000121C1809DF8030001990881019800210B
:104DD000FFF724FFFFE705E0019805F0E7FC00205E
:104DE0000190FFE7FFE702B080BD000080B582B010
:104DF00000200190FFE700208DF8030040F690109E
:104E0000C2F20000FDF72AFE01900198002806D0AA
:104E1000FFE7019800F060FB8DF80300FFE79DF8C5
:104E20000300002814D0FFE70198042101800198B5
:104E3000818821F47061818001980121C1809DF8F1
:104E400003000199088101980021FFF7E7FEFFE7C1
:104E5000FFE701980028CED1FFE740F69000C2F2AC
:104E600000000078002803D0FFE7FFF7EBFBFFE727
:104E700002B080BD80B588B00020ADF81C00FDF701
:104E80001BFE06900698408840F68A21C2F2000177
:104E900008800698008840F68422C2F20002108042
:104EA000012005910492FDF707FE069006984088C0
:104EB00040F68C21C2F2000108800698008840F676
:104EC0008621C2F20001088004980288059BB3F88D
:104ED00000C0624409888A4217DDFFE740F684205B
:104EE000C2F20000008840F68621C2F20001098863
:104EF00040F68C22C2F2000212881144884204DA81
:104F0000FFE71620ADF81E0051E00020FDF7B2FCCF
:104F10000120FDF7AFFC40F68A20C2F200000088B5
:104F200005F06CFC40F68811C2F2000108600868C8
:104F3000002823D1FFE740F68F00C2F200000121D4
:104F400001700A2005F05AFC40F68811C2F20001F7
:104F500008600868002804D1FFE70220ADF81C00B3
:104F6000FFE740F68810C2F200000168039008468F
:104F700005F01CFC00200399086013E040F68F0048
:104F8000C2F200000021017040F68810C2F2000059
:104F9000026802901046019105F008FC0198029900
:104FA0000860FFE7BDF81C00ADF81E00FFE7BDF884
:104FB0001E0008B080BD000080B582B040F68D00B4
:104FC000C2F20000002101700846FDF7C3F901207C
:104FD000FDF7C0F940F68010C2F20000006800281A
:104FE00008D0FFE740F68010C2F20000006805F02C
:104FF000DDFBFFE740F68410C2F2000000680028E5
:1050000015D0FFE740F68410C2F20000006840F6B9
:105010008011C2F200010968884208D0FFE740F61B
:105020008410C2F20000006805F0C0FBFFE740F604
:105030007C10C2F200000068002822D0FFE740F692
:105040007C10C2F20000006840F68011C2F200013C
:105050000968884215D0FFE740F67C10C2F20000D4
:10506000006840F68411C2F200010968884208D045
:10507000FFE740F67C10C2F20000006805F096FBE6
:10508000FFE703F09FFB40F68810C2F2000000210A
:10509000016040F68010C2F20000016040F67C1012
:1050A000C2F20000016040F68410C2F2000001600C
:1050B00040F68C00C2F200000170ADF8021040F61C
:1050C0006010C2F200000268B2F80E28ADF80220AB
:1050D000BDF8022022F40072ADF80220BDF80220D3
:1050E0000068A0F80E2840F69600C2F20000017099
:1050F00040F69000C2F20000017040F6C020C2F2FB
:105100000000017040F6C220C2F20000017040F6BB
:10511000C120C2F200000170FFE740F69010C2F219
:105120000000FDF79BFC01900198002804D0FFE7E8
:10513000019805F03BFBFFE7FFE701980028ECD161
:10514000FFE7FFE740F6C410C2F20000FDF786FC5F
:1051500001900198002804D0FFE7019805F026FB94
:10516000FFE7FFE701980028ECD1FFE702B080BD20
:1051700080B588B0002007900690059004900390B9
:105180000290019040F69C01C2F200014FF02042D3
:105190000A6040F20412CAF200024A6006228A60E3
:1051A000C860086110224A618861C861086248626B
:1051B0004FF480538B62C862086348638863486415
:1051C000012301930F2302935F230393022304938C
:1051D000059211220692079001AA009008461146F6
:1051E000009AFEF785FD002803D0FFE7FDF772FB6C
:1051F000FFE708B080BD000080B59AB0002019908C
:105200001890179016901590FFE70020149043F621
:105210003000C4F20200016841F010010160006832
:1052200000F0100014901498FFE7FFE7002013909F
:1052300043F63000C4F20200016841F02001016031
:10524000006800F0200013901398FFE7FFE70020AC
:10525000129043F63000C4F20200016841F0800170
:105260000160006800F0800012901298FFE7FFE7ED
:105270000020119043F63000C4F20200016841F0B2
:1052800004010160006800F0040011901198FFE72C
:10529000FFE70020109043F63000C4F202000168DE
:1052A00041F002010160006800F0020010901098C7
:1052B000FFE7FFE700200F9043F63000C4F2020042
:1052C000016841F040010160006800F040000F906B
:1052D0000F98FFE7FFE700200E9043F63000C4F27E
:1052E0000200016841F008010160006800F0080058
:1052F0000E900E98FFE7FFE700200D9043F6300078
:10530000C4F20200016841F001010160006800F090
:1053100001000D900D98FFE740F20040C4F202003A
:10532000022100220C900B910A92FDF7F5FE41F646
:105330000000C4F2020048F6F86109900A9AFDF7ED
:10534000EBFE40F60000C4F202004FF480510890DA
:1053500007910A9AFDF7E0FE40F60040C4F2020011
:105360000421069005910A9AFDF7D6FE3C2015907F
:105370000A9816900121179141F20000C4F2020030
:1053800015AA049111460392FDF7CEFC0B2015904F
:105390004FF4041016900498179008980399FDF79D
:1053A000C3FC0B981590049916910A9A17921892BB
:1053B0000C980399FDF7B8FCF82015900498169006
:1053C00017900B99189109980399FDF7ADFC079870
:1053D0001590049916910B9A1792189208980399B0
:1053E000FDF7A2FC05981590049916910A9A179258
:1053F000189206980399FDF797FC4FF40E4015900C
:10540000049816900A991791189109980399FDF735
:105410008BFC062002900A990A9AFDF735FF029844
:10542000FDF726FF072001900A990A9AFDF72CFF45
:105430000198FDF71DFF092000900A990A9AFDF7CF
:1054400023FF0098FDF714FF1AB080BD80B586B029
:10545000002005900490039002900190009040F687
:10546000EC01C2F2000140F20042C4F200020A6004
:1054700053224A6088604FF47A72CA6008618020C3
:1054800088610846FEF730FD002803D0FFE7FDF7EE
:1054900021FAFFE74FF48050029040F6EC00C2F290
:1054A000000002A9FEF71AFE002803D0FFE7FDF76F
:1054B00011FAFFE700200090019040F6EC00C2F2E4
:1054C00000006946FEF77EFC002803D0FFE7FDF7E9
:1054D00001FAFFE706B080BD80B582B00190019867
:1054E000808800F470600321B1EB102F06D1FFE734
:1054F0000198FCF79DF98DF8030003E002208DF878
:105500000300FFE79DF8030002B080BD80B586B0C0
:105510000020ADF8160040F65811C2F200010860F4
:105520000190FCF7C5FFFCF797F840F68A00C2F23D
:1055300000000121017040F68E00C2F200000199C6
:10554000017040F69C20C2F20000016040F6A420E9
:10555000C2F20000016040F6B020C2F2000001601B
:10556000049103910291FFE70398C0087C2840D87A
:10557000FFE740F66010C2F200000168D1F8101990
:1055800004910068D0F810090290049802998842AA
:1055900005D8FFE702980499401A029005E00298A6
:1055A0000499C94308440290FFE740F6B020C2F2D4
:1055B00000000068002807D1FFE7029840F6B021FC
:1055C000C2F20001086010E040F6B020C2F2000014
:1055D00000680299884207D9FFE7029840F6B02197
:1055E000C2F200010860FFE7FFE703980130039073
:1055F000BAE7BDF8160006B080BD000080B582B0E5
:1056000040F68A00C2F200000078002801D1FFE7CE
:105610008DE040F68900C2F200000078002808D032
:10562000FFE740F68500C2F20000007800285DD157
:10563000FFE740F68400C2F200000078002855D150
:10564000FFE740F68900C2F200000078002839D157
:10565000FFE740F66010C2F200000068B0F82002D8
:10566000ADF806009DF807004007002812D5FFE7B7
:1056700040F68500C2F200000121017040F687006B
:10568000C2F200000078002803D0FFE702F0C4F85F
:10569000FFE716E040F64610C2F20000008800283E
:1056A0000ED1FFE7BDF806000005002807D5FFE78B
:1056B00040F68500C2F2000001210170FFE7FFE71C
:1056C000FFE7FFE7062004F011FFFCF775FE40F648
:1056D0008600C2F200000078002803D0FFE702F045
:1056E00031F8FFE7062004F057FFFFE740F6982067
:1056F000C2F200000068B0F57A6F03D3FFE7FCF751
:10570000C7F8FFE7FCF788FFFBF7D0FEFCF756F978
:1057100040F65810C2F200000068002807D0FFE7EA
:1057200040F65810C2F2000000688047FFE702B060
:1057300080BD0000FFE7FEE7FFE7FEE788B00790C7
:1057400006910592079800F0070004900498C0F1B4
:105750000700052803D3FFE70420019004E0049824
:10576000C0F107000190FFE701980390049804300E
:10577000062803D8FFE70020009003E004980338D0
:105780000090FFE70098029006980399012202FA20
:1057900001F10139084002998840059B02FA01F1A4
:1057A00001391940084308B070470000B0B582B015
:1057B0000A4601908DF803100198302181709DF800
:1057C000030048F21F51C5F2EB11A0FB0103DDF805
:1057D00004C09CF800E00EEB53138CF800309DF8E9
:1057E0000330A3FB011C4FEA5C1C4FF0640E0CFB62
:1057F0001E338DF802309DF802304CF6CD4CCCF6BD
:10580000CC4CA3FB0C3E019C657805EBDE0E84F8C6
:1058100001E09DF802E0AEFB0CC4E40804EB840454
:10582000AEEB440E019CA578AE4484F802E002B0D1
:10583000B0BD000080B590B08C468646ADF83E0005
:105840008DF83D100E920D930020ADF832000E98A9
:1058500040690B900E988089C0F303208DF82B00CF
:105860009DF83D00002805D0FFE79DF82B00072894
:1058700011D1FFE70B98FAF7F8FCADF832000D985C
:10588000002807D0FFE70D980B99BDF83220FAF7F2
:10589000C8FCFFE78FE09DF82B0009285FD1FFE7E8
:1058A0000120ADF828009DF83D00ADF826000B98CA
:1058B0000390FAF7DAFC0399084401300890FFE7F7
:1058C000BDF82800BDF8261000228842029214DCA0
:1058D000FFE7089800780021FF2801910AD0FFE730
:1058E000089800780021FE28019103D0FFE70120ED
:1058F0000190FFE701980290FFE70298C007002897
:105900002CD0FFE7BDF82800BDF82610884216D13C
:10591000FFE70898FAF7A9FCADF832000D980028C7
:105920000CD0FFE7BDF83200002807D0FFE70D9844
:105930000899BDF83220FAF774FCFFE70EE0BDF8D5
:1059400028000130ADF8280008980090FAF78DFC87
:105950000099084401300890FFE7B1E7FFE7BDF880
:105960003200002826D1FFE70C20ADF832000D9858
:1059700000281ED0FFE740F2C430C2F20000017BD5
:105980008DF81C10016842688068069005920491A9
:1059900004A809309DF83D10FFF708FF0D989DF809
:1059A0001C1001730499059A069B83604260016094
:1059B000FFE7FFE7FFE7BDF8320010B080BD000051
:1059C00084B00A4603908DF80B1003988089C0F3C9
:1059D00003208DF803009DF8030008280FD1FFE78E
:1059E0009DF80B00002804D1FFE70398006901909F
:1059F00004E00398006906300190FFE709E003988E
:105A000000699DF80B1001EB410100EB4100019092
:105A1000FFE7019804B0704786B002468DF8150084
:105A200004910020ADF80C0004988089C0F3032095
:105A30008DF80B009DF81500012806DBFFE7BDF887
:105A40000C001030ADF80C00FFE79DF80B000728A4
:105A500004D1FFE70020ADF81600C2E00120ADF848
:105A60000E00FFE7BDF80E009DF81510884200F308
:105A7000B380FFE79DF80B00082805D1FFE70498E5
:105A800000690630019009E004980069BDF80E1025
:105A900001EB410100EB41000190FFE70198008814
:105AA0000146032800912CD0FFE70098042850D02D
:105AB000FFE70098062824D0FFE70098C11F0229BD
:105AC00047D3FFE700980B281BD0FFE700981F285B
:105AD00017D0FFE7009820283BD0FFE700982E283A
