:020000040800F2
:100000001076002089020008816300082D54000842
:100010007D63000895200008459900080000000055
:10002000000000000000000000000000F181000856
:10003000532B00080000000071780008DD8F0008D5
:10004000A3020008A3020008A3020008A3020008FC
:10005000A3020008A3020008892E0008932E0008BE
:10006000A30200089D2E0008A3020008A3020008B6
:10007000A3020008A3020008A3020008A3020008CC
:10008000A3020008A3020008A3020008A3020008BC
:10009000A3020008A3020008A3020008A3020008AC
:1000A000A3020008A3020008A3020008A30200089C
:1000B000AD900008BD900008CD900008A302000894
:1000C000A3020008A3020008A3020008A30200087C
:1000D000A3020008F1980008A3020008A302000888
:1000E000A3020008A3020008A3020008A30200085C
:1000F000A3020008A3020008A3020008A30200084C
:10010000A3020008A3020008DD900008A302000873
:10011000A3020008A3020008A3020008A30200082B
:10012000A3020008A3020008092A0008A30200088D
:10013000A3020008A3020008A3020008A30200080B
:10014000A3020008A3020008A3020008A3020008FB
:10015000192A0008292A0008392A000801990008EC
:10016000A3020008A3020008A3020008A3020008DB
:10017000A3020008A3020008A30200080000000078
:10018000A3020008A302000800F002F800F06DF8D6
:100190000AA090E8000C82448344AAF10107DA45E2
:1001A00001D100F062F8AFF2090EBAE80F0013F0C7
:1001B000010F18BFFB1A43F00103184760C300008A
:1001C00080C300000A444FF0000C10F8013B13F00C
:1001D000070408BF10F8014B1D1108BF10F8015BA0
:1001E000641E05D010F8016B641E01F8016BF9D193
:1001F00013F0080F1EBF10F8014BAD1C0C1B09D1EA
:100200006D1E58BF01F801CBFAD505E014F8016B5B
:1002100001F8016B6D1EF9D59142D6D370470000ED
:100220000023002400250026103A28BF78C1FBD8FF
:10023000520728BF30C148BF0B60704766290AF0DB
:10024000D380002070471FB50AF0C9F89DE803006D
:1002500000F0A8FA00F016FD0400002000210AF0CA
:1002600031F8E0601FBD10B510BD00F029FE114649
:10027000FFF7E9FF09F0DAFF00F047FE03B4FFF7EC
:10028000F2FF03BC09F051FD0948804709480047C7
:10029000FEE7FEE7FEE7FEE7FEE7FEE7FEE7FEE736
:1002A000FEE7FEE704480549054A064B7047000093
:1002B000999000088901000810160020107600208F
:1002C000103600201036002070B5064600F04EFAB9
:1002D000056806F10B0020F00704B4429CBF002023
:1002E00070BD2B466A68BAB11068A04210D304F101
:1002F000080188423CBF5068586007D35168101904
:1003000041601168091B016058601460101D70BDC8
:1003100013465268002AE7D12146284600F02EFAFB
:100320000028DED170BD70B50446051F00F01EFA2E
:100330000068002C14BF446870BD002C18BFAC428C
:100340003CBF20466468F8D301680A18AA4218BF67
:10035000456003D12A6805461144016028684119A7
:10036000A1421CBF6C6070BD61686960216808446F
:10037000286070BD53EA020C00F069802DE9F04B53
:100380004FF00006002B1FBFB3FA83F503FA05F404
:1003900024FA05F65E4012BF1643B2FA82F502FA5D
:1003A00005F4C5F120051EBF22FA05FC44EA0C0441
:1003B000203556EA044C4FEA144418BF641C4FF031
:1003C00000084FF00009904271EB030C39D300296B
:1003D00019BFB1FA81F701FA07F6B0FA80F700FA0F
:1003E00007F6C7F120071EBF20FA07FC46EA0C06F5
:1003F0002037B6FBF4FCA7EB0507103F07F01F0BF7
:10040000CBF120060CFA0BFB2CFA06F644BFB346E0
:100410000026202FA4BF5E464FF0000B5BEA060CBF
:1004200008BF4FF0010B19EB0B09ABFB027C48EB4B
:100430000608C01B06FB02CC0BFB03CC71EB0C01C6
:10044000C1E70B46024641464846BDE8F08B13B56E
:100450004FF000004FF00001AFF30080BDE81C40FA
:10046000704700000FB41CB50C0007AA009001D023
:100470002044401E074B7B4469460190069800F0DB
:10048000DCFB002C03D06946002000F0E9FB1CBC1B
:100490005DF814FBF10700002DE9F0474FF0000A6A
:1004A00089460446C0F820A02046E1688847002815
:1004B00076D0252806D0D4E901219047206A401C37
:1004C0002062F1E7E168204600258847C4F81CA0B7
:1004D00006460027C4F818A02A2E09D0304609F095
:1004E0001DFC38B304EB8708303EC8F8186019E0EB
:1004F00059F8041B204604EB87029161E1688847A4
:10050000012F064618D1E069002820DA25F02005E1
:100510001DE0D8F8180000EB800006EB40003038F2
:10052000C8F818002046E1688847064609F0F6FB3F
:100530000028EED1012F0AD02E2E08D12046E168E6
:1005400088477F1C0646022F45F02005C4DBA069C2
:10055000002803DA404245F00105A061E80701D018
:1005600025F01005B6B1A6F14100192802D82036B1
:1005700045F400654A463146204625604D46FFF762
:100580005DFE58B1012806D0ED1D25F0070000F1F1
:10059000080989E704E005F1040985E730468AE7A0
:1005A000206ABDE8F08710B5431C02E010F8011B7B
:1005B00071B18107FAD14FF0013202C88C1A8C4315
:1005C00014EAC211F9D0C01A0A0603D0C01E10BD29
:1005D000C01A10BD0A0401D0801E10BD0902FCD053
:1005E000401E10BD032A40F2308010F0030C00F0D2
:1005F000158011F8013BBCF1020F624498BF11F85D
:1006000001CB00F8013B38BF11F8013BA2F1040215
:1006100098BF00F801CB38BF00F8013B11F003038D
:1006200000F02580083AC0F0088051F8043B083AF1
:1006300051F804CBA0E80810F5E7121D5CBF51F893
:10064000043B40F8043BAFF30080D20724BF11F80D
:10065000013B11F801CB48BF11F8012B24BF00F872
:10066000013B00F801CB48BF00F8012B704710B5E3
:10067000203AC0F00B80B1E81850203AA0E818509A
:10068000B1E81850A0E81850BFF4F5AF5FEA027C5B
:1006900024BFB1E81850A0E8185044BF18C918C0CA
:1006A000BDE810405FEA827C24BF51F8043B40F86B
:1006B000043B08BF7047D20728BF31F8023B48BF50
:1006C00011F8012B28BF20F8023B48BF00F8012B8E
:1006D00070474FF000020429C0F0128010F0030CA4
:1006E00000F01B80CCF1040CBCF1020F18BF00F825
:1006F000012BA8BF20F8022BA1EB0C0100F00DB8D4
:100700005FEAC17C24BF00F8012B00F8012B48BF31
:1007100000F8012B70474FF0000200B513469446D5
:100720009646203922BFA0E80C50A0E80C50B1F149
:100730002001BFF4F7AF090728BFA0E80C5048BF5D
:100740000CC05DF804EB890028BF40F8042B08BFFB
:10075000704748BF20F8022B11F0804F18BF00F8F7
:10076000012B704770477047704700000048704782
:10077000B8150020704770477047704738B5044679
:100780000A4600206946AFF30080002808BF38BD44
:1007900002460099204600F079FA012038BD012078
:1007A00000F086BBF8B5AFF30080054600200C468C
:1007B000102000BF0646A819A0420DD9324669464E
:1007C0000020AFF30080070008BF00F071FB009825
:1007D000A04218BF0546C419FFF7C8FF05600746C9
:1007E000F01D20F007004619284600F00AF8B44230
:1007F00008BFF8BDA21B31463868BDE8F84000F0DC
:1008000045BA00210160C0E901107047102070470F
:1008100070472DE9FF4F0C461E464FF0FF378BB057
:10082000D2E90001DDF860800A908A46C1F30A55DA
:1008300005B93D46002108464FF00000BAF1000F0F
:1008400000F4400005DA00EB80004FF4400101EABB
:1008500050004FEA9059B9F1010F00DDB9460A98EE
:1008600050EA4A000ED044F61050A5F2FF35454339
:100870002F14B8F1000F1ED07542291E1EDDC9F1DC
:1008800000021CE0B8F1010F4FF0000001D0302150
:1008900003E0F24305E02154401CB042FBDB30464C
:1008A0000022002121540B99C1F80880C1E90020E1
:1008B0000FB0BDE8F08FBD1B6D1CDEE74A4600DAC5
:1008C000694206A800F082FA06AB93E8070003AB82
:1008D00083E8070050460A9900F0AEFB8DE8070058
:1008E000A0F500501F3800900398002D0ADD42F259
:1008F0001F014A460844002303A90390684600F0FC
:1009000017FE09E0A0F500504A461F38002303A94E
:100910000390684600F021FE8DE807000004000CFB
:1009200003D04FF0FF30410800E01046B8F1000F4F
:1009300003D00022009215461EE0751E05D400F07B
:10094000BFF9303262556D1EF9D5B3460122084316
:1009500002D000227F1C04E02078302801D1002240
:100960007F1E002A099784D01DE0112D07DA00F0C0
:10097000A7F9303262556D1C50EA0102F5D10843E7
:1009800002D00098C8B10EE00021681E05E0235C8B
:10099000625C63542254401E491C8142F7DBAB4623
:1009A000A81B401E0990002004F80B000B98099A20
:1009B000C0F80880C0E9002B7AE711264FF0000844
:1009C00057E72DE9F04F88460446D21D22F0070173
:1009D00091B0D1E90001CDE90A0109F047F90246D9
:1009E0000B98C00F01D02D2007E02068810701D5AA
:1009F0002B2002E0202101EAC000032A099001D047
:100A0000072A05DB03464146204600F09FF90BE12B
:100A10002078800601D5E06900E00620B8F1650F76
:100A2000814606D0B8F1660F18D0B8F1670F70D1C3
:100A300031E00020B9F1110F009001DB112301E03A
:100A400009F101030AAA01A90CA8FFF7E2FEDDE9FA
:100A50000C70002609F10105834647E001204B4652
:100A600000904FF000470AAA01A90CA8FFF7D1FE99
:100A7000DDE90DB00C995D46002610B909F10100C1
:100A80000D18B9EB050003D4C0F1FF3609F10105DB
:100A9000A5EB09002BE0B9F1010F01DA4FF00109D4
:100AA0000020B9F1110F0090484601DD112300E04C
:100AB00003460AAA01A90CA8FFF7ABFEDDE90C70FA
:100AC0004D4600268346207800070AD4AB4500DA5D
:100AD0005D4601A8012D04DD411911F8011C3029E2
:100AE00007D04F4502DA17F1040F04DA01208246DD
:100AF0000FE06D1EEEE7002F02DCED1B3E4403E02D
:100B0000781CA84200DD7D1CB81B00F1010A4FF0E3
:100B100000472078000703D4AA4501DB4FF0FF3AD5
:100B20000021B7F1004F0DF143088DF8431024D098
:100B300002202B23002F01DA7F422D230A21021EDF
:100B4000A0F1010000DC5FB197FBF1FC97FBF1F233
:100B500001FB1C7C17460CF1300C08F801CDEEE7C8
:100B6000A8F1010003702188090501D5452100E0A5
:100B70006521A0F1010800F8011C09980FA9A1EB5B
:100B80000807FF1D00B10120411901EBEA70A169BE
:100B90003844081A401EA0612078C00602D42046BE
:100BA000AFF30080099828B1D4E901219047206A69
:100BB000401C20622078C00622D52046AFF300807A
:100BC0001EE0002E04DBB34502DD01A8805D00E0DD
:100BD0003020D4E901219047206A401C2062761C15
:100BE000AAF101005FEA000A0AD100F04BF8C068E0
:100BF0000168405CD4E901219047206A401C2062D2
:100C0000281EA5F10105DCDC07E0D4E9012118F874
:100C1000010B9047206A401C2062381EA7F1010793
:100C2000F3DC2046AFF30080032011B041E6000062
:100C300001694A1C02610878704700B58FB0CDE9A0
:100C400001310021059105497944CDE90310114690
:100C50006846FFF721FC0FB000BD0000E5FFFFFF75
:100C60000A6802F8010B0A607047D1E900239A4232
:100C700002D2531C0B601070704700000048704790
:100C8000B015002000487047D0150020034640688A
:100C90008C46002818BF88423CBF03464068F8D302
:100CA00018681844884207D00CF1030020F00700B0
:100CB000001D411A521A0146081D0A60FFF733BB96
:100CC00030B5B0F10A024FEA900E71F100034EEA1E
:100CD000817EB0EB0E0061EB91014FEA101E4EEAEF
:100CE000017E10EB0E0041EB11114FEA102E4EEA7F
:100CF000016E10EB0E0041EB11214FEA104E4EEA4F
:100D0000014E10EB0E0041EB1141401841F1000182
:100D10004FEAD00040EA41704FEAD10110EB800564
:100D20004FEA810444EA907444EB01046D1944EBEA
:100D30000404521BA3414FF0000348BF0A3200D500
:100D400030BD401C41F1000130BD00002DE9F041F3
:100D50001F46044603260168072A01F4006004DBED
:100D600008B116A505E016A503E008B115A500E039
:100D700015A521F010002060A069C01EA0610FB170
:100D8000401EA0612046AFF300804FB1D4E901219D
:100D900038469047206A401C2062C01C206206E052
:100DA000206AFAE7D4E9012115F8010B9047761E75
:100DB000F8D22046AFF30080BDE8F0814E414E00EE
:100DC0006E616E00494E4600696E66002DE9F0477F
:100DD000814616468AB0354878440DC88DE80D0026
:100DE00032487844801C03AC0DC884E80D0041F6FD
:100DF0009B300844372190FBF1F290FBF1F5A5F10F
:100E0000800501FB12041B3C02D56442012000E076
:100E10000020DFF898A080460027FA44AAF1BE0A15
:100E20000EE0E0070AD03246684607EB470101238F
:100E30000AEB810100F091FB8DE8070064107F1C34
:100E4000002CEED1194F7F44AE3F19E0E80715D0D2
:100E500007EB04100DF1180A90E80E008AE80E0066
:100E6000C068F04201D1981908903246012306A9C2
:100E700003A800F072FB03AB83E807006D10641C4D
:100E8000002DE3D14FF0010332466946B8F1000F5F
:100E900003A802D000F04CFB01E000F05EFBC9E9C2
:100EA0000001C9F808200AB0BDE8F08728B70000A3
:100EB00010B500F039F8BDE8104000F02FB87047C9
:100EC0007546FFF7DBFEAE4605006946534620F047
:100ED0000700854618B020B5FFF7E4F9BDE82040CB
:100EE0004FF000064FF000074FF000084FF0000BE6
:100EF00021F00701AC46ACE8C009ACE8C009ACE899
:100F0000C009ACE8C0098D46704710B50446AFF380
:100F100000802046BDE81040FFF7B0B9002801D09E
:100F200008F003BF7047000010B5012805D000216C
:100F300003A000F061F8012010BD09A1F8E700004E
:100F400053494752544D454D3A204F7574206F66B2
:100F50002068656170206D656D6F7279000000001A
:100F60003A2048656170206D656D6F727920636FFE
:100F700072727570746564004FF0013C50F8042B78
:100F800051F8043B9A4221D1A2EB0C03934313EA9C
:100F9000CC1317D150F8042B51F8043B9A4215D1C9
:100FA000A2EB0C03934313EACC130BD150F8042BA0
:100FB00051F8043B9A4209D1A2EB0C03934313EA84
:100FC000CC13DBD04FF00000704700BFD01A01BA3D
:100FD000B1FA81F101F0180122FA01F0CB40C1F120
:100FE0002001DBB2C0B2C01A2CFA01F3D11A91432E
:100FF00011EAC311E6D1704770B505460C460A20C8
:1010000000E06D1C00F011F835B128780028F8D107
:1010100002E0641C00F009F814B120780028F8D12F
:10102000BDE870400A20AFF3008008B569468DF82E
:1010300000000320ABBE08BD5FEA400C08BF91F082
:10104000000F4FEA8C234FEAC12243EA51514FEA85
:101050001C5018BF00F5F0404FEA300018BF41F0B7
:1010600000415FEA6C5C00F02980BCF1FF3F08BFE3
:1010700040F080407047130C06BF12044FF0100C74
:101080004FF0000C130E04BF12020CF1080C130FEA
:1010900004BF12010CF1040C930F04BF92000CF179
:1010A000020CD30F04BF52000CF1010C11464FF09B
:1010B0000002A0F11F00A0EB0C00704711F0004FE0
:1010C00008BF704731F000413FF4D5AF0B0C06BFAD
:1010D00009044FF0100C4FF0000C0B0E04BF090276
:1010E0000CF1080C0B0F04BF09010CF1040C8B0F61
:1010F00004BF89000CF1020CCB0F04BF49000CF1B6
:10110000010CCCF12003A0EB0C0022FA03F302FA4D
:101110000CF241EA030100F10100704720F07F4C1E
:1011200080EA030023F07F47ACEB070303F57C5311
:1011300000F0004003F1FF032DE980494FEA154B11
:1011400009B44FEA144325EA0B4E24EA03480FF290
:10115000042606EB132749083E785FEA320203FBB8
:101160000667C7F5000707FB06F64FEA54374FEA54
:10117000D64606F1020607FB066CCCF1005C4FEA8E
:101180001C472CEA074C07FB06F40CFB06F504EBA6
:1011900015464FEA961634BF00204FF000404FEA44
:1011A000D13706FB07FC4FEA1C4C0CFB0BF7D21B9C
:1011B00003FB0CF761EB07010CFB0EF7B0EB0740EC
:1011C00072EB17420CFB08F734BFA2EB0742B2EBFD
:1011D000074261EB17414FEA0C444FEA910706FBC7
:1011E00007FC4FEA1C4C0CFB0BF7B0EBC74072EB53
:1011F000573203FB0CF734BFA2EBC742B2EBC74236
:1012000061EB57310CFB0EF7B0EBC70072EB577276
:101210000CFB08F734BFA2EBC702B2EBC70261EBCD
:101220005771039F4FEA816141EA921104EBCC04AC
:101230004FEAD1374FEA826206FB07FC42EA90127E
:101240004FEA80604FEA1C4C0CFB0BF7D21B03FBF0
:101250000CF761EB07010CFB0EF7B0EB074072EBEC
:1012600017420CFB08F734BFA2EB0742B2EB074270
:1012700061EB17414FEA8C554FEA910704EB9C2430
:1012800006FB07FC4FEA1C4C0CFB0BF7B0EBC7400E
:1012900072EB573203FB0CF734BFA2EBC742B2EB41
:1012A000C74261EB57310CFB0EF7B0EBC70072EB96
:1012B00057720CFB08F734BFA2EBC702B2EBC702B0
:1012C00061EB577115EB4C254FEA816141EA9211B0
:1012D0004FEA82624FEAD13742EA901206FB07FCDE
:1012E00044F100044FEA80604FEA1C4C0CFB0BF702
:1012F000D21B03FB0CF761EB07010CFB0EF7B0EB05
:10130000074072EB17420CFB08F734BFA2EB074211
:10131000B2EB074261EB174115EB1C154FEA813127
:1013200041EA92414FEA823242EA90424FEA8030EB
:101330004FEA0C7644F1000448EA03434EEA0B48B6
:101340004FF0000EB2EB080C71EB030724BF6246AE
:1013500039464EEB0E0E4FF0000B0018524149413A
:101360004BEB0B0BB2EB080C71EB03077BF1000BA3
:1013700024BF624639464EEB0E0E4FF0000B0018AC
:10138000524149414BEB0B0BB2EB080C71EB0307DD
:101390007BF1000B24BF624639464EEB0E0E51EA3C
:1013A000020718BF46F0010616EB0E7655F1000253
:1013B00054F1000103D5BDE88901BDE80088BDE80E
:1013C0008901BDE80048B619524141EB0101A3F182
:1013D0000103704780807F7E7D7C7B7A7978777689
:1013E00076757473727171706F6E6E6D6C6C6B6A02
:1013F0006A696868676666656464636362616160A0
:10140000605F5F5E5E5D5D5C5C5B5B5A5A5959581C
:101410005857575656555555545453535252525186
:10142000515050504F4F4F4E4E4D4D4D4C4C4C4BDC
:101430004B4B4A4A4A494949484848474747474623
:10144000464645454544444444434343434242425F
:1014500042414141002B9C4630D477002BD01CB533
:101460004FEA370703B44FF010004FF01001BAF104
:10147000000F06D0BCF1000FDCBF40F0080040F0C8
:1014800008014FF000000FBCBDE810400BF1010B4C
:10149000BBF1010F08BF5FEA170722BF12F101027B
:1014A00011F101014FF0004143F1000300F0004051
:1014B00043EA00007047F9D35708D0E746EA0646EA
:1014C00013F1400F4FEA16461FDD13F1200FDFBF67
:1014D00016430A46002120335B42BED0C3F12007E9
:1014E00046EA064602FA07F74FEA164646EA0706B4
:1014F000C3F1200722FA03F201FA07F721FA03F1F8
:101500004FF0000342EA0702A7E746EA020646EA6E
:1015100006464FEA164646EA0106BCBF46EA0646BC
:10152000360C4FF000034FF000024FF0000194E73B
:101530002DE9804C9A46934670B491E8380007C86C
:1015400031EA400C48BF34EA430C03D5FFF7E6FD0F
:10155000FFF780FFF0BCBDE8008C2DE9804C9A4677
:10156000934670B491E8380007C810F0804F08BF68
:1015700013F0804F03D100F005F8FFF76BFFF0BCCC
:10158000BDE8008C20F07F4780EA030023F07F4C09
:1015900007EB0C03A3F57C5300F00040A3F1FE031E
:1015A00092F0000F00F0B38095F0000F00F077800C
:1015B0002DE901494FEA11404FEA144621EA00485B
:1015C00000FB06FC24EA064708FB06F607FB08F8C2
:1015D00000FB07F718EB06484CEB164C4FEA124B92
:1015E00018EB07484FEA15464CEB174022EA0B4E22
:1015F0000BFB06FC25EA06470EFB06F607FB0EFE74
:101600000BFB07F71EEB064E4CEB164C4FF000069B
:101610001EEB074E4CEB174B18EB0B0840F100008C
:1016200018EB0E0B58EB000840F100008F1A4FF03A
:1016300000013CBFC943661B14BFB5EB040C00217D
:101640003CBFC943F61B4FEA17444EEA8E0E27EA09
:1016500004454FEA1C4704FB07622CEA074C05FBD4
:1016600007F70CFB05F604FB0CFC16EB074642EBF8
:10167000174216EB0C4642EB1C421BEB060658EBDE
:101680000202414146EA9E0601D5BDE80189B6192C
:10169000524141EB0101A3F10103BDE801894FEA89
:1016A00014454FEA114724EA054621EA074C05FB99
:1016B00007F406FB07F70CFB06F105FB0CFC11EB2E
:1016C000074144EB17444FEA124711EB0C4144EB3E
:1016D0001C4422EA074C05FB07F206FB07F70CFB4C
:1016E00006F605FB0CFC16EB074642EB174216EB21
:1016F0000C4642EB1C456A1854F1000148BF704784
:10170000B619524141EB0101A3F10103704795F075
:10171000000F37D04FEA11424FEA144721EA024640
:1017200024EA074C02FB07F106FB07F70CFB06F463
:1017300002FB0CFC14EB074441EB17414FEA154741
:1017400014EB0C4441EB1C4125EA074C02FB07F566
:1017500006FB07F70CFB06F602FB0CFC16EB074634
:1017600045EB174516EB0C4645EB1C42121951F19F
:10177000000148BF7047B619524141EB0101A3F186
:10178000010370474FEA14454FEA114724EA054622
:1017900021EA074C05FB07F106FB07F70CFB06F2F5
:1017A0004FF0000605FB0CFC12EB074241EB174122
:1017B00012EB0C4251EB1C4148BF7047921841EBB1
:1017C0000101A3F1010370472DE9F04105460F46E1
:1017D0000024A046601EFA4908800120F9490870DB
:1017E00005F0100040B14FF00108F748007820F0F4
:1017F0001000F549087010E0F348007800F0100080
:1018000028B105F00F00012801D0BDE8F081EE48B5
:10181000007800F00F00EC49087005F00F05EA4869
:1018200006783007060E7019C6B2442E24D008DCA4
:10183000122E0FD0222E10D0242E13D0422E22D1C1
:101840000AE0482E16D0822E05D0842E13D0882E82
:1018500019D112E000BF00BF00BF022000F092FECD
:10186000044610E0D949DA4800F02AFB044604B1E6
:1018700009E000BF00BF00BF00BFD648007800F0FD
:1018800081FE044600BF00BF002C7DD10020D2495C
:1018900008803046342E78D01EDC222876D00EDC2C
:1018A000142874D006DC112872D0122833D01328E3
:1018B0006FD12AE018286DD02128F9D1C3E028285B
:1018C00069D004DC232867D02428F1D143E03128F3
:1018D0001DD03228ECD1E5E0482864D00CDC422849
:1018E0007AD004DC382878D04128E1D19FE0432821
:1018F00074D04428DCD1B2E08138082849D2DFE82E
:1019000000F08A76D06ED5D5D5AF1324D0E013245D
:1019100000F0BAFBCCE007F0FBFFB048007800B95C
:101920005124BCB904F01CF804464CB90020A54968
:10193000087000F08AFB044614B90120A849087019
:1019400044B1FF2C06D09F48007808B900F083FB13
:1019500004F06CF8ACE006F011FF044674B9002006
:10196000984908709F4800F06DFB044634B99D48C3
:10197000008806F0D1FE01209B49087094B1FF2C2D
:1019800010D09048007808E093E08CE066E083E0B7
:1019900061E08BE081E081E081E008B900F059FB73
:1019A00007F0E8F984E007F0BBF904464CB90020E1
:1019B0008449087000F04BFB044614B901208B49A0
:1019C000087044B1FF2C06D07E48007808B900F0BA
:1019D00044FB07F03FFA6BE015E065E060E000F0E3
:1019E0003CFB07F037FA00207649087060E000F011
:1019F00034FB044607F02EFA00207249087004B147
:101A000056E0422600BF00F024FB07F0B3F90020A7
:101A10006C4908704CE000F020FB044607F01AFA0D
:101A200000206849087004B142E0412600BF00F080
:101A300010FB044607F09EF900206249087004B1CB
:101A400036E0212600BF03F0F1FF00F004FB04465E
:101A500000F01AFB2CE000F017FB00BF00BF00BF36
:101A6000B8F1000F02D0304600F0F2F95648007885
:101A700000F00C0070B155480088002803DD0220FA
:101A800001F012FA06E052480088002802DD032027
:101A900001F00AFAFE240BE000BF00BF00BF00BF48
:101AA00000BF00BF00BF00BF112401E0122400BF2F
:101AB00024E04548007802280DD0042806D00828E4
:101AC0001CD100F0CAFA07F0C5F900BF00F0C1FA56
:101AD00007F050F900BF162C0DD103F0A7FF00F05E
:101AE000BAFA002001F036F8012001F033F80120A5
:101AF0003549087002E0022033490870FF2C2CD1D0
:101B000001203B490870344806800088122806D01E
:101B1000132805D0242808D048280CD106E000BF9F
:101B20004FF4FA602649088009E000BF42F22830ED
:101B30002349088003E0C8202149088000BF00BF76
:101B40001F48B0F900000A2190FBF1F01C490988F8
:101B5000081A00B21A49088064E01B48007800F0B7
:101B60000F00A84256D004B9DFB1174800782843C7
:101B700000F00800A8B11D48007818B100F06DFA17
:101B800007F068F911480088002803DD022000F002
:101B9000E1FF06E00E480088002802DD032000F087
:101BA000D9FF3CB308480078082802D10420064930
:101BB00008700548007840F010000349087020E0E4
:101BC000F603002016040020220400201C0400203C
:101BD0001A0400201E0400201804002038040020ED
:101BE0003E0400202A040020F1030020F00300201E
:101BF00017040020FFE717B13C4645F010050A48DE
:101C0000057000200949087021460748007806F051
:101C100097FD07E000200549087000210248007880
:101C200006F08EFD00BFF0E522040020170400201E
:101C300070B57748007800287AD000240025002667
:101C400074480088002855D173480088C0F30715F0
:101C500071480088122806D0132805D0242812D0F5
:101C6000482846D11EE000BF6C48007808B900F053
:101C7000F2F903F0DBFE6A48007810B16948068883
:101C800000E0012635E06548007808B900F0E1F988
:101C900007F070F86248007810B16248068800E0EA
:101CA000012626E06048007878B16048007808B9DD
:101CB0002D2615E05E48007828B95E480088002887
:101CC00001DD1B260CE01A260AE05A48008800288D
:101CD00001DD1B2604E00825002601205649087076
:101CE00036B14E48007808B900F0B7F907F0B2F8FD
:101CF00000BF80E048480088122806D0132805D08D
:101D000024281DD0482875D131E000BF4348007811
:101D1000A8B100204149087000F097F9044644B981
:101D20000120464908703C48007800F00F0506E0A5
:101D30006DE0FF2C03D000F08EF903F077FE59E040
:101D40003648007890B10020344908703C4800F0D3
:101D500079F9044624B901203A490870042505E0C0
:101D6000FF2C03D000F075F907F004F842E02B488F
:101D7000007828B32C48007818B33348B0F9000035
:101D8000002836DD3048B0F900003049B1F90010C4
:101D900088422EDC00202C4908802C4908801F49ED
:101DA000087000F054F9044624B901202249087053
:101DB00008251EE0FF2C1CD000F04FF907F04AF870
:101DC00017E01C48008810B11948007888B100203D
:101DD0001249087000F03BF9044624B90120164965
:101DE0000870082505E0FF2C03D000F036F907F055
:101DF00031F800BF00BF4DB10020054908700EB199
:101E000045F010053146284606F09AFC00BF70BD2B
:101E100017040020F60300201804002016040020F8
:101E20001304002014040020F4030020F803002011
:101E3000F20300201C040020F00300203E040020D8
:101E40002A040020F10300200004002002040020E6
:101E50007047000010B51748408820F00100401C72
:101E6000144948800846408820F00200488008460F
:101E7000408820F00400001D48800846408820F07B
:101E8000080048800846408820F010001030488044
:101E90000948807800F0010028B900220221074893
:101EA00001F01AFE04E001220221044801F014FEB0
:101EB00010BD0000380500204C0500200004024041
:101EC0002DE9FE4F81468A46002002900027804679
:101ED0000025002483460190002600BF2AE03949EE
:101EE00031F8150004F0A4FB0446E4B1A069B0F891
:101EF00000B0002614E0711CC8B2214604F0DFFADD
:101F0000C010009000EBD0704010A16901EB4000C0
:101F100001900198007840441FFA80F8701C86B246
:101F20005E45E8DB04E04FF000082520029006E063
:101F3000681C85B22348801E0088A842CFDC00BF01
:101F400008F107004FEAE0080298002830D1002588
:101F500028E01D4931F8150004F06AFB0446DCB1A5
:101F6000A069B0F800B0002613E0711CC8B2214689
:101F700004F0A5FAC010009000EBD0704010A169E9
:101F800001EB4000019001980078384487B2701C42
:101F900086B25E45E9DB03E000272420029006E0DC
:101FA000681C85B20848801E0088A842D1DC00BFAA
:101FB000F81DC710A9F80070AAF800800298BDE8C3
:101FC000FE8F0000320500203605002070B5054662
:101FD0002E4600240EE00A4830F81400B0F5D05F19
:101FE00005D1122207493046FEF7FCFA00BF00BFB8
:101FF000601CC4B20248801E0088A042EBDC70BDA9
:10200000360500203A05002070B505462E4600240E
:102010000EE00A4830F81400B0F5B05F05D1122286
:1020200031460748FEF7DEFA00BF00BF601CC4B2AD
:102030000248801E0088A042EBDC70BD3205002003
:102040004E05002001460020704700207047002008
:10205000704700207047002070470020704770B51F
:10206000054600262C4607E0204600F015F80646F7
:102070000EB1304670BD283420894FF6FF7188427A
:10208000F2D13046F6E700000020014908707047A1
:102090006C04002000BFFEE70146002940D0214823
:1020A000006848B91F48016000201E4A126850604D
:1020B0001C4A1268106070471A48006800890A8933
:1020C00090420BDD00200860164800684860154803
:1020D00000680160134801600020ECE711480268C5
:1020E0001BE010890B89984201D10120E3E7108998
:1020F0000B89984209DD106808604A60106808B1D1
:102100001068416011600020D5E7506820B9516027
:102110000A6000204860CEE75268002AE1D100BF83
:102120000120C8E7E801002030B507480468002511
:1021300004E025896468284600F02EF9002CF8D1C7
:1021400000200149086030BDE801002010B50446B8
:102150000E48006840B100210C48006803F050FBB5
:1021600000200A4908600EE08020FEF7ADF8044622
:102170000CB9072010BD0E2205492046FEF732FAA1
:10218000204605F0F5FD0020F4E70000EC030020F8
:10219000A01500200148006870470000E8010020F9
:1021A000002002490860024908807047EC030020C3
:1021B000A404002038B5002425480068002845D034
:1021C0002448007800902448036824480268244882
:1021D0000178244800881E4D2D68A8470446FF2C2E
:1021E00034D021480078012811D0022804D00328D7
:1021F00014D004281AD110E01C48006830B11B48E4
:102200000068FEF790F800201849086000BF00221F
:102210001146204605F01EFF08E000BF0E48026888
:102220000E480168204605F015FF00BF00BF0020E2
:102230000D4908700B490880094908700749086072
:1022400005490860034908700149086038BD00006D
:102250009C0400208D040020980400209404002099
:102260008E040020900400208C040020A004002094
:1022700010B500240020074908600748FFF7EFFE6B
:1022800004460CB1204610BD0448FFF7E8FE0446A2
:102290002046F8E7E8010020EC0100207000002053
:1022A00030B520202C49088000204880486044F246
:1022B0001F008881294808610020486188830862DE
:1022C0000885488581F840002020254908800020A5
:1022D00048802148406848601F48808988811F489D
:1022E000086100204861888308620885488581F874
:1022F00040001C490870FFF7BBFF05460DB1FFF712
:1023000013FF002018490870184908701849088000
:102310001849087018490860184908601849086089
:1023200018490860002418480068846800BF04F059
:10233000080018B100201549087008E00120134971
:10234000087011480068D0F81009114908604FF46E
:102350007A601049086030BD1815002020A10700E0
:102360005C1500206C0400208C0400208D040020EB
:10237000900400208E040020940400209804002083
:102380009C040020A0040020600400201004002011
:10239000680000206C00002030B503460E49086834
:1023A00015E00189994211D10268416802B151607A
:1023B00001B10A600024046044600489064D2D6860
:1023C0002D89AC4201D1044C216030BD4068002809
:1023D000E7D100BFF9E70000E801002070B504462E
:1023E0000025E088000B092817D2DFE800F016105E
:1023F000050F111213140A00204605F08DFA054648
:102400000DE0204605F0B4FC054608E000BF00BF23
:1024100000BF00BF00BF042501E0052500BF00BFCD
:10242000284670BD10B518480078F8B117490868FB
:1024300017490968D1F810091449D1E9002100228F
:10244000134602431943114BC3E90021114909689E
:10245000884208D21946D1E900311B1C41F1010123
:102460000A4AC2E900310B49086008E007490848F8
:10247000006800F5106002690A6040694860002049
:102480000549086010BD0000100400206000002015
:1024900060040020680000206C0000201348408D7C
:1024A000002805DC1148008D11490989884204DDA6
:1024B00001200E4981F8400003E000200B4981F81B
:1024C00040000C48408D002805DC0A48008D084972
:1024D0000989884204DD0120064981F8400003E0B3
:1024E0000020044981F840007047000018150020C2
:1024F000700400205C15002010B51A480088C0B197
:10250000002419480068B0F8404400BF04F00100FE
:1025100070B91648008800280ADD1548007820B1F7
:102520001B210420FFF750F910BD0020114908704D
:1025300000BF1148007890B10D48007878B10F487D
:10254000007820B92C210420FFF73EF9ECE70C4875
:10255000007820B91A210420FFF736F9E4E700BF1C
:10256000E2E7000024040020600400201C04002096
:10257000F0030020F2030020F4030020F803002001
:10258000FE0300202DE9F0438046002700250026A9
:102590009248008842F6FF7188420BDB8F48008822
:1025A000884207DB8D480088884203DB8B4800881F
:1025B000884202DA1420BDE8F083002000F02CFDF0
:1025C000044665882688A07900F0010008B916271E
:1025D0001EE0207900F00C00042801D0162717E037
:1025E000207900F00200022801D0162710E0242DE7
:1025F00001DA16270CE0802D01DD162708E0B6F57C
:10260000805F01DA162703E0B6F5405F00DB16278E
:10261000FFB9012000F000FD044665882688A079F6
:1026200000F0010008B916271DE0207900F00C0029
:1026300008B1162717E0207900F00200022801D027
:10264000162710E0242D01DA16270CE0802D01DD7D
:10265000162708E0B6F5805F01DA162703E0B6F525
:10266000405F00DB1627002F4BD1B8F1030F48DD88
:1026700001205B490870032000F0CEFC0446658809
:102680002688A07900F0010010B10DB9042736E0CA
:10269000A07900F0010068B352480088854204D157
:1026A0005048008808B1102D01DD032727E020796C
:1026B00000F00C00E0B94C480078022805D1B6F5CE
:1026C000805F02DBB6F5405F07DB474800780228F1
:1026D0000CD046480088864208D1207900F00200DC
:1026E00002280CD100203E49087008E0022706E0CD
:1026F000042704E015B93B48008800B1032707B15F
:102700001E27DFBBB8F1020F54DD022000F084FC6D
:10271000044665882688A07900F0010010B10DB943
:10272000042745E0A07900F0010040B3304800885C
:10273000854236D12E48008880B3102D31DC2079B7
:1027400000F00C0004282AD127480078022805D17F
:10275000B6F5805F02DBB6F5405F07DB2248007804
:10276000022819D023480088864215D1207900F02C
:10277000400028B101202049087004E01AE012E06E
:1027800000201D490870207900F0020002280FD1B6
:102790000020134908700BE0022709E001E004273C
:1027A00006E0032704E015B91148008800B10327AB
:1027B00007B11D2787B9C1460AE0484600F02CFC46
:1027C0000446E0880D49088009F1010000F0FF0986
:1027D0000B4800788145F0DB3846ECE62004002009
:1027E000120400201A0400202204002028040020E3
:1027F0001C04002026040020F30300202E040020E7
:102800001E0400200246022940D003DC39B1012910
:102810006ED106E0032952D0222969D125E000209B
:10282000704741F6324082420BD13348008800287D
:1028300007DD3248007B00F00200002801DD0020A7
:10284000EEE741F6334082420ED12D48007B00F086
:102850000200002808DD2848008828B92948008897
:10286000002801DD0020DBE742E041F633408242F0
:102870000BD12348007B00F00200002805DD1E4834
:102880000088002801DD0020CAE731E041F632402F
:10289000824207D11948007B00F00400002801DDC6
:1028A0000020BDE741F63340824207D11448007B47
:1028B00000F00400002801DD0020B1E718E041F637
:1028C0003240824207D10D48007B00F0080000280A
:1028D00001DD0020A4E741F63340824207D10848D9
:1028E000007B00F00800002801DD002098E700BF11
:1028F00000BF122094E700001C04002018150020DF
:102900005C1500201A04002033480078002862D0AB
:102910003248007800285ED031480088002809DD60
:10292000304800882E490988884203DB00202E4960
:1029300008700DE02B48008829490988884204DA8C
:1029400028480088401C2749088001202649087033
:102950002548007890B12548008800280EDD2448DD
:10296000008822490988884205DA21480088401CED
:102970001F49088002E000201B4908701A480078AF
:1029800018B31C48008D1C49098988420EDA0120C1
:102990001A4908701A48B0F9000000281BDD1948D0
:1029A0000088401C00B21749088014E013480078E2
:1029B00088B10020114908701148B0F900000028C2
:1029C00009DD00200F49088005E00C48007810B1AF
:1029D00000200A4908707047F4030020F10300202A
:1029E0000604002004040020F80300200A0400204C
:1029F000080400201815002070040020FE030020A9
:102A0000000400200204002010B5024800F0E4FC9D
:102A100010BD0000D013002010B5024800F0DCFC0F
:102A200010BD00001013002010B5024800F0D4FCC7
:102A300010BD00003014002010B5024800F0CCFC9E
:102A400010BD0000701300200146087810381823CC
:102A5000B0FBF3F20848805CC865032A05D9086812
:102A60006FF30900001D886503E008686FF3090033
:102A70008865886D70470000ACBB000801460020E7
:102A80008A6A8B69CBB932B1012A0DD0022A03D0F0
:102A9000032A10D10EE000BFCB6A03F08073B3F1BC
:102AA000807F00D1012007E0CB6AB3F1C07F00D165
:102AB000012001E000E000BF34E08B69B3F5005F66
:102AC0001AD132B1012A07D0022A03D0032A11D128
:102AD0000AE000BF01200EE0CB6A03F08073B3F17F
:102AE000807F00D1012006E0CB6AB3F1C07F00D126
:102AF000012000E000BF15E032B1012A05D0022A12
:102B000004D0032A0CD103E000BF00BF012008E07D
:102B1000CB6A03F08073B3F1807F00D1012000E025
:102B200000BF00BF704730B50468246824F48024D7
:102B300005682C60046863608468402C04D10468D4
:102B4000A2600468E16003E00468A1600468E260D8
:102B500030BD704718B54FF480720092C20002F683
:102B60000601BDF800204B10084C246824F81320FF
:102B700000BF4A10054B1B6833F812200092BDF8C5
:102B8000002002F48072002AF3D018BD60040020F7
:102B900010B50948007F00F0010020B90748007F08
:102BA00000F0010020B10648008808B902F00AFCD4
:102BB000FFF750F910BD0000181500205C1500202B
:102BC0001C04002010B51948007850B11848B0F91D
:102BD0000000002805DD16480088401E00B2144998
:102BE0000880FFF791FE1348007838B1124903C9F5
:102BF0000021124B181A71EB01020AD30E48D0E9DA
:102C000000100F4BC91840F100000B4AC2E9001038
:102C100006E00848007818B14FF47A600949086066
:102C200008480068401C0749086010BD17040020D0
:102C3000F6030020100400206000002040FBE1FFAC
:102C400040420F006C00002010B500202A4909689E
:102C5000888800BF010A294A117027490968C88875
:102C600000BF40F6FF7101EB8021254A118006F07C
:102C70004FFE002404E02046FFF76CFF601CC4B246
:102C80001E4800788442F6DB02F0D2FC00201D4989
:102C900008701D4908701D4908701D4908701D49BC
:102CA00008701D4908701D4908801D4908801D498C
:102CB00008801D4908801D4908801D4908701D496C
:102CC00008701D4908801D4908801D4908801D495C
:102CD000088001201C49087000211B48007805F07D
:102CE0002FFD00201949088019490870FFF758FA8C
:102CF000002004F0FDFD10BD600400201E04002033
:102D0000200400201604002017040020F2030020F5
:102D1000F0030020F1030020F3030020240400202E
:102D20000404002006040020080400200A040020F7
:102D3000F403002013040020140400202A040020BF
:102D40001C0400201A040020220400201804002083
:102D50001104002070B50026012502F0D9FD43487A
:102D6000007820B142480068B0F80E5800BF4048D3
:102D70000068B0F8204200BF04F0010068B13D488F
:102D8000007850B93A480068B0F8206100BF24F0DC
:102D90001104F0B20021FEF717FD04F01000B0B1ED
:102DA0003448007898B93448007800F0100070B9C1
:102DB0003148007820F01000012808D024F01004D9
:102DC0002D49097801F00F000021FEF7FDFC29488C
:102DD000007808B1FEF72CFF24480078002843D083
:102DE00005F0010030B92449097801F00F000021F5
:102DF000FEF7EAFC04F4007078B100201F49088057
:102E0000084600881E4909884910194A126822F8A4
:102E1000110024F4007402F06BFC05F0020010B104
:102E20001848007828B105F0020088B915480078E4
:102E300070B102F0B1FC1348007810B145F4007590
:102E400001E025F4007500BF09480068A0F80E589D
:102E500007480068B0F8204200BF04F4807018B141
:102E600024F4807402F0E4FA70BD00003E040020F7
:102E70006004002017040020220400202C040020FD
:102E8000460400203F04002010B5012000F012FD90
:102E900010BD10B5022000F00DFD10BD10B50820CA
:102EA00000F008FD10BD000018B500220092C2001D
:102EB00002F60601BDF800204B10094C246824F8E6
:102EC000132000BF4A10064B1B6833F812200092F3
:102ED000BDF8002002F48072002AF3D118BD000072
:102EE0006004002072B600BFFEE7000070B5044623
:102EF000B3F5804F13D1D1E9000540EA05108D6884
:102F000040EA05208D6928438D8940EA054054F840
:102F10002250064E3540284344F8220003E06FF06B
:102F2000704044F82200002070BD00000000F0CF87
:102F300070B50246086852F8200020F001000E68C3
:102F400042F826008868082801D1402300E00023C9
:102F5000486818438E683043CE6830430E6930436A
:102F60004E693043CE6930430E6A30434E6A304377
:102F70008E6A3043CE6A30430E6B40EA060488699D
:102F80000443C86B0443074D45F4806545F4E025D0
:102F9000086852F82000A84320430E6842F8260033
:102FA000002070BD7FFB080010B50346D1E9000486
:102FB00040EA04108C6840EA04208C8940EA04440A
:102FC000088A401E44EA0054087D801E44EA0060DE
:102FD0008C692043541C53F8244004F0404420439F
:102FE000541C43F82400002010BD10B501460A8887
:102FF0004B889A420ED00A8801F1080353F8220048
:10300000531C9AB20A800B888C88A34201D10023FA
:103010000B8000E0002010BD01464FF4006000EB83
:10302000C1004010054A126802EB4000044A0368E0
:103030001360406850601046704700006004002034
:10304000300400200146002200200B4B1B68D3F8FF
:10305000102932B1914201D8501A02E0C1F1FF3378
:10306000981841B1054B1B68834203D2034B1B6880
:10307000C01A00E00020704760040020DC0300203C
:1030800070B504460CB9012070BD94F8200010B949
:10309000204600F0AFF82068006840F00100216889
:1030A000086000F01FFD05460DE000F01BFD401B11
:1030B0000A2808D9606A40F400306062052084F86C
:1030C00020000120E0E72068406800F001000028AF
:1030D000EBD02068006820F002002168086000F052
:1030E00001FD05460DE000F0FDFC401B0A2808D953
:1030F000606A40F400306062052084F820000120FE
:10310000C2E72068406800F002000028EBD1207E72
:10311000012806D12068006840F08000216808601E
:1031200005E02068006820F0800021680860607E6B
:10313000012806D12068006840F04000216808603E
:1031400005E02068006820F0400021680860A07E4B
:10315000012806D12068006840F02000216808603E
:1031600005E02068006820F0200021680860E07E0B
:10317000012806D12068006820F01000216808604E
:1031800005E02068006840F0100021680860207F9A
:10319000012806D12068006840F008002168086016
:1031A00005E02068006820F0080021680860607F62
:1031B000012806D12068006840F0040021680860FA
:1031C00005E02068006820F0040021680860D4E968
:1031D0000201084321690843616908436168491E87
:1031E00008432168C86100206062012084F8200043
:1031F000002049E710B586B00446142101A8FDF768
:103200008AFA1B492068884230D100BF0020009014
:103210001848006840F000701649086008460068C9
:1032200000F00070009000BF00BF00BF00200090C1
:1032300010481038006840F002000E49103908604C
:103240000846006800F00200009000BF00BF4FF485
:10325000407001900220029000200390032004900F
:103260000920059001A9044800F032FB06B010BD0A
:1032700000640040403802400004024070B503463C
:103280000C46002002255D711D68AD6845F0010502
:103290001E68B560002104E054F821501E683560B6
:1032A000491C9142F8D31D68286801255D7170BDE5
:1032B00010B504460CB9012010BD607920B900207A
:1032C0002071204600F004F8012060710020F3E72F
:1032D00008B50A4A016891420FD100BF0021009150
:1032E0000749096841F48051054A1160114609688F
:1032F00001F48051009100BF00BF08BD00300240C2
:103300003038024070B50446A56D00F0EBFB064670
:1033100094F83500022808D08020606500BF0020A6
:1033200084F8340000BF012070BD2068006820F0E0
:103330001600216808602068406920F0800021683C
:103340004861206C08B9A06C28B12068006820F0A2
:103350000800216808602068006820F001002168EA
:10336000086010E000F0BEFB801B05280BD9202070
:103370006065032084F8350000BF002084F8340025
:1033800000BF0320D0E72068006800F0010000289B
:10339000E8D194F85C103F208840A860012084F8B0
:1033A000350000BF002084F8340000BF00BFBBE739
:1033B000014691F83500022803D08020486501209D
:1033C0007047052081F835000868006820F001008A
:1033D0000A6810600020F3E7F8B50446002000906A
:1033E0008C4800684FF41651B0FBF1F7A56D2E68BC
:1033F00094F85C1008208840304098B1206800683C
:1034000000F0040070B12068006820F0040021681A
:10341000086094F85C1008208840A860606D40F057
:103420000100606594F85C1001208840304068B16C
:103430002068406900F0800040B194F85C100120E1
:103440008840A860606D40F00200606594F85C10F0
:1034500004208840304068B12068006800F0020015
:1034600040B194F85C1004208840A860606D40F082
:103470000400606594F85C1010208840304078B3F8
:103480002068006800F0080050B394F85C10102029
:103490008840A8602068006800F4802080B120681F
:1034A000006800F4002028B9206CC8B12046216CC7
:1034B000884715E0A06C98B12046A16C88470FE0C2
:1034C0002068006800F4807028B92068006820F047
:1034D000080021680860206C10B12046216C8847E4
:1034E00094F85C10202088403040002865D0206887
:1034F000006800F0100000285FD094F85C102020D5
:103500008840A86094F83500052828D12068006814
:1035100020F01600216808602068406920F08000D3
:1035200021684861206C08B9A06C28B12068006847
:1035300020F008002168086094F85C103F20884063
:10354000A860012084F8350000BF002084F8340012
:1035500000BF206D10B12046216D8847F8BD20685E
:10356000006800F4802080B12068006800F400202A
:1035700028B9606C10B12046616C88471DE0E06B93
:10358000D8B12046E16B884717E02068006800F456
:10359000807068B92068006820F010002168086019
:1035A000012084F8350000BF002084F8340000BFFB
:1035B000E06B10B12046E16B8847606D38B3606DF9
:1035C00000F00100F0B1052084F8350020680068A3
:1035D00020F001002168086000BF0098401C0090A6
:1035E000B84200D905E02068006800F0010000281A
:1035F000F3D100BF012084F8350000BF002084F81B
:10360000340000BFE06C10B12046E16C884700BF79
:10361000A4E700005C0000202DE9F04104460025ED
:1036200000F060FA074614B90120BDE8F081606A35
:1036300000B100BF022084F8350000BF002084F8EC
:10364000340000BF2068006820F001002168086095
:103650000AE000F047FAC01B052805D92020606564
:10366000032084F83500E0E72068006800F00100DE
:103670000028EED12068056821480540D4E9010101
:103680000843E16808432169084361690843A16967
:103690000843E1690843216A08430543606A042836
:1036A00003D1D4E90B010843054320680560206875
:1036B000456925F00705606A0543606A04280DD155
:1036C000A06A0543E06A48B12046FFF7D7F928B160
:1036D00040206065012084F83500A6E72068456138
:1036E0002046FFF7B1F9064694F85C103F20884069
:1036F000B06000206065012084F83500002094E768
:103700003F8010F02DE9F04704460D4616461F464F
:103710004FF00008D4F8589000BF94F83400012806
:1037200002D10220BDE8F087012084F8340000BFF8
:1037300094F83500012825D1022084F835000020B6
:1037400060653B46324629462046FFF7ECF994F87F
:103750005C103F208840C9F808002068006840F0ED
:10376000160021680860206C28B12068006840F0CD
:103770000800216808602068006840F001002168A6
:10378000086006E000BF002084F8340000BF4FF05E
:1037900002084046C6E7000070B5044600F0A2F9F2
:1037A00006462546681C10B104480078054400BF51
:1037B00000F098F9801BA842FAD370BD5800002091
:1037C00000B587B0142102A8FCF7A5FF2A480068BD
:1037D00008B107B000BD01202749086000BF0020E4
:1037E00001902648006840F001002449086008461E
:1037F000006800F00100019000BF00BF4FF23F00E1
:1038000002900220039000200490032005900C20D9
:10381000069002A91A4800F05BF841F207000290F6
:103820000220039000200490032005900C200690B5
:1038300002A9144800F04CF84FF680700290022064
:10384000039000200490032005900C20069002A90C
:103850000D4800F03DF84CF23370029002200390C6
:1038600000200490032005900C20069002A9074830
:1038700000F02EF800BFACE74800002038380240C6
:10388000001402400018024000100240000C0240E8
:1038900010B50446012C02D103F0BAFE08E0082C52
:1038A00002D105F0E1FA03E0022C01D105F078FB2A
:1038B00010BD000010B5044604480068204020B147
:1038C000024804602046FFF7E3FF10BD143C0140AE
:1038D000F8B502460B460025002400200021D6E062
:1038E000012606FA01F51E6806EA0504AC4274D109
:1038F0001E7906F00306012E04D01E7906F0030699
:10390000022E13D190684F000326BE40B0434F00F3
:10391000DE68BE4030439060506801268E40B04360
:103920001E79C6F300168E40304350601E7906F0B3
:103930000306032E09D0D0684F000326BE40B043D3
:103940004F009E68BE403043D0601E7906F00306EB
:10395000022E13D1CF0802F1200656F827004E0799
:10396000F70E0F26BE40B0434F07FF0E1E69BE4044
:103970003043CF0802F1200646F8270010684F00B8
:103980000326BE40B0431E7906F003064F00BE403A
:10399000304310605E6806F44036002E76D000BFDB
:1039A000002600963C4E366846F480463A4F3E600C
:1039B0003E46366806F48046009600BF00BF374E8C
:1039C0008F0856F827008E07370F0F26BE40B043EA
:1039D000334EB24202D1002624E057E0314EB242CB
:1039E00001D101261EE0304EB24201D1022619E07B
:1039F0002E4EB24201D1032614E02D4EB24201D127
:103A000004260FE02B4EB24201D105260AE02A4ED1
:103A1000B24201D1062605E0284EB24201D1072666
:103A200000E008268F073F0FBE4030431B4E8F0833
:103A300046F82700224E3068A0435E6806F48016E0
:103A400006B120431E4E3060361D3068A0435E68CC
:103A500006F4001606B12043194E361D3060184E8C
:103A6000361F3068A0435E6806F4003606B1204376
:103A7000134E361F3060361F3068A0435E6806F470
:103A8000803606B120430E4E083E3060491C102996
:103A9000FFF426AFF8BD000044380240083801406A
:103AA000000002400004024000080240000C0240F6
:103AB000001002400014024000180240001C0240A6
:103AC000083C014010B5426921EA020302EA010400
:103AD00043EA0443836110BD0AB1816101E00B0434
:103AE0008361704701480068704700005000002063
:103AF0000348006803490978084401490860704791
:103B0000500000205800002010B50D48006840F417
:103B100000700B4908600846006840F48060086047
:103B20000846006840F480700860032000F0A6F8A2
:103B30000F2000F007F800F02BF8002010BD000067
:103B4000003C024070B504460E4800784FF47A718C
:103B5000B1FBF0F00C490968B1FBF0F5284600F024
:103B600063FC08B1012070BD102C07D20022214651
:103B7000501E00F045F80548046001E00120F2E71E
:103B80000020F0E7580000205C00002054000020D6
:103B900008B500BF002000900E48006840F4804047
:103BA0000C4908600846006800F48040009000BF9F
:103BB00000BF00BF00200090081F006840F0805048
:103BC000091F08600846006800F08050009000BFA0
:103BD00000BF08BD443802400146084600280DDBFE
:103BE00000BF00BF00F01F0301229A4043099B0061
:103BF00003F1E023C3F8002100BF00BF00BF7047FE
:103C00002DE9F05F80460D461646002706F06AF85B
:103C1000074639462A46334601F00700C0F1070A35
:103C2000BAF1040F02D94FF0040A01E0C0F1070A0B
:103C3000D14600F1040ABAF1070F02D24FF0000A90
:103C400001E0A0F1030AD4464FF0010A0AFA09FA8A
:103C5000AAF1010A0AEA020A0AFA0CFA4FF0010B69
:103C60000BFA0CFBABF1010B0BEA030B4AEA0B045A
:103C70002146404606F03EF8BDE8F09F00BF00F048
:103C80000702064B19684FF6FF031940044B0B431C
:103C900043EA0221014B196000BF70470CED00E0C0
:103CA0000000FA0570B504460D460CB9012070BD40
:103CB0005848006800F00700A84209D255490D7025
:103CC0000846006800F00700A84201D00120EEE796
:103CD000207800F0020002281DD1207800F00400B6
:103CE000042805D14C48006840F4E0504A49086077
:103CF000207800F00800082805D14748006840F403
:103D00006040454908604448006820F0F000A16820
:103D1000084341490860207800F00100A8B36068BA
:103D2000012807D13C4808380068C0F34040B8B9C2
:103D30000120BCE76068022802D06068032807D130
:103D4000354808380068C0F3406048B90120AEE744
:103D5000314808380068C0F3400008B90120A6E7E0
:103D60002D48006820F00300616808432A49086074
:103D7000FFF7B8FE064609E0FFF7B4FE801B41F2EC
:103D80008831884202D9032091E707E02248006881
:103D900000F00C006168B0EB810FEDD11D480068A8
:103DA00000F00700A84209D91A490D7008460068BA
:103DB00000F00700A84201D0012078E7207800F049
:103DC0000400042807D11448006820F4E050E1689A
:103DD000084311490860207800F00800082808D13D
:103DE0000D48006820F46040216940EAC1000A499A
:103DF000086000F03FF808490968C1F30311074A59
:103E0000515CC8400649086006480068FFF79AFE02
:103E100000204CE7003C024008380240B4BB0008D8
:103E20005C0000205400002001480068704700003A
:103E30005C00002000B5FFF7F7FF04490968C1F3F3
:103E40008221034A515CC84000BD0000083802408E
:103E5000C4BB000800B5FFF7E7FF04490968C1F3D8
:103E60004231034A515CC84000BD0000083802409E
:103E7000C4BB00082DE9F047002400250026A14618
:103E80002548006800F00C0020B1042805D008285F
:103E90003AD105E0DFF8849039E0DFF8849036E02D
:103EA0001D48001F006800F03F041B48001F006809
:103EB00000F4800078B11A481749091F0968C1F356
:103EC0008811A0FB01700146224600233846FCF70A
:103ED00051FA05460EE011480F49091F0968C1F360
:103EE0008811A0FB01700146224600233846FCF7EA
:103EF00041FA05460848001F0068C0F30140401C15
:103F00004600B5FBF6F902E0DFF8109000BF00BFF5
:103F10004846BDE8F0870000083802400024F4005D
:103F200000127A00F8B504460CB90120F8BD2078DB
:103F300000F00100002874D0F948006800F00C007F
:103F400004280DD0F648006800F00C00082813D1B2
:103F5000F348001F006800F48000B0F5800F0BD11B
:103F6000EF4808380068C0F34040002859D0606826
:103F7000002856D10120D9E700BF6068B0F5803F26
:103F800008D1E7480838006840F48030E44908392F
:103F900008601EE06068B0F5A02F0DD1E048083839
:103FA000006840F48020DE4908390860084600684F
:103FB00040F4803008600CE0D9480838006820F4EC
:103FC0008030D749083908600846006820F480200E
:103FD000086000BF606890B1FFF784FD054606E009
:103FE000FFF780FD401B642801D903209EE7CC48E1
:103FF00008380068C0F340400028F1D011E0FFF716
:1040000071FD054606E0FFF76DFD401B642801D9F0
:1040100003208BE7C24808380068C0F340400028FE
:10402000F1D1207800F0020002285FD1BC4800687E
:1040300000F00C0058B1BA48006800F00C000828E5
:104040001CD1B748001F006800F48000B0B9B44824
:1040500008380068C0F3400020B1E068012801D0B2
:10406000012063E7AE480838006820F0F8002169B5
:1040700040EAC100AA490839086037E0E06800B3A7
:104080000120A8490860FFF72DFD054606E0FFF76F
:1040900029FD401B022801D9032047E7A048083822
:1040A0000068C0F340000028F1D09D48083800683F
:1040B00020F0F800216940EAC100994908390860F8
:1040C00014E0002097490860FFF70CFD054606E064
:1040D000FFF708FD401B022801D9032026E790487E
:1040E00008380068C0F340000028F1D1207800F0C3
:1040F000080008282CD16069A8B101208A4908600D
:10410000FFF7F0FC054606E0FFF7ECFC401B022839
:1041100001D903200AE782486C300068C0F34000F0
:104120000028F1D014E000207F490860FFF7DAFC96
:10413000054606E0FFF7D6FC401B022801D9032004
:10414000F4E677486C300068C0F340000028F1D1F5
:10415000207800F00400042870D10027704838301F
:10416000006800F0805090B900BF002000906C48BB
:104170003830006840F0805069493831086008469E
:10418000006800F08050009000BF00BF0127674822
:10419000006800F48070B0B96448006840F4807032
:1041A00062490860FFF79EFC054606E0FFF79AFCAF
:1041B000401B022801D90320B8E65C48006800F4DF
:1041C00080700028F2D000BFA068012808D15448B0
:1041D0006830006840F001005149683108601DE016
:1041E000A06805280DD14E486830006840F00400F2
:1041F0004B49683108600846006840F001000860DB
:104200000CE047486830006820F0010044496831FC
:1042100008600846006820F00400086000BFA0683D
:10422000A8B1FFF75FFC054609E0FFF75BFC401B08
:1042300041F28831884202D9032077E626E03848E7
:1042400068300068C0F340000028EED013E0FFF7AC
:1042500049FC054608E0FFF745FC401B41F2883168
:10426000884201D9032061E62D4868300068C0F318
:1042700040000028EFD1012F07D1294838300068CD
:1042800020F0805026493831086000BFA06900281E
:1042900045D02348006800F00C0008285DD0A069D4
:1042A000022845D100201F490866FFF71BFC054680
:1042B00006E0FFF717FC401B022801D9032035E672
:1042C000174808380068C0F340600028F1D1D4E9ED
:1042D00007010843616A40EA81110122A06AC2EB2A
:1042E000500041EA00412C20005D41EA00600C4989
:1042F000091F086001200B490866FFF7F3FB05461C
:1043000006E0FFF7EFFB401B022801D903200DE672
:10431000034808380068C0F340600028F1D049E045
:104320000838024000004742800E474200700040BB
:10433000002021490866FFF7D5FB054606E0FFF798
:10434000D1FB401B022801D90320EFE51B48006880
:10435000C0F340600028F2D12CE0A069012800D110
:10436000E4E51648001D0668A069012820D006F47F
:104370008001E06981421BD106F03F01206A814241
:1043800016D147F6C0703040616AB0EB811F0FD183
:1043900006F440310122A06AC2EB5000B1EB004F9D
:1043A00006D106F070612C20005DB1EB006F01D0EA
:1043B0000120BBE50020B9E500004742003802407B
:1043C00070B504460E4615460CB9012070BD94F830
:1043D000490028B9002084F84800204600F01FF862
:1043E00004F108012068FEF7A3FD3146A2682068A9
:1043F000FEF7DAFD2946236BD4E90102FEF776FDCC
:10440000A168206850F8210040F00100A2682168EE
:1044100041F82200012084F849000020D6E710B5B9
:104420000446FFF7CDF910BD70B504462546681E59
:10443000B0F1807F01D301200FE0681E4FF0E02132
:1044400048610F214FF0FF3005F054FC00204FF081
:10445000E021886107200861002070BD7047704727
:1044600030B502460B4600BF92F83C00012801D14E
:10447000022030BD012082F83C0000BF022082F8FB
:104480003D00106844681068816824F07004186862
:10449000044310684460184D1068A8421BD010688F
:1044A000B0F1804F17D0154D1068A84213D0144DAD
:1044B0001068A8420FD0134D1068A8420BD0124DBF
:1044C0001068A84207D0114D1068A84203D0104DC3
:1044D0001068A84205D121F0800158680143106896
:1044E0008160012082F83D0000BF002082F83C007E
:1044F00000BF00BFBDE70000000001400004004015
:1045000000080040000C0040000401400040014051
:104510000018004010B504460CB9012010BD94F8F5
:104520003D0028B9002084F83C00204600F026F821
:10453000022084F83D00211D206804F0D7FD0120F1
:1045400084F8460000BF84F83E0001213F20015559
:10455000402001554120015500BF00BF012084F8D3
:10456000420043200155442001554520015500BF1C
:10457000012084F83D000020D0E7000038B5044653
:104580002068B0F1804F18D100BF00200090414852
:10459000006840F001003F4908600846006800F0EC
:1045A0000100009000BF00BF002203211C20FFF784
:1045B00027FB1C20FFF710FB6AE037492068884280
:1045C00018D100BF002000903248006840F002007F
:1045D000304908600846006800F00200009000BF03
:1045E00000BF002201211D20FFF70AFB1D20FFF75D
:1045F000F3FA4DE029492068884218D100BF002015
:1046000000902448006840F00400224908600846F1
:10461000006800F00400009000BF00BF00220521E8
:104620001E20FFF7EDFA1E20FFF7D6FA30E01C49F6
:104630002068884218D100BF00200090154800680B
:1046400040F00800134908600846006800F00800C0
:10465000009000BF00BF002204213220FFF7D0FAF3
:104660003220FFF7B9FA13E00E49206888420FD1D3
:1046700000BF002000900748006840F01000054986
:1046800008600846006800F01000009000BF00BFFE
:1046900038BD0000403802400004004000080040DF
:1046A000000C004000100040014691F83D00012838
:1046B00001D001207047022081F83D000868C068E1
:1046C00040F001000B68D8601A4B086898421BD074
:1046D0000868B0F1804F17D0174B0868984213D084
:1046E000164B086898420FD0154B086898420BD0BB
:1046F000144B0868984207D0134B0868984203D0BF
:10470000124B086898420CD10868806800F00702D4
:10471000062A0CD00868006840F001000B68186099
:1047200005E00868006840F001000B681860002090
:10473000C0E7000000000140000400400008004005
:10474000000C0040000401400040014000180040FF
:104750002DE9F04104460D46002700BF94F83C00C7
:10476000012802D10220BDE8F081012084F83C003C
:1047700000BF022084F83D002068866826F0770696
:1047800026F47F46206886602868502833D00CDCE9
:10479000202850D004DC00284BD0102851D149E00B
:1047A000302849D040284CD139E060282DD07028DD
:1047B00007D0B0F5805F03D0B0F5005F41D10DE0C8
:1047C00041E0D5E902136A68206804F003FD20681F
:1047D000866846F077062068866034E0D5E90213E3
:1047E0006A68206804F0F6FC2068806840F4804025
:1047F0002168886027E0EA686968206804F0FEFCA8
:104800005021206804F0F1FC1DE0EA686968206826
:1048100004F007FD6021206804F0E7FC13E0EA687B
:104820006968206804F0EAFC4021206804F0DDFC9F
:1048300009E000BF00BF00BF2968206804F0D5FC74
:1048400001E0012700BF00BF012084F83D0000BF48
:10485000002084F83C0000BF384684E7704770B5FC
:1048600004462068C5682068066906F00200022830
:1048700019D105F00200022815D1401F21680861F6
:10488000012020772068806900F0030018B12046DD
:10489000FFF7E4FF05E0204600F097F8204600F01F
:1048A00095F80020207706F00400042819D105F0BF
:1048B0000400042815D1C043216808610220207734
:1048C0002068806900F4407018B12046FFF7C6FFE9
:1048D00005E0204600F079F8204600F077F8002047
:1048E000207706F00800082819D105F008000828EC
:1048F00015D1C04321680861042020772068C06971
:1049000000F0030018B12046FFF7A8FF05E020469D
:1049100000F05BF8204600F059F80020207706F000
:104920001000102819D105F01000102815D1C0432F
:1049300021680861082020772068C06900F4407071
:1049400018B12046FFF78AFF05E0204600F03DF849
:10495000204600F03BF80020207706F0010048B127
:1049600005F0010030B16FF00100216808612046B8
:1049700000F02EF806F08000802809D105F08000B4
:10498000802805D1C043216808612046FFF766FDF5
:1049900006F04000402809D105F04000402805D12C
:1049A000C04321680861204600F02EF806F0200080
:1049B000202809D105F02000202805D1C043216816
:1049C00008612046FFF74BFD70BD7047704700003F
:1049D00010B504460948844202D1FEF7F3F80CE012
:1049E0000748844202D105F0A3F906E00548844255
:1049F00002D105F0FDFA00E000BF10BD88100020D4
:104A000040100020D01000207047F8B504460E4634
:104A1000174694F8420020282ED106B10FB9012084
:104A2000F8BD01202063002060633A4631462046ED
:104A300004F0CAFE0546EDB9206B012819D100BF6C
:104A40000020009020680068009020684068009076
:104A500000BF00BF00BF00BF21680C3151E8001F3C
:104A600041F0100021680C3141E80002002AF3D126
:104A700000E001252846D3E70220D1E770B50546BE
:104A80000E46002439E0204850F824000068A8426F
:104A900031D11D4850F82400D0F8080160B11A49FE
:104AA00051F82410D1F808018047174951F8241013
:104AB000881D3146FBF70DFE134B53F824309A88BE
:104AC000114B53F82430991D0F4B53F824301868BC
:104AD000FFF79BFF0C4850F824000068C06B00688B
:104AE000006820F00800084951F824100968C96BD3
:104AF0000968086070BD601CC4B204480078844234
:104B0000C1DB00BFF6E700006809002000000020BC
:104B100070B50546002420E0134850F824000068D2
:104B2000A84218D1104B53F824309A880E4B53F8F2
:104B30002430991D0C4B53F824301868FFF765FF9B
:104B4000094A52F824209188074A52F82420901DDF
:104B5000FBF7BFFD70BD601CC4B2044800788442FE
:104B6000DADB00BFF6E70000680900200000002043
:104B70002DE9F84F0446206805682068C66820685B
:104B800047694FF00009CA4605F00F09B9F1000F57
:104B90000AD105F0200038B106F0200020B12046EF
:104BA00004F07DFCBDE8F88FB9F1000F7CD007F070
:104BB000010018B906F49070002875D005F00100C6
:104BC00030B106F4807018B1606C40F00100606490
:104BD00005F0040030B107F0010018B1606C40F03E
:104BE0000200606405F0020030B107F0010018B166
:104BF000606C40F00400606405F0080048B106F005
:104C0000200010B907F0010018B1606C40F00800F6
:104C10006064606C002846D005F0200028B106F0E2
:104C2000200010B1204604F03AFC20684069C0F32F
:104C3000801A606C00F0080010B9BAF1000F2DD096
:104C4000204604F0D3FB2068406900F04000402873
:104C500020D100BF00BF2168143151E8001F21F0AE
:104C600040002168143141E80002002AF3D100BF5E
:104C7000E06B50B17748E16B0865E06BFEF798FB9D
:104C800088B1E06B016D88470DE02046FFF740FFDB
:104C900009E009E02046FFF73BFF04E02046FFF76C
:104CA00037FF002060647DE7206B012878D105F094
:104CB0001000002874D006F010000028FAD000BFC1
:104CC00000200090206800680090206840680090F4
:104CD00000BF00BF2068406900F04000402860D15C
:104CE000E06B006840681FFA80F8B8F1000F56D0FA
:104CF000A08D404553DDA4F82E80E06BC069B0F56F
:104D0000807F43D000BF00BF21680C3151E8001FF5
:104D100021F4807021680C3141E80002002AF3D1AF
:104D200000BF00BF00BF2168143151E8001F21F00F
:104D300001002168143141E80002002AF3D100BFCC
:104D400000BF00BF2168143151E8001F21F040006E
:104D50002168143141E80002002AF3D100BF20206D
:104D600084F842000020206300BF00BF21680C319E
:104D700051E8001F21F0100021680C3141E80002C9
:104D8000002AF3D100BFE06BFEF7BCFA022060639B
:104D9000A08DE28D801A81B22046FFF76FFE01E7F9
:104DA00042E0A08DE18D401A1FFA80F8E08DD0B36B
:104DB000B8F1000F37D000BF00BF21680C3151E8B7
:104DC000001F21F4907021680C3141E80002002A94
:104DD000F3D100BF00BF00BF2168143151E8001FAC
:104DE00021F001002168143141E80002002AF3D1CA
:104DF00000BF202084F842000020206300BF00BFD5
:104E000021680C3151E8001F21F0100021680C319D
:104E100041E80002002AF3D100BF0220606341464E
:104E20002046FFF72BFEBDE605F0800030B106F00E
:104E3000800018B1204604F02BFDB3E605F04000D9
:104E400030B106F0400018B1204604F005FBA9E699
:104E500000BFA7E64B92000810B504460CB901202C
:104E600010BDA06900B100E000BF94F8410028B96E
:104E7000002084F84000204600F02AF8242084F81E
:104E800041002068C06820F400502168C8602046B6
:104E900004F084FB2068006920F4904021680861D8
:104EA0002068406920F02A00216848612068C068B5
:104EB00040F400502168C86000206064202084F81D
:104EC000410084F842000020606300BFC8E7000092
:104ED00010B586B00446142101A8FBF71CFCD34989
:104EE0002068884230D100BF00200090D048006880
:104EF00040F40020CE4908600846006800F4002015
:104F0000009000BF00BF00BF00200090C8481038CC
:104F1000006840F00100C649103908600846006882
:104F200000F00100009000BF00BF032001900220AC
:104F3000029000200390032004900820059001A90E
:104F4000BC48FEF7C5FC6EE1BB49206888427ED1B3
:104F500000BF00200090B648001D006840F010001F
:104F6000B349091D08600846006800F01000009071
:104F700000BF00BF00BF00200090AD48103800689F
:104F800040F00100AA49103908600846006800F0A6
:104F90000100009000BF00BF4FF4C06001900220EC
:104FA000029000200390032004900720059001A99F
:104FB000A048FEF78DFCA148A14908604FF00060B1
:104FC000486000219E488160C1604FF480610161AA
:104FD000002141618161C1614FF4403101620021D2
:104FE0004162FEF719FB08B1FDF77CFF00BF944852
:104FF000E063846300BF91483030924908604FF00D
:105000000060486040218F4881600021C1604FF4FA
:1050100080610161002141618161C1614FF44031D2
:10502000016200214162FEF7F7FA08B1FDF75AFF6D
:1050300000BF8448A063846300BF0022114625207E
:10504000FEF7DEFD2520FEF7C7FDECE0FFE77E4919
:105050002068884230D100BF00200090744800686A
:1050600040F40030724908600846006800F40030DF
:10507000009000BF00BF00BF002000906C481038B7
:10508000006840F001006A4910390860084600686D
:1050900000F00100009000BF00BF0C200190022032
:1050A000029000200390032004900720059001A99E
:1050B0006048FEF70DFCB6E064492068884231D1B3
:1050C00000BF002000905A48006840F480205849F2
:1050D00008600846006800F48020009000BF00BF10
:1050E00000BF0020009052481038006840F00200D5
:1050F0004F49103908600846006800F0020000902F
:1051000000BF00BF4FF440600190022002900020D9
:105110000390032004900720059001A94C48FEF756
:10512000D7FB80E04B49206888427CD100BF00203B
:1051300000903F48001D006840F020003C49091DD8
:1051400008600846006800F02000009000BF00BF23
:1051500000BF0020009036481038006840F004007E
:105160003349103908600846006800F004000090D8
:1051700000BF00BFC02001900220029000200390D9
:10518000032004900820059001A93348FEF7A0FBF6
:105190002A484838314908604FF0206048600021B3
:1051A0002E488160C1604FF480610161002141613E
:1051B0008161C1614FF44031016200214162FEF71B
:1051C0002BFA08B1FDF78EFE00BF2448E06384632C
:1051D00000BF1A481830224908604FF0206048602C
:1051E00040211F4881600021C1604FF4806101614E
:1051F000002141618161C1614FF4403101620021B0
:105200004162FEF709FA08B1FDF76CFE00BF1448D1
:10521000A063846300BF002211464720FEF7F0FC24
:105220004720FEF7D9FC06B010BD0000004C00403E
:1052300040380240000002400010014088640240F3
:10524000101300207013002000440040004800406C
:10525000000402400014014000080240D013002066
:105260003014002070B504460D46164694F84200EE
:1052700020280BD105B10EB9012070BD002020639C
:1052800032462946204604F09FFAF6E70220F4E76A
:1052900070477047F7B50446154694F8410020283A
:1052A00036D1019800B10DB90120FEBD01982062F0
:1052B000A584E58400206064212084F8410015481D
:1052C000A16BC8631448A16B08641448A16BC8643F
:1052D0000020A16B086501AE23681A1D31682B46BA
:1052E000A06BFEF70FFA6FF040002168086000BF66
:1052F00000BF2168143151E8001F41F0800021688F
:10530000143141E80002002AF3D100BF0020CCE7AD
:105310000220CAE787930008DF9300085F92000825
:1053200010B504460948844205D100224FF480712B
:105330000748FEF7D1FB0748844205D100224FF40D
:1053400000710348FEF7C8FB10BD0000F0110020FB
:1053500000080240C81200207047000010B5002469
:105360004FF0D84014490860002000BF1249096876
:10537000B1F8400100BFC1B20829F7DBC1B20D2965
:10538000F4DC0D480068C0F80442062000280DDB5C
:1053900000BF00BF00F01F020121914042099200AE
:1053A00002F1E022C2F8001100BF00BF00BF0348B5
:1053B000FFF77AF9002010BD60040020881000205B
:1053C0007047000000B51548007830BB14480068ED
:1053D000F0B113480068FDF735FE11490860114827
:1053E000406820B10F4840680968884203D90C48DA
:1053F00000680C4948600C48406828B10A48406879
:1054000007490968884203D9054800680649486089
:105410000020FDF717FE0249086000BDF4030020DC
:10542000D4030020181500205C15002000BFFEE703
:1054300038B53D48008840103C49096831F81050A3
:1054400000BF3B48007801281AD10A20FAF73CFF38
:105450000446A4B1002020606060208104202080E8
:10546000A08820F47060A0800120E08007212181C5
:105470000021204600F0C4F92046FAF754FF00BF8F
:10548000A81D85B22B48007810B92B48007818B1B8
:1054900001202A49087044E0002028490870284863
:1054A0000088854201DD2648058825480088FAF7EE
:1054B0000BFF244908600846006818B901201F49FD
:1054C000087038BD184800884010184A126802EB6E
:1054D00040012A461B480068FBF784F80020009032
:1054E00012480068B0F804080090BDF80000009071
:1054F000BDF8000000F4006078B100201249088077
:10550000094800880E4909880844801E4010074950
:10551000096831F810000C4908800A48006800F05A
:10552000B9F900BFCDE7000044040020600400206A
:105530005C0400203D0400204A0400203C040020BC
:10554000420400204C0400202C040020F8B504463E
:105550002E48007800F00F00012801D1F020F8BD9E
:105560002B48007808B9F020F9E72A48007808B1FC
:105570000720F4E72588284909884910274A126836
:1055800002EB4100AA1D2146FBF72CF800200090F9
:1055900022480068B0F80C080090BDF800000090A8
:1055A000BDF8000000F4006018BB1D480188A81D6C
:1055B000081A86B200201B490880022E0BDAA81DAB
:1055C00000EBD0714F10C6F1020204EB4701154801
:1055D000FBF708F800BF134801880F480088104AFD
:1055E00012881044801E40100C4A126822F81010D5
:1055F00000BF0D48006810B100200C4908600A483F
:1056000004600120034908700020A8E7220400205C
:105610003E0400203D0400204604002060040020D9
:10562000400400202C040020500400204C040020E2
:1056300024201D49088080201C49088040011C4905
:1056400008801C49088000201B49088048800A20E7
:10565000888000201949088048800A20888000201E
:10566000174908601749086017490860174908601A
:105670001749087000BF17490968B1F80E0820F4EF
:10568000007014490968A1F80E080020124908703A
:1056900012490870124908701249087012490870BE
:1056A00012490870704700004204002040040020A6
:1056B0004404002046040020E4140020B01400201C
:1056C0004C04002054040020500400205804002002
:1056D0003F040020600400203E0400203D04002020
:1056E0003C0400204A040020480400204904002013
:1056F00010B50020214908702148006848B12148B0
:10570000006830B91E480068FAF70DFE00201C49F9
:1057100008601D4800681A4908601A48006838B1D6
:1057200018480068FFF712FF00201649086008E0DB
:105730001648FDF75AFC044614B12046FFF706FF51
:1057400000BF13480078C0B11148007800F0020093
:1057500098B100240E48007820F002000C4908702F
:105760000C480068FCF7F2FC04462CB108480078AD
:1057700040F002000649087000BF10BD3D04002043
:10578000540400205804002050040020B0140020CD
:105790004A0400204C04002010B514480068D8B119
:1057A000124804681248007878B11248006860B95D
:1057B0000120FDF7CFF9104800680E49086001206C
:1057C000FDF772FB00200A4908702046FFF7BEFE75
:1057D00000200649086000BF0848007808B9012089
:1057E00000E000200549087010BD000054040020AE
:1057F0003D04002058040020500400203F040020F5
:1058000070B504460D4600261E48007800F00F00D3
:10581000012801D1F02070BDA08820F47040A08044
:105820001948007800F0070010B9012016490870E7
:10583000A0881549097840EA0130A0802046FFF78A
:1058400085FE70B11149204602F013F8064616B1E4
:1058500045F080050AE00C480078401C0A490870B1
:1058600004E009480078401C0749087005F08000F2
:1058700030B105F07F0006490978084304490870F3
:105880003046C8E72204002049040020B01400205C
:105890004A0400202DE9F04104460026A0880513A3
:1058A0002788802F0EDD04202080A08820F47060DF
:1058B000A0800120E0800821218100212046FFF7FF
:1058C0009FFF1EE01DB110480078854215D00E489C
:1058D00005700E49204601F0CCFF06468EB104202B
:1058E0002080A08820F47060A0800120E0802681C4
:1058F00000212046FFF784FF03E02046FAF713FD5E
:105900000024BDE8F081000048040020E4140020D9
:1059100070B5002400BF00250F48FDF766FB044664
:105920001CB1204600F04CFC054665B104202080E7
:10593000A08820F47060A0800120E08025810021F3
:105940002046FFF75DFF002CE5D10448007808B140
:10595000FFF76EFD70BD0000E41400203C04002041
:1059600070B500250020FDF757FB044660882949E3
:1059700008802088284908800120FDF74DFB044657
:1059800060882649088020882549088022480088A8
:105990002049098808442249098888420ADD2048AC
:1059A00000881E49098808441B490988884201DD8E
:1059B000162070BD0020FDF777FA0120FDF774FA7C
:1059C00014480088FAF780FC164908600846006809
:1059D00098B90120144908700A20FAF775FC11499A
:1059E00008600846006800B902250E480068FAF70A
:1059F0009AFC00200B49086009E000200A49087061
:105A000008480068FAF78FFC00200649086028461D
:105A1000CFE700004204002044040020400400209E
:105A2000460400204C0400205C04002010B5002037
:105A300033490870FDF78EF80120FDF78BF83148E7
:105A4000006818B12F480068FAF76DFC2E4800680E
:105A500048B12D4800682B490968884203D02A487C
:105A60000068FAF760FC2948006878B127480068A8
:105A700024490968884209D02448006822490968F5
:105A8000884203D021480068FAF74DFC02F058FB29
:105A900000201F4908601B4908601C4908601A491A
:105AA00008601C49087000BF1B490968B1F80E085E
:105AB00020F4007018490968A1F80E080020174961
:105AC0000870174908701749087017490870174976
:105AD000087000BF1648FDF788FA044614B1204646
