:020000040800F2
:10000000986D00209D010008B16700081555000893
:10001000AD6700089512000889BB000800000000C9
:10002000000000000000000000000000319A0008FD
:1000300051230008000000008189000851B2000827
:10004000B7010008B7010008B7010008B7010008B0
:10005000B7010008B7010008512800085D28000812
:10006000B701000869280008B7010008B7010008B7
:10007000B7010008B7010008B7010008B701000880
:10008000B7010008B7010008B7010008B701000870
:10009000B7010008B7010008B7010008B701000860
:1000A000B7010008B7010008B7010008B701000850
:1000B000B70100082DB30008B7010008B701000818
:1000C000B7010008B7010008B7010008B701000830
:1000D000B701000811BB0008B7010008B70100080C
:1000E000B7010008B7010008B7010008B701000810
:1000F000B7010008B7010008B7010008B701000800
:10010000B7010008B7010008B7010008B7010008EF
:10011000B7010008B7010008B7010008B7010008DF
:10012000B7010008B7010008B7010008B7010008CF
:10013000B7010008B7010008B7010008B7010008BF
:10014000B7010008B7010008B7010008B7010008AF
:10015000B7010008B7010008B701000821BB00087B
:10016000B7010008B7010008B7010008B70100088F
:10017000B7010008B7010008B7010008000000003F
:10018000B7010008B7010008DFF80CD000F094F8C0
:100190000048004771BF0008986D0020064880475E
:1001A00006480047FEE7FEE7FEE7FEE7FEE7FEE75C
:1001B000FEE7FEE7FEE7FEE719B300088901000845
:1001C0002DE9F05F0546002092469B46884606468C
:1001D000814640241BE0284641464746224600F01F
:1001E0005AF853465A46C01A914110D31146184640
:1001F000224600F041F82D1A67EB01084F462246CF
:100200000120002100F038F817EB00094E41201EB4
:10021000A4F10104DFDC484631462A464346BDE8E6
:10022000F09F40EA01039B0703D009E008C9121FB1
:1002300008C0042AFAD203E011F8013B00F8013BA0
:10024000521EF9D27047D2B201E000F8012B491ECC
:10025000FBD270470022F6E710B513460A46044663
:100260001946FFF7F0FF204610BD421C10F8011B95
:100270000029FBD1801A7047202A04DB203A00FABB
:1002800002F1002070479140C2F1200320FA03F3ED
:10029000194390407047202A04DB203A21FA02F0EB
:1002A0000021704721FA02F3D040C2F120029140B0
:1002B0000843194670470000064C074D06E0E06809
:1002C00040F0010394E8070098471034AC42F6D39D
:1002D000FFF75EFF5CE300087CE3000870B58C1854
:1002E00010F8015B15F0070301D110F8013B2A114A
:1002F00006D110F8012B03E010F8016B01F8016B37
:100300005B1EF9D12B0705D40023521E0DD401F832
:10031000013BFAE710F8013BCB1A921C03E013F8FB
:10032000015B01F8015B521EF9D5A142D8D3002030
:1003300070BD000080B58EB00A4603468DF83700C8
:10034000ADF834100020ADF832008DF8310040F2E5
:100350002C40C2F200004FF6FF71018040F682008F
:10036000C2F20000012101709DF83700C00600288C
:100370000CD5FFE701208DF8310040F60040C2F2B5
:100380000000017801F0EF0101701BE040F6004031
:10039000C2F200000078C006002809D5FFE79DF8EA
:1003A000370000F00F00012802D0FFE700F099BBF2
:1003B00040F60040C2F20000017801F00F01017028
:1003C000FFE7FFE79DF8370000F00F008DF83700DA
:1003D00040F60040C2F2000000788DF830009DF831
:1003E000300000018DF830009DF837009DF8301086
:1003F00008448DF830009DF83000014612280B911A
:1004000020D0FFE70B9822281CD0FFE70B98242868
:100410001ED0FFE70B98422814D0FFE70B98442822
:1004200029D0FFE70B98482825D0FFE70B988228B2
:1004300008D0FFE70B9884281DD0FFE70B98882889
:1004400019D022E0022001F023FBADF832001CE0BD
:1004500040F60C40C2F2000040F60E41C2F200012C
:1004600000F082FDADF83200BDF83200002801D066
:10047000FFE70AE0FFE740F60A40C2F2000000781A
:1004800001F006FBADF83200FFE7BDF832000028AE
:1004900040F0FE81FFE740F60240C2F2000000217A
:1004A00001809DF830001138014677280A9100F24A
:1004B000EA810A99DFE811F0AF0182007800E301D8
:1004C000E701E701E701E301E701E701E701E701F0
:1004D000E701E701E701E701A601B201E301CF006F
:1004E000E701E701E701E301E701E701E701E701D0
:1004F000E701E701E701E7017C00E301E701E30130
:10050000E701E701E701E301E701E701E701E701AF
:10051000E701E701E701E70190016E01E301B201A4
:10052000E701E701E7011301E701E701E701E7015F
:10053000E701E701E701E701E701E701E701E7017B
:10054000E701E701E701E701E701E701E701E7016B
:10055000E701E701E701E701E701E701E701E7015B
:10056000E701E701E701E701E701E701E701E7014B
:10057000E701E701E701E701E701E701E701E7013B
:10058000E701E701E701E701E701E701E701E7012B
:10059000E701E701E701E7017A015801E3014C01B6
:1005A000E701E701E701B2011320ADF832006EE187
:1005B0001320ADF8320000F065FE68E10BF0B8FAE8
:1005C00040F22A40C2F200000078002804D1FFE780
:1005D0005120ADF83200FFE7BDF83200002839D1D4
:1005E000FFE705F0B1FBADF83200BDF8320000289E
:1005F00017D1FFE740F68200C2F20000002101702F
:1006000000F00AFEADF83200BDF83200002807D134
:10061000FFE740F68D00C2F2000001210170FFE704
:10062000FFE7BDF83200002813D0FFE7BDF8320025
:10063000FF280ED0FFE740F68200C2F200000078EB
:10064000002803D1FFE700F0EDFDFFE705F01EFCF9
:10065000FFE7FFE71BE109F06FFEADF83200BDF8E0
:100660003200002822D1FFE740F68200C2F20000EB
:100670000021017040F64850C2F2000000F0C6FDB3
:10068000ADF83200BDF8320000280ED1FFE740F689
:100690004850C2F20000008809F0E6FD40F68600EE
:1006A000C2F2000001210170FFE7FFE7BDF8320050
:1006B000002813D0FFE7BDF83200FF280ED0FFE777
:1006C00040F68200C2F200000078002803D1FFE764
:1006D00000F0A6FDFFE70AF0B9FBFFE7D7E00AF05C
:1006E00073FBADF83200BDF83200002817D1FFE7E8
:1006F00040F68200C2F200000021017000F08EFD81
:10070000ADF83200BDF83200002807D1FFE740F60F
:100710008700C2F2000001210170FFE7FFE7BDF88A
:100720003200002813D0FFE7BDF83200FF280ED0BA
:10073000FFE740F68200C2F200000078002803D1F3
:10074000FFE700F071FDFFE70AF018FCFFE79EE00D
:1007500000F06AFD09900AF011FC40F68200C2F236
:1007600000000021017092E000F05EFDADF8320063
:100770000AF004FC40F68200C2F200000021017081
:10078000BDF83200002801D0FFE780E042208DF85C
:100790003000FFE700F044FD08900AF057FB40F6F8
:1007A0008200C2F200000021017070E000F03CFD08
:1007B000ADF832000AF0E2FB40F68200C2F200001F
:1007C00000210170BDF83200002801D0FFE75EE093
:1007D00041208DF83000FFE700F022FDADF8320037
:1007E0000AF034FB40F68200C2F2000000210170E2
:1007F000BDF83200002801D0FFE748E021208DF845
:100800003000FFE705F042FB00F00CFDADF83200D0
:1008100000F038FD3BE000F035FDFFE79DF83100CA
:10082000002805D0FFE79DF8300000F061FBFFE7EE
:1008300040F60040C2F20000007810F00C0F1AD011
:10084000FFE740F60E40C2F200000088012804DBFA
:10085000FFE7022002F00EF80CE040F60C40C2F276
:1008600000000088012804DBFFE7032002F002F803
:10087000FFE7FFE7FFE7FE20ADF8320007E01120B9
:10088000ADF8320003E01220ADF83200FFE73FE0A0
:1008900040F60040C2F200000078014602280791AD
:1008A00014D0FFE7079804280AD0FFE70798082824
:1008B0002DD1FFE700F0B8FC06900AF05FFBFFE7E0
:1008C00000F0AEFC05900AF0C1FAFFE7BDF8320077
:1008D000162814D1FFE705F0D9FA00F0A3FC002197
:1008E0000490084601F036FD0120039001F032FD2E
:1008F00040F60040C2F200000399017006E040F6A5
:100900000040C2F2000002210170FFE7FFE7FFE7AD
:10091000BDF83200FF2845D1FFE740F68800C2F25B
:100920000000012101709DF8300040F60241C2F242
:10093000000108800888A0F112010229029008D362
:10094000FFE7029824280CD0FFE70298482808D037
:100950000FE040F22C40C2F200004FF4FA61018037
:100960000EE040F22C40C2F2000042F22831018039
:1009700006E040F22C40C2F20000C8210180FFE7EF
:1009800040F22C40C2F20000B0F9001046F267625B
:10099000C6F2666251FB02F2930803EBD272891A27
:1009A00001809EE09DF8370040F60041C2F2000150
:1009B000097801F00F01884200F08480FFE7BDF85C
:1009C0003200002805D1FFE7BDF83400002834D0FC
:1009D000FFE79DF8370040F60041C2F200010978B8
:1009E00008430007002828D5FFE740F68700C2F239
:1009F00000000078002806D0FFE700F015FC019009
:100A00000AF0BCFAFFE740F60E40C2F20000008890
:100A1000012804DBFFE7022001F09CFC0CE040F61B
:100A20000C40C2F200000088012804DBFFE703202D
:100A300001F090FCFFE7FFE7FFE7BDF83200002878
:100A400018D0FFE740F60040C2F200000078082806
:100A500007D1FFE740F60040C2F200000421017018
:100A6000FFE740F60040C2F20000017841F01001BB
:100A7000017017E0BDF8340000280BD0FFE7BDF887
:100A80003400ADF832009DF8370040F010008DF8CA
:100A90003700FFE79DF8370040F60041C2F2000141
:100AA0000870FFE740F68800C2F2000000210170E4
:100AB00040F60040C2F200000078BDF8321009F0A4
:100AC000FBFB0DE040F68800C2F20000002101703F
:100AD00040F60040C2F20000007809F0EDFBFFE7AD
:100AE000FFE70EB080BD000080B588B040F68800FA
:100AF000C2F200000078002800F0F881FFE7002033
:100B0000ADF81E008DF81D00ADF81A0040F22C4023
:100B1000C2F20000B0F90000002840F0B980FFE701
:100B200040F60240C2F20000018809098DF81D104C
:100B30000088A0F112010229059008D3FFE705986B
:100B4000242826D0FFE70598482844D09FE040F6A7
:100B50008200C2F200000078002803D1FFE700F015
:100B600061FBFFE705F092F940F68B00C2F200004E
:100B70000078002808D0FFE740F65050C2F200008D
:100B80000088ADF81A0003E00120ADF81A00FFE775
:100B90007DE040F68200C2F200000078002803D118
:100BA000FFE700F03DFBFFE70AF050F940F68B004D
:100BB000C2F200000078002808D0FFE740F650504D
:100BC000C2F200000088ADF81A0003E00120ADF881
:100BD0001A00FFE75BE040F68400C2F200000078F4
:100BE000002826D0FFE740F68300C2F2000000781C
:100BF000002804D1FFE72D20ADF81A0018E040F6D8
:100C00008500C2F20000007800280CD1FFE740F612
:100C10000E40C2F200000088012804DBFFE71B2021
:100C2000ADF81A0003E01A20ADF81A00FFE7FFE75D
:100C300019E040F60E40C2F200000088012804DBF3
:100C4000FFE71B20ADF81A000CE008208DF81D000E
:100C50000020ADF81A0040F68700C2F20000012122
:100C60000170FFE7FFE7BDF81A0000280ED0FFE78C
:100C700040F68200C2F200000078002803D1FFE7AE
:100C800000F0D2FAFFE70AF079F9FFE7FFE70EE19B
:100C900040F60240C2F200000088A0F112010229D1
:100CA000049008D3FFE70498242839D0FFE704987C
:100CB000482868D0FAE040F68200C2F200000078CE
:100CC00000282CD0FFE740F68200C2F2000000218D
:100CD000017000F0A1FAADF81E00BDF81E0000285A
:100CE00010D1FFE740F68D00C2F200000121017033
:100CF00040F60240C2F20000008800F00F008DF8BC
:100D00001D000BE0BDF81E00FF2806D0FFE700F035
:100D100089FA039005F0BAF8FFE7FFE7FFE7C5E0BF
:100D200040F68200C2F20000007800282AD0FFE7D7
:100D300040F68200C2F200000021017040F64850E7
:100D4000C2F2000000F062FAADF81E00BDF81E000D
:100D500000280AD1FFE740F68600C2F20000012118
:100D6000017004208DF81D000BE0BDF81E00FF2867
:100D700006D0FFE700F054FA02900AF067F8FFE7A8
:100D8000FFE7FFE792E040F68200C2F20000007841
:100D9000002800F08A80FFE740F68400C2F20000DD
:100DA0000078002849D0FFE740F60E30C2F200007C
:100DB000B0F9000001283FDBFFE740F60E30C2F239
:100DC0000000B0F9000040F60C31C2F20001B1F9A8
:100DD0000010884230DCFFE740F60E30C2F200001F
:100DE0000021018040F60C30C2F20000018040F684
:100DF0008200C2F20000017000F010FAADF81E008F
:100E0000BDF81E0000280AD1FFE740F68700C2F2B5
:100E100000000121017008208DF81D000BE0BDF8D5
:100E20001E00FF2806D0FFE700F0FEF901900AF04F
:100E3000A5F8FFE7FFE7FFE736E040F60E40C2F215
:100E400000000088002808D0FFE740F68500C2F2C5
:100E500000000078002826D0FFE740F68200C2F2AA
:100E600000000021017000F0D9F9ADF81E00BDF8B6
:100E70001E0000280AD1FFE740F68700C2F20000FA
:100E80000121017008208DF81D000BE0BDF81E0047
:100E9000FF2806D0FFE700F0C7F900900AF06EF8CF
:100EA000FFE7FFE7FFE7FFE7FFE7FFE7FFE79DF863
:100EB0001D00002819D0FFE740F68800C2F20000AC
:100EC00000210170BDF81A00002807D0FFE79DF847
:100ED0001D0040F010008DF81D00FFE79DF81D007B
:100EE000BDF81A1009F0E8F9FFE7FFE708B080BD88
:100EF00081B00146ADF8020001B0704780B540F204
:100F00002830C2F20000817841F0010181708178BF
:100F100001F0FD018170817841F0040181708178D8
:100F200001F0F7018170817841F01001817040F289
:100F30007830C2F200008078C007002809D1FFE7AE
:100F400040F20040C4F202000221002202F0BCFA8A
:100F500008E040F20040C4F202000221012202F047
:100F6000B3FAFFE780BD000080B58CB00B900A910A
:100F70000020ADF82600ADF82400ADF82200ADF851
:100F800020000790ADF81A000590ADF81200ADF8FA
:100F90002000FFE7BDF8200040F20841C2F2000146
:100FA000098888424FDAFFE7BDF8200040F2084187
:100FB000C2F2000101EB4000408805F0C9FE079035
:100FC0000798002831D0FFE7079880690088ADF8BE
:100FD0001A000020ADF81200FFE7BDF81200BDF8BE
:100FE0001A10884220DAFFE707988169BDF81220BD
:100FF0000132D2B203901046039A0291114605F0D5
:1010000047FD0009029901EB400005900598007822
:10101000BDF822100844ADF82200FFE7BDF8120029
:101020000130ADF81200D8E706E00020ADF822004C
:101030002520ADF8260006E0FFE7BDF820000130CE
:10104000ADF82000A6E7BDF822000730C008ADF8D3
:101050002200BDF8260000285ED1FFE70020ADF891
:101060002000FFE7BDF8200040F21241C2F200016B
:10107000098888424FDAFFE7BDF8200040F21241AC
:10108000C2F2000101EB4000408805F061FE0790CC
:101090000798002831D0FFE7079880690088ADF8ED
:1010A0001A000020ADF81200FFE7BDF81200BDF8ED
:1010B0001A10884220DAFFE707988169BDF81220EC
:1010C0000132D2B201901046019A0091114605F00A
:1010D000DFFC0009009901EB4000059005980078BD
:1010E000BDF824100844ADF82400FFE7BDF8120055
:1010F0000130ADF81200D8E706E00020ADF824007A
:101100002420ADF8260006E0FFE7BDF820000130FE
:10111000ADF82000A6E7FFE7BDF824000730C008BF
:10112000ADF82400BDF824000B990880BDF822001A
:101130000A990880BDF826000CB080BD80B584B047
:1011400003900398029000208DF80700FFE79DF8B8
:10115000070040F21241C2F20001098888421EDAFB
:10116000FFE79DF8070040F21241C2F2000101EBD7
:1011700040004088B0F5D05F0AD1FFE7029840F206
:101180002831C2F2000102311222FFF74AF8FFE7CC
:10119000FFE79DF8070001308DF80700D7E704B09E
:1011A00080BD000080B584B00390039802900020B9
:1011B0008DF80700FFE79DF8070040F20841C2F2F2
:1011C0000001098888421EDAFFE79DF8070040F217
:1011D0000841C2F2000101EB40004088B0F5B05F69
:1011E0000AD1FFE7029940F27830C2F200000230E3
:1011F0001222FFF716F8FFE7FFE79DF8070001301E
:101200008DF80700D7E704B080BD000081B00090E2
:10121000002001B070470000002070470020704798
:1012200000207047002070470020704780B584B0D0
:1012300002900020ADF8060002980090FFE70098A9
:1012400000894FF6FF71884213D0FFE7009800F045
:1012500023F8ADF80600BDF80600002805D0FFE72A
:10126000BDF80600ADF80E0008E0009828300090A8
:10127000E5E7BDF80600ADF80E00FFE7BDF80E008B
:1012800004B080BD40F69900C2F200000021017058
:1012900070470000FFE7FEE783B001900198002847
:1012A00000F08480FFE740F63800C2F200000068DA
:1012B00000280ED1FFE7019840F63801C2F2000184
:1012C000086008680022426008680260ADF80A20E1
:1012D00070E040F63800C2F2000000680089019911
:1012E0000989884212DDFFE701980021016040F67C
:1012F0003800C2F200000268019B5A60019A03683C
:101300001A60019A0260ADF80A1053E040F6380006
:10131000C2F2000000680090FFE70098002842D069
:10132000FFE70098008901990989884204D1FFE705
:101330000120ADF80A003DE0009800890199098973
:10134000884218DDFFE7009800680199086000985E
:101350000199486000980068002805D0FFE70198CF
:10136000009909684860FFE701980099086000202B
:10137000ADF80A001EE00098406800280CD1FFE795
:10138000019800994860009801990860019800212F
:101390004160ADF80A100DE0009840680090FFE74A
:1013A000FFE7FFE7B9E7FFE7FFE7FFE70120ADF859
:1013B0000A00FFE7BDF80A0003B0704780B582B0AD
:1013C00040F63800C2F20000006801900020ADF83D
:1013D0000200FFE7019800280CD0FFE70198008980
:1013E000ADF80200019840680190BDF8020000F0DD
:1013F000D5F9EFE740F63800C2F2000000210160A5
:1014000002B080BD80B584B0029040F62440C2F2A4
:1014100000000068002810D0FFE740F62440C2F228
:10142000000001680022019008461146009204F075
:101430005FFB0099019A11601DE080200AF0F4FE24
:1014400002900298002804D1FFE707208DF80F00D2
:1014500015E0029840F67001C2F200018A8982818B
:101460000A684B688968816043600260029807F0EF
:10147000B9FEFFE7FFE700208DF80F00FFE79DF8BA
:101480000F0004B080BD000040F63800C2F200003A
:101490000068704740F62440C2F20000002101605D
:1014A00040F61040C2F200000180704710B586B0CF
:1014B00000208DF8170040F63040C2F200000068AE
:1014C000002800F09980FFE740F63040C2F20000AB
:1014D000006840F65A51C2F20001098840F68C5269
:1014E000C2F20002127840F67453C2F200031B6885
:1014F00040F6404CC2F2000CDCF800C040F6980EFA
:10150000C2F2000E9EF800E06C46C4F800E00490C1
:10151000084611461A466346DDF810C0E0478DF8CC
:1015200017009DF81700FF2865D0FFE740F68B50A5
:10153000C2F2000000780146012803911FD0FFE7A6
:101540000398022805D0FFE70398C11E02291ED385
:101550002CE040F63840C2F20000006800280DD0B0
:10156000FFE740F63840C2F20000016802900846EA
:101570000AF032FE002002990860FFE7FFE79DF8BD
:10158000170000210191019A08F094F80EE09DF8EF
:10159000170040F67451C2F20001096840F640425B
:1015A000C2F20002126808F085F8FFE740F68B509F
:1015B000C2F200000021017040F65A50C2F2000051
:1015C000018040F68C50C2F20000017040F6745069
:1015D000C2F20000016040F64040C2F2000001602B
:1015E00040F69800C2F20000017040F63040C2F2AE
:1015F00000000160FFE7FFE706B010BD80B582B0D4
:101600000020ADF8040040F63801C2F20001086085
:1016100040F24810C2F20000FFF708FEADF80400E7
:10162000BDF80400002805D0FFE7BDF80400ADF8C0
:1016300006000CE040F20800C2F20000FFF7F6FDE1
:10164000ADF80400BDF80400ADF80600FFE7BDF8F2
:10165000060002B080BD000080B582B040F60450A4
:10166000C2F200002021018000224280426044F248
:101670001F0383814AF22013C0F207030361426112
:10168000828302620285428580F8402040F6C04C89
:10169000C2F2000CACF80010ACF802204168CCF8A3
:1016A00004108089ACF80C00CCF81030CCF8142071
:1016B000ACF81C20CCF82020ACF82820ACF82A206C
:1016C0008CF8402040F69900C2F200000270FFF74B
:1016D00095FFADF80600BDF80600002803D0FFE72F
:1016E000FFF76CFEFFE740F68B50C2F200000021CE
:1016F000017040F69800C2F20000017040F65A50A6
:10170000C2F20000018040F68C50C2F2000001706D
:1017100040F67450C2F20000016040F64040C2F250
:101720000000016040F63040C2F20000016040F667
:101730003840C2F200000160009140F62840C2F239
:1017400000000068806800909DF8000000070028F5
:1017500007D5FFE740F68000C2F2000000210170CB
:1017600012E040F68000C2F200000121017040F654
:101770002840C2F200000068D0F8100940F6685115
:10178000C2F200010860FFE740F66050C2F20000BC
:101790004FF47A61016002B080BD000084B0014660
:1017A000ADF80E0040F63800C2F20000006802906A
:1017B000FFE70298002839D0FFE702980089BDF8BA
:1017C0000E1088422ED1FFE702980068019002981F
:1017D000406800900198002804D0FFE70098019924
:1017E0004860FFE70098002804D0FFE701980099BF
:1017F0000860FFE7029800210160029841600298AA
:10180000008940F63801C2F200010968098988425E
:1018100007D1FFE7009840F63801C2F200010860E6
:10182000FFE703E0029840680290C2E704B0704707
:1018300080B584B0039000208DF80B000398C08819
:101840004FF0FF3101EB103001460728019116D807
:101850000199DFE801F0100410101010100A03982D
:1018600007F02EF98DF80B000DE0039807F0BAFC95
:101870008DF80B0007E004208DF80B0003E0052035
:101880008DF80B00FFE79DF80B0004B080BD000051
:1018900081B040F68000C2F200000078002828D015
:1018A000FFE740F68050C2F200000168009140F668
:1018B0002841C2F200010968D1F81019009100997D
:1018C0000160009840F66851C2F200010968884240
:1018D00008D2FFE740F68050C2F2000041680131B3
:1018E0004160FFE7009840F66851C2F200010860CD
:1018F0000FE040F62840C2F200000068D0F810194E
:10190000D0F8140940F68052C2F200025060116013
:10191000FFE740F66050C2F200000021016001B014
:101920007047000040F60450C2F20000408D0028CD
:101930000DDCFFE740F60450C2F20000008D40F2DB
:10194000E831C2F200010989884208DDFFE740F66C
:101950000450C2F20000012180F8401007E040F678
:101960000450C2F20000002180F84010FFE740F66A
:10197000C040C2F20000408D00280DDCFFE740F6B9
:10198000C040C2F20000008D40F2E831C2F2000116
:101990000989884208DDFFE740F6C040C2F2000036
:1019A000012180F8401007E040F6C040C2F200007C
:1019B000002180F84010FFE77047000080B582B03A
:1019C00040F22840C2F200000088002830D0FFE733
:1019D0000020ADF8060040F62840C2F20000006882
:1019E000B0F84004ADF806009DF80600C0070028D6
:1019F0001DD1FFE740F60E40C2F20000008801282A
:101A000015DBFFE740F68700C2F2000000780028EF
:101A100005D0FFE704201B21FEF78CFC35E040F6E3
:101A20008500C2F2000000210170FFE7FFE7FFE739
:101A300040F68400C2F200000078002825D0FFE7BD
:101A400040F68700C2F20000007800281CD0FFE7B3
:101A500040F68300C2F200000078002805D1FFE7BD
:101A600004202C21FEF766FC0FE040F69700C2F23E
:101A700000000078002805D1FFE704201A21FEF7B6
:101A800059FC02E0FFE7FFE7FFE702B080BD00007E
:101A900080B584B001468DF80E0000208DF80C0052
:101AA000ADF80600ADF8040040F60840C2F20000B0
:101AB000008842F6FF7290421EDBFFE740F60840C6
:101AC000C2F20000008842F6FF71884214DBFFE793
:101AD00040F60840C2F20000008842F6FF718842DA
:101AE0000ADBFFE740F60840C2F20000008842F639
:101AF000FE71884204DCFFE714208DF80F0050E2ED
:101B0000002000F0D9FF029002984088ADF806004E
:101B100002980088ADF804000298C088C007002829
:101B200004D1FFE716208DF80C0041E00298808870
:101B300000F00C00042804D0FFE716208DF80C00FC
:101B400035E00298808800F00200022804D0FFE708
:101B500016208DF80C0029E0BDF80600232804DCCF
:101B6000FFE716208DF80C001FE0BDF80600812865
:101B700004DBFFE716208DF80C0015E0BDF804002B
:101B8000B0F5805F04DAFFE716208DF80C000AE05C
:101B9000BDF80400B0F5405F04DBFFE716208DF8C8
:101BA0000C00FFE7FFE7FFE7FFE7FFE7FFE7FFE7DF
:101BB0009DF80C00002858D1FFE7012000F07CFFC1
:101BC000029002984088ADF8060002980088ADF8AF
:101BD00004000298C088C007002804D1FFE716203F
:101BE0008DF80C0040E00298808810F00C0F04D0B3
:101BF000FFE716208DF80C0035E00298808800F091
:101C00000200022804D0FFE716208DF80C0029E01E
:101C1000BDF80600232804DCFFE716208DF80C0031
:101C20001FE0BDF80600812804DBFFE716208DF8D1
:101C30000C0015E0BDF80400B0F5805F04DAFFE7A2
:101C400016208DF80C000AE0BDF80400B0F5405FE6
:101C500004DBFFE716208DF80C00FFE7FFE7FFE746
:101C6000FFE7FFE7FFE7FFE7FFE79DF80C0000282D
:101C700040F0AB80FFE79DF80E000428C0F2A5807D
:101C8000FFE740F68100C2F200000121017003204D
:101C900000F012FF029002984088ADF8060002980A
:101CA0000088ADF804000298C088C007002809D059
:101CB000FFE7BDF80600002804D1FFE704208DF8F7
:101CC0000C0078E00298C088C007002860D0FFE7C9
:101CD000BDF8060040F60C41C2F2000109888842B6
:101CE0000DD1FFE740F60C40C2F20000008800284A
:101CF00005D0FFE7BDF80600112804DBFFE703204D
:101D00008DF80C0043E00298808810F00C0F39D158
:101D1000FFE740F60040C2F20000007802280CD134
:101D2000FFE7BDF80400B0F5805F06DBFFE7BDF814
:101D30000400B0F5405F12DBFFE740F60040C2F25E
:101D400000000078022818D0FFE7BDF8040040F634
:101D50000441C2F20001098888420ED1FFE70298CF
:101D600080888007002807D5FFE740F68100C2F28F
:101D7000000000210170FFE703E002208DF80C0055
:101D8000FFE703E004208DF80C00FFE7FFE711E018
:101D9000BDF80600002808D1FFE740F60C40C2F26B
:101DA00000000088002804D0FFE703208DF80C0015
:101DB000FFE7FFE7FFE79DF80C00002804D0FFE7EE
:101DC0001E208DF80C00FFE7FFE79DF80C000028AF
:101DD00040F0BA80FFE79DF80E000328C0F2B480FF
:101DE000FFE7022000F068FE029002984088ADF8FC
:101DF000060002980088ADF804000298C088C00769
:101E0000002809D0FFE7BDF80600002804D1FFE74D
:101E100004208DF80C008DE00298C088C0070028CF
:101E200075D0FFE7BDF8060040F60E41C2F2000192
:101E30000988884266D1FFE740F60E40C2F20000F2
:101E4000008800285ED0FFE7BDF80600102859DCA6
:101E5000FFE70298808800F00C0004284DD1FFE7CE
:101E600040F60040C2F20000007802280CD1FFE7E3
:101E7000BDF80400B0F5805F06DBFFE7BDF80400A5
:101E8000B0F5405F12DBFFE740F60040C2F2000011
:101E9000007802282CD0FFE7BDF8040040F6064188
:101EA000C2F200010988884222D1FFE702988088A7
:101EB0004006002807D5FFE740F69A00C2F200006E
:101EC0000121017006E040F69A00C2F200000021F4
:101ED0000170FFE7029880888007002807D5FFE798
:101EE00040F68100C2F2000000210170FFE703E02C
:101EF00002208DF80C00FFE703E004208DF80C00B1
:101F0000FFE703E003208DF80C00FFE711E0BDF8C8
:101F10000600002808D1FFE740F60E40C2F200009C
:101F20000088002804D0FFE703208DF80C00FFE7AD
:101F3000FFE7FFE79DF80C00002804D0FFE71D2015
:101F40008DF80C00FFE7FFE79DF80C00002823D177
:101F5000FFE79DF80E008DF80D00FFE79DF80D00DE
:101F600040F60A41C2F200010978884213DAFFE71D
:101F70009DF80D0000F0A0FD02900298C08840F688
:101F80003C01C2F200010880FFE79DF80D0001301E
:101F90008DF80D00E2E7FFE79DF80C008DF80F00CB
:101FA000FFE79DF80F0004B080BD000083B00A4633
:101FB0000346ADF80800ADF80610BDF8060001466E
:101FC0002228009100F2E4800099DFE811F023005C
:101FD00027008900B500E100E100E100E100E10037
:101FE000E100E100E100E100E100E100E100E100E9
:101FF000E100E100E100E100E100E100E100E100D9
:10200000E100E100E100E100E100E100E100E100C8
:10201000E1006B0000208DF80B00BDE0BDF808006A
:1020200041F63241884216D1FFE740F60E40C2F237
:102030000000008801280EDBFFE740F60450C2F2E2
:102040000000808900F00200012804DBFFE7002087
:102050008DF80B00A0E0BDF8080041F6334188423E
:102060001ED1FFE740F6C040C2F20000808900F0B8
:102070000200012814DBFFE740F60E40C2F2000028
:10208000008800280CD1FFE740F60C40C2F20000A7
:102090000088012804DBFFE700208DF80B007BE0BF
:1020A000FFE775E0BDF8080041F63341884216D1DC
:1020B000FFE740F6C040C2F20000808900F0020055
:1020C00001280CDBFFE740F60E40C2F2000000885A
:1020D000012804DBFFE700208DF80B005CE057E0EF
:1020E000BDF8080041F6324188420ED1FFE740F6C4
:1020F0000450C2F20000808900F00400012804DBD3
:10210000FFE700208DF80B0046E0BDF8080041F61F
:10211000334188420ED1FFE740F6C040C2F20000D2
:10212000808900F00400012804DBFFE700208DF81F
:102130000B0031E0FFE72BE0BDF8080041F632412B
:1021400088420ED1FFE740F60450C2F200008089B9
:1021500000F00800012804DBFFE700208DF80B00E9
:102160001AE0BDF8080041F6334188420ED1FFE77E
:1021700040F6C040C2F20000808900F0080001284B
:1021800004DBFFE700208DF80B0005E0FFE7FFE729
:1021900012208DF80B00FFE79DF80B0003B070478D
:1021A00040F68400C2F200000078002800F0CF80E2
:1021B000FFE740F68600C2F200000078002800F039
:1021C000C680FFE740F64000C2F200000088012808
:1021D00014DBFFE740F63E00C2F20000008840F644
:1021E0004001C2F200010988884207DBFFE740F6A0
:1021F0008300C2F20000002101701BE040F63E00A7
:10220000C2F20000008840F64001C2F200010988D5
:10221000884208DAFFE740F63E00C2F2000001887B
:1022200001310180FFE740F68300C2F20000012186
:102230000170FFE740F68300C2F20000007800283A
:1022400026D0FFE740F64400C2F2000000880128D3
:102250001DDBFFE740F64200C2F20000008840F6B6
:102260004401C2F200010988884208DAFFE740F61B
:102270004200C2F2000001880131018006E040F610
:102280008300C2F2000000210170FFE7FFE7FFE7D3
:1022900040F68300C2F200000078002846D0FFE735
:1022A00040F60450C2F20000008D40F2E831C2F264
:1022B00000010989884218DAFFE740F69700C2F268
:1022C00000000121017040F60E30C2F20000B0F9AA
:1022D0000000012808DBFFE740F60C30C2F20000E6
:1022E000018801310180FFE71FE040F69700C2F24C
:1022F00000000078002817D0FFE740F69700C2F2F0
:1023000000000021017040F60E30C2F20000B0F96A
:102310000000012807DBFFE740F60C30C2F20000A6
:1023200000210180FFE7FFE7FFE70FE040F697009D
:10233000C2F200000078002807D0FFE740F69700BF
:10234000C2F2000000210170FFE7FFE7FFE77047DE
:102350007047000082B001468DF807004FF480708E
:10236000ADF802009DF80700C00000F60600ADF8C9
:102370000400BDF8020040F62842C2F200021268D2
:10238000BDF8043023F00103D052FFE740F62840A7
:10239000C2F200000068BDF8041021F00101405AAB
:1023A000ADF80200FFE7BDF80200C0050028EDD53A
:1023B000FFE702B07047000080B540F60450C2F25B
:1023C0000000808BC007002809D1FFE740F6C0401D
:1023D000C2F20000808BC00700280CD0FFE740F657
:1023E0000E40C2F200000088002803D1FFE703F08E
:1023F00027F8FFE7FFE7FEF781FD80BD80B540F6D7
:102400008800C2F200000078002811D0FFE740F2F7
:102410002C40C2F20000B0F90000012808DBFFE701
:1024200040F22C40C2F20000018801390180FFE730
:10243000FFF7B6FE40F68000C2F2000000780028E8
:102440000CD0FFE740F68050C2F2000000684FF663
:102450004031CFF6E171884210D8FFE740F6805056
:10246000C2F200000168426844F24023C0F20F0348
:10247000C91842F100020160426010E040F680009D
:10248000C2F200000078002808D0FFE740F6605054
:10249000C2F200004FF47A610160FFE7FFE740F607
:1024A0006050C2F2000001680131016080BD00008F
:1024B00080B584B00020ADF80C0040F62841C2F28F
:1024C00000010A689288ADF80C209DF80D2040F6B6
:1024D0000A43C2F200031A700968C988ADF80C10EB
:1024E000BDF80C1040F6FF7202EB812140F6084265
:1024F000C2F200021180029009F01AFB02988DF8D6
:102500000F00FFE79DF80F0040F60A41C2F20001FC
:10251000097888420BDAFFE79DF80F00FFF71AFFF2
:10252000FFE79DF80F0001308DF80F00EAE703F098
:102530008DF940F68200C2F200000021017040F6E1
:102540008800C2F20000017040F68500C2F200006F
:10255000017040F68700C2F20000017040F686006C
:10256000C2F20000017040F69A00C2F20000017051
:1025700040F22840C2F20000018040F63E00C2F264
:102580000000018040F64000C2F20000018040F6E9
:102590004200C2F20000018040F64400C2F2000096
:1025A000018040F68400C2F20000017040F68B000A
:1025B000C2F20000017040F65050C2F200000180EB
:1025C00040F64850C2F20000018040F60E40C2F2D0
:1025D0000000018040F60C40C2F20000018040F68D
:1025E0000040C2F20000012202700078019107F061
:1025F00063FE40F60240C2F200000199018040F6FD
:102600008900C2F200000170FEF744FF019806F055
:102610002FFA04B080BD000080B582B00020ADF874
:1026200004000120ADF8020003F04AFB40F68D00E3
:10263000C2F20000007800280AD0FFE740F62840E8
:10264000C2F200000068B0F80E08ADF80200FFE723
:1026500040F62840C2F200000068B0F82002ADF851
:1026600006009DF80600C00700281DD0FFE740F6D1
:102670008800C2F200000078002815D1FFE740F67C
:102680002840C2F200000068B0F82001ADF8040054
:10269000BDF8060020F01100ADF806009DF804001A
:1026A0000021FDF747FEFFE7BDF80600C006002841
:1026B0002CD5FFE740F68800C2F200000078002821
:1026C00024D1FFE740F60040C2F200000078C006C7
:1026D00000281BD4FFE740F60040C2F2000000785B
:1026E00000F0EF00012811D0FFE7BDF8060020F050
:1026F0001000ADF8060040F60040C2F2000000787D
:1027000000F00F000021FDF715FEFFE740F68800FE
:10271000C2F200000078002803D0FFE7FEF7E4F9DA
:10272000FFE740F68D00C2F200000078002800F0BC
:102730008C80FFE7BDF80200C00700280BD1FFE73F
:1027400040F60040C2F20000007800F00F000021C7
:10275000FDF7F0FDFFE7BDF80600800500281DD558
:10276000FFE740F65C50C2F20000002101800088C3
:1027700040F62841C2F20001096840F64E52C2F20A
:102780000002128822F001028852BDF8060020F4EF
:102790000070ADF8060003F0D1F8FFE7BDF80200C5
:1027A0008007002808D5FFE740F68C00C2F2000041
:1027B000007800280ED0FFE7BDF80200800700284F
:1027C0002AD4FFE740F68C00C2F20000007800280F
:1027D00022D0FFE703F03EF940F68C00C2F2000081
:1027E0000078002807D0FFE7BDF8020040F4007031
:1027F000ADF8020006E0BDF8020020F40070ADF86C
:102800000200FFE7BDF8020040F62841C2F20001D5
:102810000968A1F80E08FFE740F62840C2F2000060
:102820000068B0F82002ADF806009DF80700C00768
:10283000002809D0FFE7BDF8060020F48070ADF84D
:10284000060002F069FEFFE7FFE702B080BD00006E
:1028500080B5012000F022FC80BD000080B5022080
:1028600000F01CFC80BD000080B5082000F016FCC4
:1028700080BD000082B001468DF807000020ADF851
:1028800002009DF80700C00000F60600ADF8040045
:10289000BDF8020040F62842C2F200021268BDF8FC
:1028A000043023F00103D052FFE740F62840C2F283
:1028B00000000068BDF8041021F00101405AADF895
:1028C0000200FFE7BDF80200C0050028EDD4FFE7D5
:1028D00002B0704772B6FFE7FEE7000080B584B033
:1028E00003900291019200930098B0F5804F1DD1A2
:1028F000FFE70398019950F821000021CCF6F07110
:10290000084002990A684B68D1F808C0D1F80CE079
:1029100042EA031242EA0C228969114341EA0E415C
:1029200008430399019A41F8220006E003980199AF
:102930006FF0704240F82120FFE7002004B080BD16
:1029400080B585B00490039104980399096850F804
:10295000212022F0010240F82120039880680828F5
:1029600003D1FFE74020029002E000200290FFE741
:10297000029803994A688B68D1F80CC0D1F810E02E
:102980001043184340EA0C0040EA0E004A69104325
:10299000CA6910430A6A10434A6A10438A6A10439C
:1029A000CA6A1043096B0843019003988069019932
:1029B000084301900398C06B0199084301904FF6BA
:1029C0007F30C0F208000090009840F480600090D2
:1029D000009840F4E020009004980399096850F8AA
:1029E000210000998843019908430499039A1268C9
:1029F00041F82200002005B080BD000080B583B002
:102A00000290019100920298009900EB81004068C9
:102A100000F0404001990A684B68D1F808C0D1F82D
:102A20000CE042EA031242EA0C2242EA0E420B692F
:102A300040F2000CCFF6F07C0CEB03531A434B69C9
:102A4000FE3342EA03628969114308430299009AFE
:102A500001EB82014860002003B080BD83B002908A
:102A600002980188408881421FD0FFE702980088C1
:102A7000ADF802000298BDF8021000EB81008068FA
:102A80000190BDF802000130ADF80200BDF802006F
:102A900002990880029801888088814204D1FFE76A
:102AA000029800210180FFE702E000200190FFE78B
:102AB000019803B07047000081B001468DF8030013
:102AC00040F62840C2F2000000689DF8032000EBA9
:102AD000C200D0F80028D0F8040840F64603C2F23D
:102AE000000358601A60184601B0704783B0029026
:102AF00000200190009040F62840C2F200000068DB
:102B0000D0F8100901900198002811D0FFE7029831
:102B10000199884205D8FFE701980299401A009070
:102B200005E001980299C94308440090FFE7FFE7D8
:102B30000298002816D0FFE740F67850C2F2000055
:102B400000680099884209D2FFE7009840F6785162
:102B5000C2F200010968401A009002E000200090D3
:102B6000FFE7FFE7009803B07047000080B584B02E
:102B700002900298002804D1FFE701208DF80F0091
:102B8000E2E0029890F82000002804D1FFE70298C4
:102B900000F0DEF8FFE702980068016841F00101EB
:102BA000016000F0ABFC0190FFE70298006840680C
:102BB000C007002815D1FFE700F0A0FC0199401ADA
:102BC0000B280DD3FFE70298416A41F400314162BE
:102BD0000298052180F8201001208DF80F00B3E045
:102BE000E3E702980068016821F00201016000F04B
:102BF00085FC0190FFE70298006840688007002884
:102C000015D5FFE700F07AFC0199401A0B280DD387
:102C1000FFE70298416A41F40031416202980521C0
:102C200080F8201001208DF80F008DE0E3E7029876
:102C3000007E012807D1FFE702980068016841F093
:102C40008001016006E002980068016821F08001BF
:102C50000160FFE70298407E012807D1FFE7029854
:102C60000068016841F04001016006E002980068D8
:102C7000016821F040010160FFE70298807E012891
:102C800007D1FFE702980068016841F02001016068
:102C900006E002980068016821F020010160FFE76A
:102CA0000298C07E012807D1FFE7029800680168FA
:102CB00021F01001016006E002980068016841F00F
:102CC00010010160FFE70298007F012807D1FFE7AC
:102CD00002980068016841F00801016006E002986E
:102CE0000068016821F008010160FFE70298407F59
:102CF000012807D1FFE702980068016841F004014C
:102D0000016006E002980068016821F0040101609A
:102D1000FFE70298016842688368D0F80CC043EA74
:102D20000C03D0F810C043EA0C0340691843013A81
:102D30001043C8610298002141620298012280F884
:102D400020208DF80F10FFE79DF80F0004B080BD24
:102D500080B588B0079000200690059004900390FD
:102D600002900798006846F20041C4F200018842D0
:102D700035D1FFE7FFE70020019043F64000C4F2A1
:102D80000200016841F000710160006800F000700D
:102D900001900198FFE7FFE70020009043F6300024
:102DA000C4F20200016841F002010160006800F015
:102DB000020000900098FFE74FF44070029002205C
:102DC000039000200490032005900920069040F213
:102DD0000040C4F2020002A900F07EF9FFE708B04B
:102DE00080BD000080B584B002900298806D019093
:102DF00000F084FB0090029890F8350002280DD076
:102E0000FFE7029880214165FFE70298002180F8E2
:102E10003410FFE701208DF80F0059E00298006898
:102E2000016821F01601016002980068416921F0F3
:102E3000800141610298006C002805D1FFE70298EB
:102E4000806C002807D0FFE702980068016821F035
:102E500008010160FFE702980068016821F00101A4
:102E60000160FFE7029800680068C007002819D0D9
:102E7000FFE700F043FB0099401A062811D3FFE753
:102E80000298202141650298032180F83510FFE760
:102E90000298002180F83410FFE703208DF80F001E
:102EA00016E0DFE70298C06D3F2101FA00F00199BA
:102EB00088600298012180F83510FFE70298002110
:102EC00080F83410FFE7FFE700208DF80F00FFE7E0
:102ED0009DF80F0004B080BD82B00090009890F87B
:102EE0003500022807D0FFE70098802141650120C6
:102EF0008DF807000EE00098052180F83510009845
:102F00000068016821F001010160FFE700208DF8F1
:102F10000700FFE79DF8070002B0704780B584B056
:102F2000039000F0EBFA02900398019001980130B1
:102F3000002809D0FFE740F21C40C2F200000078F0
:102F4000019908440190FFE7FFE700F0D7FA0299E2
:102F5000401A0199884201D2FFE7F6E704B080BD2C
:102F600080B58CB000200B900A90099008900790D3
:102F700040F23040C2F200000068002801D0FFE7B4
:102F800068E040F23040C2F2000001210160FFE73A
:102F90000020069043F63800C4F20200016841F0B8
:102FA00001010160006800F0010006900698FFE74B
:102FB0004FF23F0007900220089000210991032260
:102FC0000A920C230B9341F2004CC4F2020C0DF157
:102FD0001C0E059060460491714603920293CDF851
:102FE00004E000F079F841F2070007900598089096
:102FF00004990991039A0A92029B0B9341F60000EF
:10300000C4F20200019900F067F84FF68070079053
:103010000598089004990991039A0A92029B0B93D0
:1030200041F20000C4F20200019900F055F84CF2A0
:10303000337007900598089004990991039A0A92B1
:10304000029B0B9340F60040C4F20200019900F08D
:1030500043F8FFE70CB080BD80B582B00146ADF803
:103060000600BDF80600012803D1FFE705F0C2FA0B
:1030700011E0BDF80600082803D1FFE707F08AFF3A
:1030800008E0BDF80600022803D1FFE708F08CF83D
:10309000FFE7FFE7FFE702B080BD000080B582B028
:1030A0000146ADF8060043F61440C4F20100006882
:1030B000BDF8062010420CD0FFE7BDF8060043F62D
:1030C0001441C4F201010860BDF80600FFF7C4FF17
:1030D000FFE702B080BD00008EB00D900C91002083
:1030E0000A90099008900B90FFE70B980F2800F2C8
:1030F000D281FFE70B98012101FA00F00A900C98A9
:1031000000680A990840099009980A99884240F095
:10311000BD81FFE70C98406800F00300012807D04C
:10312000FFE70C98406800F0030002282FD1FFE76A
:103130000D98806808900B984000032101FA00F078
:10314000089921EA000008900C98C0680B99490082
:10315000884008990843089008980D9988600D9850
:10316000406808900B98012101FA00F0089921EAC3
:10317000000008900C984068C0F300100B9988403C
:1031800008990843089008980D994860FFE70C9843
:10319000406800F00300032818D0FFE70D98C068CE
:1031A00008900B984000032101FA00F0089921EAE9
:1031B000000008900C9880680B9949008840089995
:1031C0000843089008980D99C860FFE70C9840687C
:1031D00000F00300022826D1FFE70D980B996FF04D
:1031E000030202EA51010844006A08900B9800F0BB
:1031F000070080000F2101FA00F0089921EA000081
:1032000008900C9800690B9901F00701890088402B
:1032100008990843089008980D990B9B02EA5302FD
:1032200011440862FFE70D98006808900B98400071
:10323000032101FA00F0089921EA000008900C9897
:10324000406800F003000B99490088400899084342
:10325000089008980D9908600C98807980070028DC
:1032600000F01381FFE7FFE70020079043F64400DA
:10327000C4F20200016841F480410160006800F47A
:10328000804007900798FFE70B9820F0030043F673
:103290000801C4F20101405808900B9800F00300A7
:1032A00080000F2101FA00F0089921EA000008903F
:1032B0000D980021C4F20201884203D1FFE70020EB
:1032C00006905EE00D9840F20041C4F2020188428F
:1032D00003D1FFE70120059050E00D9840F6000172
:1032E000C4F20201884203D1FFE70220049042E0C9
:1032F0000D9840F60041C4F20201884203D1FFE775
:103300000320039034E00D9841F20001C4F2020161
:10331000884203D1FFE70420029026E00D9841F295
:103320000041C4F20201884203D1FFE70520019069
:1033300018E00D9841F60001C4F20201884203D161
:10334000FFE7062000900AE00D9841F60041C4F224
:1033500002010822884208BF07220092FFE7009876
:103360000190FFE701980290FFE702980390FFE7C2
:1033700003980490FFE704980590FFE705980690EE
:10338000FFE70698C0B20B9901F00301890088405D
:1033900008990843089008980B9921F0030143F617
:1033A0000802C4F20102885043F60840C4F201004A
:1033B000006808900998089921EA000008900C9884
:1033C0008079C006002805D5FFE7099808990843C9
:1033D0000890FFE7089843F60841C4F2010108602D
:1033E00043F60C40C4F2010000680890099808995F
:1033F00021EA000008900C9880798006002805D505
:10340000FFE70998089908430890FFE7089843F6F2
:103410000C41C4F20101086043F60440C4F201000B
:10342000006808900998089921EA000008900C9813
:1034300080798007002805D5FFE709980899084397
:103440000890FFE7089843F60441C4F201010860C0
:1034500043F60040C4F201000068089009980899FA
:1034600021EA000008900C988079C007002805D058
:10347000FFE70998089908430890FFE7089843F682
:103480000041C4F201010860FFE7FFE7FFE70B9886
:1034900001300B9029E60EB07047000083B00A4659
:1034A0000290ADF806100298406900900098BDF8AF
:1034B000061000EA010321EA000040EA03400299F5
:1034C000886103B07047000082B013468C460190BB
:1034D000ADF802108DF801209DF80100002805D0FC
:1034E000FFE7BDF802000199886105E0BDF8020020
:1034F000000401998861FFE702B0704740F69050E0
:10350000C2F200000068704740F21C40C2F20000A6
:10351000007840F69051C2F200010A681044086039
:103520007047000080B582B043F60040C4F202004C
:10353000016841F400710160016841F4806101603B
:10354000016841F480710160032000F095F80F20BC
:1035500000F006F8019000F03DF8002002B080BDB8
:1035600080B582B0009040F2C030C2F20000006826
:1035700040F21C41C2F2000109784FF47A72B2FBAA
:10358000F1F1B0FBF1F000F00FFE002804D0FFE7EE
:1035900001208DF8070018E000980F280DD8FFE7EC
:1035A00000994FF0FF30002200F046F8009840F2FA
:1035B0002041C2F20001086003E001208DF80700FD
:1035C00003E000208DF80700FFE79DF8070002B038
:1035D00080BD000082B0FFE70020019043F6440068
:1035E000C4F20200016841F480410160006800F407
:1035F000804001900198FFE7FFE70020009043F62C
:103600004000C4F20200016841F08051016000688E
:1036100000F0805000900098FFE702B07047000073
:1036200080B582B001468DF807009DF90700009132
:1036300008F0E8FA02B080BD80B588B003468DF886
:103640001F000691059200200490039308F042FBAE
:1036500004909DF91F000499069A059B0290084664
:1036600011461A4603F0A6F80299019008460199FE
:1036700008F038FB08B080BD80B582B00190019899
:1036800008F052FB02B080BD80B584B00290019179
:103690000298002804D1FFE701208DF80F0021E1F6
:1036A000019843F60041C4F20201096801F00701E4
:1036B000884212D9FFE7019843F60041C4F20201A3
:1036C0000870086800F007000199884204D0FFE7FD
:1036D00001208DF80F0005E1FFE7029800788007D0
:1036E00000282AD5FFE7029800784007002809D56E
:1036F000FFE743F60800C4F20200016841F4E0511C
:103700000160FFE7029800780007002809D5FFE76D
:1037100043F60800C4F20200016841F46041016010
:10372000FFE743F60800C4F20200016821F0F0014F
:10373000029A926811430160FFE702980078C0077F
:1037400000286ED0FFE702984068012811D1FFE7FA
:1037500043F60000C4F20200006800F400300021CB
:10376000B1EB504F04D1FFE701208DF80F00B9E015
:103770002CE002984068022805D0FFE702984068D4
:10378000032811D1FFE743F60000C4F202000068ED
:1037900000F000700021B1EB506F04D1FFE7012071
:1037A0008DF80F009EE010E043F60000C4F2020026
:1037B000006800F002000021B1EB500F04D1FFE7D8
:1037C00001208DF80F008DE0FFE7FFE743F60800CA
:1037D000C4F20200016821F00301029A5268114309
:1037E0000160FFF78BFE0090FFE743F60800C4F28C
:1037F0000200006800F00C0002994968B0EB810FEC
:103800000ED0FFE7FFF77AFE0099401A41F28931A6
:10381000884204D3FFE703208DF80F0062E0E4E75D
:10382000FFE7019843F60041C4F20201096801F084
:103830000701884212D2FFE7019843F60041C4F223
:1038400002010870086800F007000199884204D05E
:10385000FFE701208DF80F0044E0FFE702980078B1
:10386000400700280CD5FFE743F60800C4F2020029
:10387000016821F4E051029AD26811430160FFE728
:1038800002980078000700280DD5FFE743F60800EE
:10389000C4F20200016821F46041029A126941EA0F
:1038A000C2010160FFE700F04BF843F60801C4F2E3
:1038B00002010968C9B209094CF29422C0F600025B
:1038C000515CC84040F2C031C2F20001086040F2D1
:1038D0002040C2F200000068FFF742FE00218DF890
:1038E0000F10FFE79DF80F0004B080BD40F2C0301C
:1038F000C2F200000068704780B5FFF7F7FF43F69B
:103900000801C4F202010968C1F382214CF2A42229
:10391000C0F60002515CC84080BD000080B5FFF7D2
:10392000E5FF43F60801C4F20201096889B2490BB8
:103930004CF2A422C0F60002515CC84080BD0000D9
:1039400080B586B00020059004900390029043F665
:103950000800C4F20200006800F00C0001460028D4
:10396000019108D0FFE7019804280AD0FFE70198E9
:1039700008280CD04FE042F20040C0F2F400029060
:103980004FE041F20020C0F27A00029049E043F695
:103990000400C4F20200016801F03F0105910068D3
:1039A0004002002813D5FFE743F60400C4F20200EA
:1039B0000068C0F3881041F20021C0F27A01A0FB38
:1039C0000101059A0023FCF7FBFB049012E043F68B
:1039D0000400C4F202000068C0F3881042F2004103
:1039E000C0F2F401A0FB0101059A0023FCF7E8FBFB
:1039F0000490FFE743F60400C4F20200006800F4FC
:103A00004030022101EBD030039004980399B0FBC1
:103A1000F1F0029005E042F20040C0F2F4000290A2
:103A2000FFE7029806B080BD80B586B00490049888
:103A3000002804D1FFE701208DF8170055E3049812
:103A40000078C007002800F0A780FFE743F60800D1
:103A5000C4F20200006800F00C00042813D0FFE755
:103A600043F60800C4F20200006800F00C000828C9
:103A70001FD1FFE743F60400C4F2020000684002D1
:103A8000002816D5FFE743F60000C4F202000068E4
:103A900000F400300021B1EB504F09D0FFE704984B
:103AA0004068002804D1FFE701208DF817001CE3CF
:103AB00071E0FFE704984068B0F5803F09D1FFE767
:103AC00043F60000C4F20200016841F48031016055
:103AD00020E004984068B0F5A02F0DD1FFE743F631
:103AE0000000C4F20200016841F480210160016815
:103AF00041F4803101600CE043F60000C4F20200A2
:103B0000016821F480310160016821F480210160A5
:103B1000FFE7FFE7FFE70498406800281DD0FFE7B4
:103B2000FFF7ECFC0390FFE743F60000C4F202004D
:103B3000006800F400300021B1EB504F0CD1FFE7DA
:103B4000FFF7DCFC0399401A652804D3FFE7032044
:103B50008DF81700C9E2E7E71CE0FFF7CFFC039000
:103B6000FFE743F60000C4F20200006800F40030F2
:103B70000021B1EB504F0CD0FFE7FFF7BFFC0399DA
:103B8000401A652804D3FFE703208DF81700ACE244
:103B9000E7E7FFE7FFE7FFE70498007880070028E2
:103BA00040F19780FFE743F60800C4F20200006886
:103BB00010F00C0F13D0FFE743F60800C4F2020028
:103BC000006800F00C0008282CD1FFE743F6040041
:103BD000C4F2020000684002002823D4FFE743F645
:103BE0000000C4F20200006800F002000021B1EB06
:103BF000500F09D0FFE70498C068012804D0FFE700
:103C000001208DF8170070E243F60000C4F20200B4
:103C1000016821F0F801049A126941EAC2010160C9
:103C2000FFE755E00498C06800282ED0FFE7002089
:103C3000C4F2472001210160FFF760FC0390FFE719
:103C400043F60000C4F20200006800F00200002108
:103C5000B1EB500F0CD1FFE7FFF750FC0399401A6E
:103C6000032804D3FFE703208DF817003DE2E7E7C0
:103C700043F60000C4F20200016821F0F801049A42
:103C8000126941EAC201016021E00020C4F247202C
:103C900000210160FFF732FC0390FFE743F60000CC
:103CA000C4F20200006800F002000021B1EB500FE6
:103CB0000CD0FFE7FFF722FC0399401A032804D336
:103CC000FFE703208DF817000FE2E7E7FFE7FFE7C4
:103CD000FFE704980078000700284CD5FFE7049818
:103CE0004069002823D0FFE740F68060C4F24720F7
:103CF00001210160FFF702FC0390FFE743F6740027
:103D0000C4F20200006800F002000021B1EB500F85
:103D10000CD1FFE7FFF7F2FB0399401A032804D305
:103D2000FFE703208DF81700DFE1E7E722E040F628
:103D30008060C4F2472000210160FFF7DFFB0390A1
:103D4000FFE743F67400C4F20200006800F00200CE
:103D50000021B1EB500F0CD0FFE7FFF7CFFB039929
:103D6000401A032804D3FFE703208DF81700BCE1B5
:103D7000E7E7FFE7FFE7049800784007002840F1F5
:103D8000CF80FFE700208DF8070043F64000C4F223
:103D900002000068C000002815D4FFE7FFE70020FC
:103DA000009043F64000C4F20200016841F08051E7
:103DB0000160006800F0805000900098FFE701204B
:103DC0008DF80700FFE747F20000C4F2000000682A
:103DD000C005002822D4FFE747F20000C4F200002B
:103DE000016841F480710160FFF788FB0390FFE7F1
:103DF00047F20000C4F200000068C00500280CD49F
:103E0000FFE7FFF77BFB0399401A032804D3FFE782
:103E100003208DF8170068E1EAE7FFE7FFE7049861
:103E20008068012809D1FFE743F67000C4F2020060
:103E3000016841F0010101601FE0049880680528D5
:103E40000DD1FFE743F67000C4F20200016841F0B3
:103E500004010160016841F0010101600CE043F6DA
:103E60007000C4F20200016821F0010101600168E4
:103E700021F004010160FFE7FFE7FFE70498806895
:103E800000281FD0FFE7FFF739FB0390FFE743F659
:103E90007000C4F20200006800F002000021B1EBE3
:103EA000500F0ED1FFE7FFF729FB0399401A41F2AB
:103EB0008931884204D3FFE703208DF8170014E10D
:103EC000E5E71EE0FFF71AFB0390FFE743F67000FB
:103ED000C4F20200006800F002000021B1EB500FB4
:103EE0000ED0FFE7FFF70AFB0399401A41F2893130
:103EF000884204D3FFE703208DF81700F5E0E5E7DB
:103F0000FFE79DF80700012809D1FFE743F64000CD
:103F1000C4F20200016821F080510160FFE7FFE771
:103F200004988069002800F0DC80FFE743F6080071
:103F3000C4F20200006800F00C00082800F0858040
:103F4000FFE70498806902285CD1FFE76020C4F293
:103F5000472000210160FFF7D1FA0390FFE743F605
:103F60000000C4F20200006800F000700021B1EB14
:103F7000506F0CD0FFE7FFF7C1FA0399401A0328EE
:103F800004D3FFE703208DF81700AEE0E7E70498BD
:103F9000C169026A436AD0F828C0114341EA83111B
:103FA0004FEACC324FF6FF739A43A2F580321143A9
:103FB000C06A41EA006043F60401C4F202010860ED
:103FC0006020C4F2472001210160FFF797FA0390B7
:103FD000FFE743F60000C4F20200006800F0007042
:103FE0000021B1EB506F0CD1FFE7FFF787FA03997F
:103FF000401A032804D3FFE703208DF8170074E06C
:10400000E7E721E06020C4F2472000210160FFF7CC
:1040100075FA0390FFE743F60000C4F2020000685F
:1040200000F000700021B1EB506F0CD0FFE7FFF7FC
:1040300065FA0399401A032804D3FFE703208DF89B
:10404000170052E0E7E7FFE74AE00498806901289B
:1040500004D1FFE701208DF8170046E043F6040085
:10406000C4F202000068029004988069012831D0EF
:10407000FFE7029800F480000499C969884229D1B9
:10408000FFE7029800F03F000499096A884221D1B5
:10409000FFE7029847F6C07108400499496AB0EBFF
:1040A000811F17D1FFE7029800F440300499896A14
:1040B000C9034FF6FF729143A1F58031884209D1BF
:1040C000FFE7029800F070600499C96AB0EB016FD5
:1040D00004D0FFE701208DF8170006E0FFE7FFE7B7
:1040E000FFE700208DF81700FFE79DF8170006B0E6
:1040F00080BD000080B58AB00890079106920898AC
:10410000002804D1FFE701208DF827003FE0089840
:1041100090F84900002808D1FFE70898002180F8AE
:104120004810089800F038F8FFE7089850F8081B86
:10413000059008460599FEF703FC0899079A0B6855
:1041400089680490184603911146039AFEF756FCBD
:104150000899069A4B68D1F808C0096B0290184676
:10416000019111466246019BFEF7B8FB08990A6867
:10417000896852F8213043F0010342F82130089950
:10418000012281F8492000218DF82710FFE79DF8D2
:1041900027000AB080BD000080B582B00190FEF714
:1041A000DFFE02B080BD000080B582B001900198B2
:1041B00007F024F802B080BD81B0009001B07047D4
:1041C00081B0009001B0704785B003900291FFE785
:1041D000039890F83C00012804D1FFE702208DF8F5
:1041E00013007EE00398012180F83C10FFE7FFE711
:1041F0000398022180F83D10039800684068019000
:104200000398006880680090019820F07000019089
:104210000298006801990843019001980399096880
:104220004860039800680021C4F2010188423CD034
:10423000FFE703980068B0F1804F36D0FFE703989E
:10424000006840F20041C4F2000188422DD0FFE72F
:104250000398006840F60001C4F20001884224D0AF
:10426000FFE70398006840F60041C4F2000188426D
:104270001BD0FFE70398006840F20041C4F201013F
:10428000884212D0FFE70398006844F20001C4F2AC
:104290000101884209D0FFE70398006841F6000158
:1042A000C4F2000188420ED1FFE7009820F08000A0
:1042B0000090029840680099084300900098039984
:1042C00009688860FFE70398012180F83D10FFE747
:1042D0000398002180F83C10FFE700208DF81300C0
:1042E000FFE79DF8130005B07047000080B584B06B
:1042F00002900298002804D1FFE701208DF80F00FA
:1043000043E0029890F83D00002808D1FFE70298AA
:10431000002180F83C10029800F03CF8FFE702987A
:10432000022180F83D10029850F8041B01900846C5
:10433000019907F003F80298012180F84610FFE781
:104340000298012180F83E10029880F83F100298F0
:1043500080F84010029880F84110FFE7FFE70298CC
:10436000012180F84210029880F84310029880F8EA
:104370004410029880F84510FFE70298012180F868
:104380003D1000208DF80F00FFE79DF80F0004B0EE
:1043900080BD000080B584B003900398006840F2AF
:1043A0000041C4F2000188421CD1FFE7FFE7002072
:1043B000029043F64000C4F20200016841F002019D
:1043C0000160006800F0020002900298FFE71D20E3
:1043D000002101900091009AFFF72EF90198FFF754
:1043E0001FF9FFE704B080BD83B00190019890F8F9
:1043F0003D00012804D0FFE701208DF80B006AE0A2
:104400000198022180F83D1001980068C16841F0D0
:104410000101C160019800680021C4F201018842D5
:104420003CD0FFE701980068B0F1804F36D0FFE73D
:104430000198006840F20041C4F2000188422DD08A
:10444000FFE70198006840F60001C4F200018842CD
:1044500024D0FFE70198006840F60041C4F2000153
:1044600088421BD0FFE70198006840F20041C4F287
:104470000101884212D0FFE70198006844F2000170
:10448000C4F20101884209D0FFE70198006841F6B3
:104490000001C4F20001884212D1FFE701980068D0
:1044A000806800F0070000900098062807D0FFE71A
:1044B00001980068016841F001010160FFE706E032
:1044C00001980068016841F001010160FFE70020E8
:1044D0008DF80B00FFE79DF80B0003B0704700005C
:1044E00080B58CB00A90099100208DF82300FFE779
:1044F0000A9890F83C00012804D1FFE702208DF8CB
:104500002F00BBE00A98012180F83C10FFE7FFE78D
:104510000A98022180F83D100A9800688068079088
:10452000079820F077000790079820F47F400790C5
:1045300007980A9909688860099800680028069019
:1045400000F08280FFE7069810287DD0FFE70698EC
:10455000202879D0FFE70698302875D0FFE7069825
:10456000402861D0FFE7069850283DD0FFE7069825
:10457000602849D0FFE7069870280BD0FFE706981F
:10458000B0F5805F05D0FFE70698B0F5005F19D061
:1045900061E064E00A98006809994A688B68C96814
:1045A00005911946059B06F0A3FF0A9800688068EC
:1045B0000790079840F07700079007980A990968D4
:1045C00088604CE00A98006809994A688B68C96855
:1045D00004911946049B06F08BFF0A9800688168D5
:1045E00041F4804181603AE00A98006809994A687C
:1045F000C96803911146039A06F0AAFF0A98006859
:10460000502106F08FFF2AE00A98006809994A684D
:10461000C96802911146029A06F0C2FF0A98006822
:10462000602106F07FFF1AE00A98006809994A683D
:10463000C96801911146019A06F08AFF0A9800683C
:10464000402106F06FFF0AE00A980068099909689E
:1046500006F068FF03E001208DF82300FFE70A98C9
:10466000012180F83D10FFE70A98002180F83C10F6
:10467000FFE79DF823008DF82F00FFE79DF82F003E
:104680000CB080BD81B0009001B0704780B584B09F
:10469000039003980068C06802900398006800695E
:1046A00001909DF804008007002825D5FFE79DF8BC
:1046B0000800800700281ED5FFE7039800686FF008
:1046C0000201016103980121017703980068806964
:1046D0008007002804D0FFE70398FFF7D3FF06E028
:1046E000039800F0E5F8039800F0E6F8FFE7039878
:1046F00000210177FFE7FFE79DF80400400700284D
:1047000025D5FFE79DF80800400700281ED5FFE7E4
:10471000039800686FF0040101610398022101779A
:1047200003980068806910F4407F04D0FFE7039885
:10473000FFF7A8FF06E0039800F0BAF8039800F02E
:10474000BBF8FFE7039800210177FFE7FFE79DF83B
:1047500004000007002825D5FFE79DF808000007A2
:1047600000281ED5FFE7039800686FF0080101617B
:1047700003980421017703980068C0698007002826
:1047800004D0FFE70398FFF77DFF06E0039800F0F1
:104790008FF8039800F090F8FFE703980021017765
:1047A000FFE7FFE79DF80400C006002825D5FFE7D6
:1047B0009DF80800C00600281ED5FFE70398006892
:1047C0006FF01001016103980821017703980068D8
:1047D000C06910F4407F04D0FFE70398FFF752FF51
:1047E00006E0039800F064F8039800F065F8FFE72E
:1047F000039800210177FFE7FFE79DF80400C00759
:10480000002810D0FFE79DF80800C007002809D055
:10481000FFE7039800686FF001010161039800F061
:104820004FF8FFE7FFE79DF804000006002810D5C9
:10483000FFE79DF808000006002809D5FFE7039868
:1048400000686FF0800101610398FFF7B5FCFFE796
:10485000FFE79DF804004006002810D5FFE79DF80B
:1048600008004006002809D5FFE7039800686FF0AC
:1048700040010161039800F033F8FFE7FFE79DF87E
:1048800004008006002810D5FFE79DF80800800688
:10489000002809D5FFE7039800686FF02001016147
:1048A0000398FFF78DFCFFE7FFE704B080BD000031
:1048B00081B0009001B0704781B0009001B07047A6
:1048C00080B582B00190019840F65C11C2F20001FF
:1048D000884203D1FFE7FDF791FDFFE702B080BDFD
:1048E00081B0009001B0704780B58AB0DDF830C06B
:1048F000964608900791ADF81A200593089890F80D
:104900004200202840F0D380FFE70798002805D018
:10491000FFE7BDF81A00002804D1FFE701208DF859
:104920002700C8E00898002141640898222280F8F6
:10493000422008980122026308984163FEF7DEFDD9
:104940000290BDF81A0008998885BDF81A000899E8
:10495000C88508988068B0F5805F0AD1FFE708989D
:104960000069002805D1FFE7002004900798039014
:1049700004E00798049000200390FFE705980021C9
:104980000180FFE70898C08D002800F08280FFE7D3
:10499000089800680068C00600281ED5FFE7FFE7FA
:1049A000002001900898006800680190089800684D
:1049B000406801900198FFE70598008800280BD017
:1049C000FFE70898022141630898202180F84210EF
:1049D00000208DF827006EE0FFE708980068006867
:1049E000800600283AD5FFE7049800280BD1FFE79E
:1049F0000898006840686FF35F2003990880039867
:104A00000230039021E008988068B0F5805F0AD0FA
:104A1000FFE70898806800280BD1FFE70898006935
:104A2000002806D1FFE708980068406804990870DC
:104A300007E008980068406800F07F00049908705B
:104A4000FFE7049801300490FFE7059801880131E1
:104A500001800898C18D0139C185FFE70C980130AC
:104A6000002815D0FFE7FEF749FD0299401A0C997E
:104A7000884204D8FFE70C98002808D1FFE708987F
:104A8000202180F8421003208DF8270013E0FFE773
:104A900078E70898818DC08D081A059908800898D4
:104AA000202180F8421000208DF8270003E002202A
:104AB0008DF82700FFE79DF827000AB080BD0000B1
:104AC00082B00A460190ADF8021002B070470000B3
:104AD00081B0009001B0704780B592B011901198EC
:104AE00000680068109011980068C0680F901198D5
:104AF000006840690E9000200D900C90109800F016
:104B00000F000D900D98002811D1FFE79DF840008F
:104B1000800600280AD5FFE79DF83C0080060028A3
:104B200004D5FFE7119806F0D3FDF2E1FFE70D98F9
:104B3000002800F0CA80FFE79DF83800C007002871
:104B400007D1FFE7BDF83C0010F4907F00F0BD8076
:104B5000FFE79DF84000C00700280CD0FFE79DF854
:104B60003D00C007002806D0FFE71198416C41F0D6
:104B700001014164FFE79DF84000400700280CD583
:104B8000FFE79DF83800C007002806D0FFE711981E
:104B9000416C41F002014164FFE79DF8400080074D
:104BA00000280CD5FFE79DF83800C007002806D084
:104BB000FFE71198416C41F004014164FFE79DF863
:104BC00040000007002812D5FFE79DF83C00800652
:104BD000002806D4FFE79DF83800C007002806D05B
:104BE000FFE71198416C41F008014164FFE711981B
:104BF000406C002868D0FFE79DF840008006002840
:104C00000AD5FFE79DF83C008006002804D5FFE7A1
:104C1000119806F05DFDFFE7119800684069C0F348
:104C200080100C901198406C0007002804D4FFE716
:104C30000C98002840D0FFE7119806F0EBFC119883
:104C4000006840694006002831D5FFE7FFE7FFE72D
:104C50001198006850E8050F20F040000B90FFE726
:104C60000B981199096841E80502002AF0D1FFE785
:104C7000FFE71198C06B002814D0FFE71198C06BB4
:104C80004BF2F551C0F6000101651198C06BFEF7BB
:104C900023F9002805D0FFE71198C06B016D884704
:104CA000FFE703E01198FFF713FFFFE703E0119818
:104CB000FFF70EFFFFE706E01198FFF709FF1198D5
:104CC00000214164FFE7FFE723E11198006B012811
:104CD00040F0FF80FFE79DF84000C006002840F14B
:104CE000F880FFE79DF83C00C006002840F1F18005
:104CF000FFE7FFE700200A901198006800680A901B
:104D00001198006840680A900A98FFE711980068B7
:104D100040694006002840F18280FFE71198C06B8F
:104D200000684068ADF82600BDF82600002875D060
:104D3000FFE7BDF826001199898D88426EDAFFE7FA
:104D4000BDF826001199C8851198C06BC069B0F5EF
:104D5000807F58D0FFE7FFE7FFE71198006850E831
:104D6000030F20F480700890FFE7089811990968F4
:104D700041E80302002AF0D1FFE7FFE7FFE7FFE782
:104D80001198006850E8050F20F001000790FFE738
:104D900007981199096841E80502002AF0D1FFE758
:104DA000FFE7FFE7FFE71198006850E8050F20F0E4
:104DB00040000690FFE706981199096841E805024E
:104DC000002AF0D1FFE7FFE71198202180F8421078
:104DD000119800210163FFE7FFE71198006850E890
:104DE000030F20F010000590FFE70598119909685E
:104DF00041E80302002AF0D1FFE7FFE71198C06BFA
:104E0000FDF7F0FFFFE71198022141631198818DB2
:104E1000C28D891A89B2FFF753FEFFE779E0119836
:104E2000818DC08D081AADF812001198C08D002830
:104E30004ED0FFE7BDF81200002849D0FFE7FFE79A
:104E4000FFE71198006850E8030F20F4907003907A
:104E5000FFE703981199096841E80302002AF0D19D
:104E6000FFE7FFE7FFE7FFE71198006850E8050F4D
:104E700020F001000290FFE702981199096841E8CB
:104E80000502002AF0D1FFE7FFE71198202180F802
:104E90004210119800210163FFE7FFE711980068B5
:104EA00050E8030F20F010000190FFE701981199DE
:104EB000096841E80302002AF0D1FFE7FFE71198F3
:104EC000022141631198BDF81210FFF7F9FDFFE7C9
:104ED0001FE09DF84000000600280AD5FFE79DF876
:104EE0003C000006002804D5FFE7119806F054FDA9
:104EF0000FE09DF84000400600280AD5FFE79DF826
:104F00003C004006002804D5FFE7119806F0CCFBD2
:104F1000FFE712B080BD000080B582B0009000981D
:104F2000002804D1FFE701208DF8070042E0009837
:104F30008069002801D0FFE700E0FFE7009890F8C3
:104F40004100002808D1FFE70098002180F84010B8
:104F5000009800F033F8FFE70098242180F8411012
:104F600000980068C16821F40051C160009806F003
:104F700067FC00980068016921F490410161009884
:104F80000068416921F02A01416100980068C16808
:104F900041F40051C1600098002141640098202232
:104FA00080F84120009880F84220009841638DF8F5
:104FB0000710FFE79DF8070002B080BD80B594B0F0
:104FC000139000201290119010900F900E90139853
:104FD000006844F60041C4F20001884232D1FFE784
:104FE000FFE700200D9043F64000C4F20200016884
:104FF00041F400210160006800F400200D900D983C
:10500000FFE7FFE700200C9043F63000C4F20200F7
:10501000016841F001010160006800F001000C909E
:105020000C98FFE703200E9002210F9100211091B0
:105030001190082012900020C4F202000EA9FEF781
:105040004BF80FE11398006841F20001C4F201012E
:10505000884240D1FFE7FFE700200B9043F6440071
:10506000C4F20200016841F010010160006800F024
:1050700010000B900B98FFE7FFE700200A9043F623
:105080003000C4F20200016841F0010101600068D3
:1050900000F001000A900A98FFE74FF4C0600E90FC
:1050A00002200F90002010900321119107211291EE
:1050B0000021C4F202010EAA039008461146FEF731
:1050C0000BF8252002900399039AFEF7B5FA02988F
:1050D000FEF7A6FAC5E01398006844F20041C4F256
:1050E0000001884233D1FFE7FFE70020099043F633
:1050F0004000C4F20200016841F400310160006820
:1051000000F4003009900998FFE7FFE700200890BD
:1051100043F63000C4F20200016841F00101016071
:10512000006800F0010008900898FFE70C200E903E
:1051300002200F9000201090032011900720129061
:105140000020C4F202000EA9FDF7C6FF88E0139804
:10515000006844F60001C4F20001884235D1FFE73F
:10516000FFE70020079043F64000C4F20200016808
:1051700041F480210160006800F4802007900798C6
:10518000FFE7FFE70020069043F63000C4F202007C
:10519000016841F002010160006800F00200069021
:1051A0000698FFE74FF440600E9002200F90002019
:1051B0001090032011900720129040F20040C4F29A
:1051C00002000EA9FDF788FF49E01398006841F23C
:1051D0000041C4F20101884240D1FFE7FFE700200F
:1051E000059043F64400C4F20200016841F020013A
:1051F0000160006800F0200005900598FFE7FFE7D8
:105200000020049043F63000C4F20200016841F02F
:1052100004010160006800F0040004900498FFE7B6
:10522000C0200E9002200F900020109003211191B9
:105230000821129140F60001C4F202010EAA019069
:1052400008461146FDF748FF472000900199019A52
:10525000FEF7F2F90098FEF7E3F9FFE7FFE7FFE753
:10526000FFE7FFE714B080BD81B0009001B0704748
:1052700080B58AB0944608900791ADF81A2005933E
:1052800000200290089890F84100202840F0888083
:10529000FFE70798002805D0FFE7BDF81A000028AF
:1052A00004D1FFE701208DF827007DE00898002158
:1052B00041640898212180F84110FEF71FF90290FF
:1052C000BDF81A0008998884BDF81A000899C884A6
:1052D00008988068B0F5805F0AD1FFE708980069F8
:1052E000002805D1FFE7002004900798039004E010
:1052F0000798049000200390FFE7FFE70898C08C10
:10530000002831D0FFE70898029B05996A46116092
:105310008021002206F08CFB002808D0FFE70898C7
:10532000202180F8411003208DF827003CE00498EC
:1053300000280BD1FFE7039800886FF35F200899DE
:105340000968486003980230039008E004980078E8
:10535000089909684860049801300490FFE70898AC
:10536000C18C0139C184C9E70898029B05996A4636
:1053700011604021002206F05BFB002808D0FFE707
:105380000898202180F8411003208DF827000BE0B9
:105390000898202180F8411000208DF8270003E0B4
:1053A00002208DF82700FFE79DF827000AB080BD96
:1053B00081B0009001B0704780B584B000200390A8
:1053C00040F62841C2F200014FF0D8420A60ADF821
:1053D0000A00FFE740F62840C2F200000068B0F87B
:1053E0004001ADF80A00FFE79DF80A0001210828F6
:1053F000019108DBFFE79DF80A0000210D28C8BFD6
:1054000001210191FFE70198C0070028E2D1FFE7E1
:10541000039840F62841C2F200010968C1F804026D
:10542000062006F03DFC40F65C10C2F20000FEF7DC
:10543000DBFF00210090084604B080BD70470000EB
:1054400080B582B040F68400C2F2000000780028E7
:105450005DD1FFE740F66450C2F20000006800280A
:105460004CD0FFE740F66450C2F2000001680190A2
:105470000846FDF73BFB0199086040F60450C2F274
:105480000000406800280DD0FFE740F60450C2F24B
:105490000000406840F66451C2F200010968884289
:1054A0000BD9FFE740F66450C2F20000006840F6F6
:1054B0000451C2F200014860FFE740F6C040C2F26A
:1054C0000000406800280DD0FFE740F6C040C2F25F
:1054D0000000406840F66451C2F200010968884249
:1054E0000BD9FFE740F66450C2F20000006840F6B6
:1054F000C041C2F200014860FFE7FFE70020FDF76E
:10550000F5FA40F66451C2F200010860FFE702B00C
:1055100080BD0000FFE7FEE780B586B040F628407A
:10552000C2F20000006840F64C51C2F20001098846
:1055300021F00101405AADF8160040F68F00C2F28A
:1055400000000078012825D1FFE70A2006F06CFE54
:105550000490049800281CD0FFE7049800210181E2
:10556000416001600498042202800498828822F439
:105570007062828004980122C2800498072202810E
:10558000049800F0B5FA04990290084606F024FE4B
:10559000FFE7FFE7BDF816000630ADF8160040F64D
:1055A0009600C2F200000078002808D1FFE740F61C
:1055B0008850C2F200000078002807D0FFE740F6CC
:1055C0009000C2F20000012101707EE040F69000E0
:1055D000C2F2000000210170BDF8160040F65251E1
:1055E000C2F200010988884208DDFFE740F6525008
:1055F000C2F200000088ADF81600FFE740F65250F6
:10560000C2F20000008806F00FFE40F65041C2F2E0
:10561000000108600868002807D1FFE740F6900005
:10562000C2F20000012101704FE040F65040C2F28A
:105630000000006840F62841C2F200010A6840F606
:105640004C53C2F200031B8823F001031A44BDF837
:105650001630019111461A46FAF7E3FD0021ADF824
:105660000E1001990A68B2F80428ADF80E20BDF8B2
:105670000E20ADF80E20BDF80E201205002A1CD514
:10568000FFE740F65C50C2F200000021018040F6C6
:105690002841C2F20001096840F64C52C2F20002F1
:1056A000128840F65253C2F200031B881A44023A91
:1056B00022F00102895A0180FFE740F65040C2F211
:1056C0000000006800F092FAFFE706B080BD00001D
:1056D00080B586B0049040F60040C2F20000007829
:1056E00000F00F00012804D1FFE7F0208DF817002B
:1056F000A8E040F68D00C2F200000078002804D136
:10570000FFE7F0208DF817009CE040F69600C2F20B
:1057100000000078002804D0FFE707208DF817006C
:1057200090E004980088ADF80E0040F62840C2F2E0
:105730000000016840F64E52C2F20002128822F0C8
:1057400001021144049ABDF80E3006330090084659
:1057500011461A46FAF765FD0021ADF80C100099C4
:105760000A68B2F80C28ADF80C20BDF80C20ADF892
:105770000C20BDF80C201205002A44D4FFE740F6A7
:105780005450C2F200000088BDF80E10401A0638CE
:10579000ADF80A0040F65C50C2F200000021018022
:1057A000BDF80A00012814DCFFE7BDF80E00063042
:1057B000400801900498019900EB4101BDF80A00EE
:1057C000C0F1020240F65C50C2F20000FAF729FD77
:1057D000FFE740F65C50C2F20000008840F6284126
:1057E000C2F20001096840F64E52C2F2000212886D
:1057F00040F65453C2F200031B881A44023A22F0C6
:1058000001028852FFE740F64440C2F200000068FF
:10581000002807D0FFE740F65040C2F20000002108
:105820000160FFE7049840F64441C2F200010860BD
:1058300040F69600C2F200000121017000208DF8B0
:105840001700FFE79DF8170006B080BD81B040F655
:105850005250C2F200002421018040F65450C2F29E
:1058600000008021018040F64C50C2F200004FF44D
:105870008051018040F64E50C2F20000018040F697
:105880005840C2F200000021018041800A2282803B
:1058900040F68C40C2F2000001804180828040F6D8
:1058A0005040C2F20000016040F64840C2F20000E1
:1058B000016040F64440C2F20000016040F64C40F6
:1058C000C2F20000016040F68C00C2F200000170DC
:1058D000ADF8021040F62840C2F200000268B2F8AB
:1058E0000E28ADF80220BDF8022022F40072ADF8B7
:1058F0000220BDF802200068A0F80E2840F68D00B6
:10590000C2F20000017040F69600C2F20000017081
:1059100040F69000C2F20000017040F68850C2F2DA
:105920000000017040F68A50C2F20000017040F69B
:105930008950C2F20000017001B0704780B584B098
:1059400040F69600C2F200000021017040F6484087
:10595000C2F200000068002815D0FFE740F64C4076
:10596000C2F20000006800280DD1FFE740F6484071
:10597000C2F2000001680190084606F02DFC0020EC
:1059800001990860FFE740F64440C2F20000006859
:1059900040F64841C2F20001086040F64C40C2F2B5
:1059A0000000006800280DD0FFE740F64C40C2F22E
:1059B0000000016800900846FFF78AFE0021009A67
:1059C00011600FE040F68C40C2F20000FDF746F88F
:1059D00003900398002804D0FFE70398FFF778FEB0
:1059E000FFE7FFE740F68850C2F200000078002889
:1059F0002ED0FFE740F68850C2F200000078800702
:105A0000002823D5FFE700208DF80B0040F68850D2
:105A1000C2F20000017801F0FD01017040F6504033
:105A2000C2F200000068FBF7EDFC8DF80B009DF85A
:105A30000B00002809D0FFE740F68850C2F20000B2
:105A4000017841F002010170FFE700E0FFE7FFE7A6
:105A500004B080BD80B582B040F64840C2F200007C
:105A60000068002838D0FFE740F64840C2F2000046
:105A70000068019040F69600C2F20000007800280D
:105A800020D0FFE740F64C40C2F20000006800283A
:105A900018D1FFE701200090FCF75CFC40F6444081
:105AA000C2F20000006840F64C41C2F200010860FA
:105AB0000098FCF7DFFE40F69600C2F200000021DD
:105AC0000170FFE70198FFF703FE40F64841C2F27C
:105AD000000100220A60FFE740F68C00C2F20000DD
